:020000040800F2
:10000000A809002049010008191B00085D14000818
:100010007D1A00086D0C0008C126000800000000D1
:100020000000000000000000000000007D2100082A
:100030002D10000800000000B91F000881220008F0
:100040006301000863010008630100086301000800
:1000500063010008630100086301000863010008F0
:1000600063010008630100086301000863010008E0
:1000700063010008630100086301000863010008D0
:10008000630100086301000863010008000000002C
:1000900000000000000000000000000063010008F4
:1000A00063010008D522000863010008630100080D
:1000B0009523000863010008A523000863010008D8
:1000C0006301000863010008630100086301000880
:1000D000630100084924000863010008792400082E
:1000E0006301000863010008630100086301000860
:1000F0006301000863010008000000000000000028
:100100000000000000000000630100086301000817
:10011000630100086301000863010008630100082F
:10012000630100086301000863010008630100081F
:1001300063010008DFF80CD000F092FC0048004793
:10014000F5400008A80900200648804706480047F7
:10015000FEE7FEE7FEE7FEE7FEE7FEE7FEE7FEE777
:10016000FEE7FEE785220008350100082DE9F04191
:1001700000242546002905DA01240027D0EB0700DA
:1001800067EB0101002B05DA0027D2EB07020125FE
:1001900067EB030300F06CFB86460E4617469C4651
:1001A000AC4204D00025D0EB050E65EB010624B16E
:1001B0000020D2EB000760EB030C704631463A4654
:1001C0006346BDE8F081D2B201E000F8012B491E80
:1001D000FBD270470022F6E710B513460A460446E4
:1001E0001946FFF7F0FF204610BD30B50446002049
:1001F000034600E05B1C934203D2E05CCD5C401BF5
:10020000F8D030BDF0B480EA0102D40F4200B2EB66
:10021000410F02D20246084611464A0042D0C30DA1
:10022000DDB2C1F3C752AD1A202D35DAC1F3160184
:1002300041F4000204B15242C5F1200602FA06F16F
:100240002A411044B3EBD05F23D0C4B1012DA0EB01
:10025000C35009DCF0BC4FF0004202EAC35200F583
:100260000000DBB200F06FBB400000F1807000EBDB
:10027000C350A0F1807040EAD170490009E04908FC
:1002800041EAC071A0EBC35000F50000400800EB4C
:10029000C350F0BC00F04EBB6142012202EB4101B1
:1002A000001BF6E7F0BC704781F00041AAE780F040
:1002B0000040A7E780EA010210B502F000434000C9
:1002C00026D04A0023D04FEA106101EB1261C0F33F
:1002D0005600C2F3560240F4000042F40002A0FBB4
:1002E0000220A1F17F014FEA0040140401D000F187
:1002F000010050EA124001D44000491EC2B20C066F
:1003000004EBD010401C4008802A02D003E00020FB
:1003100010BD20F00100002900DA0020184310BDB4
:1003200030B480EA010202F0004530F0004221F0D2
:10033000004015D0A0B1C0F3C753C2F3C754C2F3F5
:100340001601C0F31600E41A41F4000140F4000263
:100350007D34914201D3641C00E04900002C02DA94
:1003600030BC002070474FF400000023914201D3BD
:10037000891A034340084FEA4101F7D151B1914234
:1003800002D14FF0004105E002D24FF0010101E03F
:100390006FF0010103EBC450284430BC00F0CABA2E
:1003A000420005D0C0F3C7525242914201DC002006
:1003B000704700EBC15070472DE9FE4F804681EA3F
:1003C0000300C00F0C46009021F0004123F00045CF
:1003D000B8EB0200A94105D24046214690461C4692
:1003E0000B46024623F00040104304D1404621460C
:1003F00003B0BDE8F08F270DC7F30A00C3F30A511D
:100400000290401A0190402866DAC3F3130040F4CA
:10041000801B0098924620B10023D2EB030A63EBC5
:100420000B0B01985946C0F14002504600F051FABA
:1004300006460D4650465946019A00F069FA10EBFF
:1004400008006141002487EA115284EAE7731A43E5
:100450003BD0009A3AB3019A012A4FEA075210DCC6
:10046000001B61EB02014FF0004202EA0752CDE9A6
:100470000042001C41F5801132462B4600F09DFAE7
:10048000B6E7001B61EB0201001C41F58013001868
:100490005B412018A2F5001747EB030140EAD57035
:1004A000B6196D4111E06D084FEA360645EAC07590
:1004B0004FEA0752001B61EB0201001C41F580115D
:1004C00049084FEA30000019514132462B4603B02B
:1004D000BDE8F04F00F064BA00980122400000230C
:1004E000D0EB020263EBE073009821464FEAE07420
:1004F000B8EB000061EB0401E9E783F000435BE740
:1005000081F0004158E72DE9FE4F81EA030404F031
:10051000004421F0004100944FF0000B23F0004311
:1005200050EA010402D052EA030404D1002001463B
:1005300003B0BDE8F08FC3F30A54C1F30A552C444D
:10054000A4F2F3340194A0FB0254C1F3130141F46B
:100550008011C3F3130343F4801301FB024400FB37
:10056000034E840A970A44EA815447EA8357A4FB5E
:10057000076802958D0A05FB07854FEA932C04FB5B
:100580000C542705029D4FEA065847EA1637B5EB8B
:1005900008056EEB070C870E920E47EA811742EAB8
:1005A0008312A7FB0201B6EB0B0164EB00042B0DD9
:1005B00043EA0C335E1844EB1C50DA465146E7FB25
:1005C0000201C5F313044FEA0B3343EA14534FEA15
:1005D0000432019C43EA0603A4F10C040294009C3B
:1005E000CDE900B400F0E9F9A2E72DE9F04D81EA88
:1005F000030404F0004B21F0004514464FF0000ABC
:1006000023F0004150EA050220D054EA01021DD037
:10061000C5F30A570246C5F31303C1F31300C1F330
:100620000A5640F4801543F48013A7EB0608101B0C
:10063000D64608F2FD3873EB050002D308F1010835
:1006400001E092185B41B8F1000F03DA0020014687
:10065000BDE8F08D00204FF48011064684460EE080
:10066000171B73EB050705D3121B63EB050306434A
:100670004CEA010C49084FEA300092185B4150EAFD
:100680000107EDD152EA030012D082EA040083EAA6
:100690000501084303D100224FF0004308E0101B7E
:1006A000AB4102D20122002302E06FF0010253109D
:1006B0001AEB06004CEB085110EB0A0041EB0B0162
:1006C000BDE8F04D00F06CB970B521F00043034374
:1006D0000CD0C1F30A550024D5EB040564EB0403E8
:1006E000D617AD1AB34102DB0020014670BD2018B9
:1006F00041EB025170BDC10F80EAE0700844CA07A7
:100700009623002100F01FB996230022114600F025
:100710001AB90EB5C10F80EAE0700844CA0700217B
:1007200040F233438DE80E000A460B4600F045F9CF
:1007300003B000BD0EB540F2334102910021CDE976
:1007400000110A460B4600F038F903B000BD00F076
:10075000004220F00040C10DC0F3160040F400003C
:100760007F2901DA00207047962903DCC1F1960148
:10077000C84001E096398840002AF4D040427047D2
:1007800020F00040C10DC0F3160040F400007F29A6
:1007900001DA00207047962903DCC1F19601C840B8
:1007A000704796398840704770B5C1F30A5201F01E
:1007B00000450024C1F3130140F2FF3341F48011DE
:1007C0009A4201DA002070BD40F233439A42A2F20D
:1007D000334203DC524200F08BF800E090402C439F
:1007E000F1D0404270BD00F0004230F000400AD02D
:1007F000C10D01F56071C0F3160042EA0151C20853
:1008000040071143704700200146704701F0004344
:1008100030B421F0004150EA010206D00A0DA2F5E1
:100820006072C1F31301002A02DC30BC0020704763
:10083000440F44EAC104C100E01830BC00EBC250D0
:1008400000F078B830B50B46014600202022012484
:1008500009E021FA02F59D4205D303FA02F5491B8E
:1008600004FA02F52844151EA2F10102F1DC30BDA4
:100870002DE9F05F0546002092469B4688460646D5
:10088000814640241BE0284641464746224600F068
:100890002FF853465A46C01A914110D311461846B4
:1008A000224600F016F82D1A67EB01084F46224643
:1008B0000120002100F00DF817EB00094E41201E29
:1008C000A4F10104DFDC484631462A464346BDE830
:1008D000F09F202A04DB203A00FA02F10020704742
:1008E0009140C2F1200320FA03F31943904070476E
:1008F000202A04DB203A21FA02F00021704721FA75
:1009000002F3D040C2F120029140084319467047DB
:10091000202A06DBCB17203A41FA02F043EAE073C3
:1009200006E041FA02F3D040C2F1200291400843B0
:10093000194670470029A8BF7047401C490008BFEE
:1009400020F00100704710B4B0FA80FC00FA0CF0FF
:1009500050EA010404BF10BC704749B1CCF1200437
:1009600021FA04F411FA0CF118BF012121430843C4
:10097000A3EB0C01CB1D0106000A002BBEBF00201B
:1009800010BC704700EBC35010440029A4BF10BC3A
:100990007047401C490008BF20F0010010BC7047A0
:1009A00010B5002B08DA401C41F1000192185B41A0
:1009B0001A4301D120F0010010BD2DE9F04D9246FF
:1009C0009B4611B1B1FA81F202E0B0FA80F2203216
:1009D0009046FFF77EFF04460F4640EA0A0041EAD0
:1009E0000B0153465A46084303D120463946BDE819
:1009F000F08D114653EA010015D0C8F1400250466F
:100A0000FFF776FF05460E46504659464246FFF729
:100A100060FF084301D0012000E00020054346EAC2
:100A2000E0762C4337430A984FEA4453A0EB080082
:100A30004FEAD4240A304FF0000244EA47544FEA08
:100A4000D72502D500200146D1E7010510196941DB
:100A5000DDE9084500196941BDE8F04DA0E7000057
:100A6000064C074D06E0E06840F0010394E80700FB
:100A700098471034AC42F6D3FFF760FB706D000866
:100A8000906D00082DE9F04D00231A461B1A8A418B
:100A900003DB00200146BDE8F08DC1F30A52C1F32B
:100AA000130141F480154FF0000BD10702D100185B
:100AB0006D41521E0027044640F2FF11384601EBFB
:100AC000620A3E468046024600204FF48011FFF73E
:100AD0000FFFC2197141BB1846EB0100B4EB030CC8
:100AE00075EB000C04D3E41A65EB000517460E46BF
:100AF000241908F101006D4180463428E3DDF9191D
:100B000046EB0600091BA84103D24FF0FF32134603
:100B100001E0002213461BEB070046EB0A51BDE83B
:100B2000F04DFFF73DBF70B501EB020410F8015B1B
:100B300015F0070301D110F8013B2A1106D110F876
:100B4000012B03E010F8016B01F8016B5B1EF9D17A
:100B50002B0705D40023521E0FD401F8013BFAE7FE
:100B600010F8013B02F10202A1EB030303E013F8CA
:100B7000015B01F8015B521EF9D5A142D6D30020DA
:100B800070BD0000354810B5816941F004018161F4
:100B900033490A6822F470220A60816941F40071C5
:100BA0008161C16841F40071C160C16821F40071C4
:100BB000C160416821F440414160416841F4004115
:100BC000416028480168284A1140016001680160BD
:100BD000016821F480710160001D016821F00201AB
:100BE0000160016821F460210160016841F4602125
:100BF0000160016841F480110160016821F4006125
:100C00000160184928310A6822F470020A600A68F3
:100C100000220A6013490C310A6822F470020A604B
:100C20000A6842F4E0420A60016841F00101016093
:100C3000016841F00801016001680907FCD40168FE
:100C400041F00401016001684907FCD4012002F071
:100C500051FABDE8104000F0D7BB00000010024080
:100C60000008014004240140FFFFF000FEE70000FF
:100C700038B5002000906B4601227521682003F0F2
:100C80005BF930A001F072FD9DF80000682809D0E2
:100C900035480168354A01F4E06111430160BFF352
:100CA000408FFEE703F052FB002849D1782004F082
:100CB0000BF810B923A001F059FD782003F078FA61
:100CC00010B92BA001F052FDC82003F0BDFF10B9F0
:100CD00031A001F04BFD02F07FFB10B938A001F00C
:100CE00045FD4448044603F089F90546E01C03F03D
:100CF00085F945EAC005A01D03F080F945EA80109A
:100D000080B202F01FFD10B93BA001F02FFD40F2B0
:100D1000731002F035FA10B941A001F027FDC82088
:100D200002F076FC10B948A001F020FD04F0B8F9FB
:100D3000012003F0AFFE002802D14CA001F016FD07
:100D400038BD00006D70755F7365745F73656E7399
:100D50006F7220636F6D706C657465202E2E2E2E61
:100D60002E2E0D0A000000000CED00E00400FA0534
:100D70006D70755F636F6E6669677572655F6669D2
:100D8000666F20636F6D706C657465202E2E2E2E3D
:100D90002E2E0D0A000000006D70755F7365745F84
:100DA00073616D706C655F7261746520636F6D70E7
:100DB0006C657465202E2E2E2E2E2E0D0A0000003E
:100DC000646D705F6C6F61645F6D6F74696F6E5F8F
:100DD0006472697665725F6669726D7761726520AB
:100DE000636F6D706C657465202E2E2E2E2E2E0D69
:100DF0000A00000098000020646D705F7365745FE6
:100E00006F7269656E746174696F6E20636F6D7067
:100E10006C657465202E2E2E2E2E2E0D0A000000DD
:100E2000646D705F656E61626C655F666561747547
:100E3000726520636F6D706C657465202E2E2E2E8A
:100E40002E2E0D0A00000000646D705F7365745FE4
:100E50006669666F5F7261746520636F6D706C6543
:100E60007465202E2E2E2E2E2E0D0A006D70755FAD
:100E70007365745F646D705F737461746520636F14
:100E80006D706C657465202E2E2E2E2E2E0D0A0090
:100E900070B52A4C6068401C6060012803D100F0E6
:100EA0006FFE00F083FE26480121006800F094F8F0
:100EB00024480068FFF71FFC022100F08DF822484B
:100EC0000068FFF718FC032100F086F81F4800684F
:100ED000FFF711FC042100F07FF80521002000F04D
:100EE0007BF80621002000F077F80721002000F0B1
:100EF00073F80821002000F06FF80921002000F0AD
:100F00006BF80A21002000F067F80A2000F024F8AE
:100F100000210F4A607021700E4B151D06E01688E7
:100F20007606FCD55E5C2E80491C2170C9B28142D8
:100F3000F5D3BDE87040322002F0DCB81401002087
:100F4000080000201C0000201800002028000020BD
:100F5000003801407C0500200A2839D890B31D498B
:100F600024220B280A7033D2DFE800F032060A0E82
:100F700012161A1E22272D000520487106207047E0
:100F8000092048720A2070470D2048730E207047D0
:100F9000112048741220704715204875162070479C
:100FA000192048761A2070471D2048771E20704768
:100FB000212081F8210022207047252081F825007A
:100FC0002620704704E0292081F829002A20F8E72C
:100FD0000020F6E77C05002003B50A2912D8002975
:100FE00010D00B290ED2DFE801F00D06080E10120A
:100FF0001416181A1C00012200E005220A4968464E
:1010000000F0DAF80CBD0922F8E70D22F6E711220C
:10101000F4E71522F2E71922F0E71D22EEE721227C
:10102000ECE72522EAE700007C050020704700007D
:10103000314810B5C16941F00401C161816941F0D5
:10104000080181612D48016821F07061016001682B
:1010500041F000610160016821F0704101600168A8
:1010600041F0804101602648018841F00101018082
:10107000018841F04001018001231E22032118460E
:1010800000F0D0FC1E4800231C3003801C494FF6A2
:10109000E750203108801A480C38018821F440714B
:1010A0000180018821F06001018015490C310A8816
:1010B00042F001020A800A8842F480720A80104AD3
:1010C0001432148824F002041480148824F02004BC
:1010D00014800A8842F030020A800949091F0A88F0
:1010E00042F003020A80064918310B80018841F062
:1010F0000101018010BD000000100240000C014001
:101100000C0800402A4810B5C16941F00101C161D5
:10111000816941F0040181612648016821F00F01D5
:101120000160016841F004010160016821F0F001F3
:101130000160016841F040010160C404A08940F0F1
:101140000100A081A08940F04000A08101231C2261
:101150000321184600F066FC002020854FF6E75179
:10116000A185218821F440712180218821F060012E
:101170002180218B41F001012183218B41F4807179
:101180002183218C21F002012184218C21F0200176
:101190002184218B41F030012183218941F0030119
:1011A0002181A084208840F00100208010BD000033
:1011B000001002400008014003788B54114443782A
:1011C0004B7082788A70C078C8707047F0B5CA7862
:1011D000002502F00F03D20601D58A7813430C785C
:1011E0004FF00F0E0122ECB1D0F800400F8802FA48
:1011F00005F63740B74211D14FEA850C0EFA0CF7CD
:1012000024EA070703FA0CF43C43CF78282F02D0D6
:10121000482F02D002E0466100E006616D1C082DF7
:10122000E4D304600C88FF2C1ED944685FF00006EC
:1012300006F1080702FA07F50F882F40AF420FD1D9
:101240004FEA860C0EFA0CF7BC4303FA0CF73C434A
:10125000CF78282F00D14561CF78482F00D1056184
:10126000761C082EE4D34460F0BD416170470161F3
:10127000704700000B490A6822F01F020A600A68E2
:1012800002430A6007482C38016841F4800101607C
:101290000448343801688907FCD5024818300068D2
:1012A00080B27047342401402DE9F04701287DD0F9
:1012B0004621D02000F0D3F804464521D02000F08C
:1012C000CEF804EB0020FFF71FFA05464821D02096
:1012D00000F0C5F804464721D02000F0C0F804EB28
:1012E0000020FFF711FA04463C21D02000F0B7F8A7
:1012F00006463B21D02000F0B2F806EB0020FFF7B5
:1013000003FA80464021D02000F0A9F806463F218C
:10131000D02000F0A4F806EB0020FFF7F5F94FF01D
:101320008E4706464FF08F49BD4204DD49462846A8
:10133000FEF7BAFF0546BC4204DD49462046FEF7EB
:10134000B3FF04464046B84503DD4946FEF7ACFF0F
:101350008046BE4204DD49463046FEF7A5FF0646FC
:10136000204985F0004008603046FFF73CFA074608
:101370000E464046FFF737FA3A46334601F0C8FDBD
:101380000022194BFFF7BFF8184A194BFFF72DF948
:10139000FFF73CFA06462846FFF725FA4FF066327B
:1013A000144BFFF722F9FFF731FA00E017E012497A
:1013B0000978022902D0032906D00AE080F0004112
:1013C000304600F029FA04E080F00041304601F098
:1013D00093F90A480A49006808600A480460BDE8B1
:1013E000F08700000C00002000806640F1D4C85354
:1013F000FB2109406666304000000020D800002034
:10140000080000201000002010B50420FFF732FF74
:10141000FFF790F94FF066320B4BFFF774F800229C
:101420000A4BFFF770F80022094BFFF76CF8002217
:10143000084BFFF7DAF86FF00B02FFF745F9FFF7FB
:10144000B3F90549086010BD66660A4000002740F0
:10145000000059400000F83F28000020FEE770B56A
:101460000D46044600F0CEF8204600F09BF800F050
:101470000DF9284600F096F800F008F900F0C2F8DF
:10148000641CE0B200F08EF800F000F9002000F0DB
:1014900053F8044600F0DEF8204670BD70B50B4CE2
:1014A0000025E5600A48016821F00F01016001682C
:1014B00041F0030101602560012001F02FFE0120B1
:1014C000E06001F02BFEE56070BD0000A00121424C
:1014D000040801400848816941F00401816107481E
:1014E00001684FF20F0291430160016843F2030269
:1014F00011430160704700000010024004080140E1
:1015000070B50B4C0025E5600A48016821F00F0119
:101510000160016841F00301016001262660304648
:1015200001F0FCFDE660012001F0F8FDE56070BD12
:10153000A0012142040801402DE9F04781461748E7
:101540000024016821F00F010160016841F00801E9
:101550000160134E254627464FF00108C6F8AC71CE
:10156000022001F0DBFDC6F8AC816006040ED6F85F
:10157000200108B1641CE4B2022001F0CFFD6D1C13
:10158000EDB2082DEAD3B9F1000F02D0FFF786FFC4
:1015900001E0FFF7B5FF2046BDE8F08704080140F1
:1015A000000021422DE9F04106461448016821F06F
:1015B0000F010160016841F003010160104C002738
:1015C000C4F8AC713D464FF00108F009C4F8A00121
:1015D0007006060E012001F0A1FDC4F8AC810120C7
:1015E00001F09CFDC4F8AC71012001F097FD6D1C69
:1015F000EDB2082DE9D3BDE8F081000004080140F8
:101600000000214270B51148016821F00F0101600E
:10161000016841F0030101600D4C0120C4F8A001F4
:10162000D4F8201149B1C4F8AC0101F077FD0025D0
:10163000C4F8A051D4F8200108B1002070BD0120E9
:1016400001F06CFDC4F8AC51012070BD04080140EC
:10165000000021420B4810B5016821F00F01016024
:10166000016841F003010160074C0020E060206048
:10167000012001F053FD0120E0602060BDE8104032
:1016800001F04CBD04080140A001214270B513488F
:101690000024016821F00F010160016841F0080198
:1016A00001600F4D0126C5F8A061304601F036FDFE
:1016B000C5F8AC6107E0641CE4B2322C03D9FFF733
:1016C000C9FF002070BD012001F028FDD5F82001E0
:1016D0000028F0D1C5F8AC01012070BD040801401C
:1016E0000000214210B51446FFF7B9FE207001201A
:1016F00010BDF8B515461C460E4607466A46FFF76C
:10170000F1FF01209DF80010A8400CB1084301E052
:1017100021EA0000C2B28DF800203146384600F0C0
:101720002BF8F8BD2DE9F84314461D460F468046B8
:101730006A46089EFFF7D6FF00281BD0611CFF20D9
:10174000C4F1080200FA01F12A44521ED0400143BC
:10175000C5F108008640F2B2C4F10700C2409DF80E
:101760000000084010438DF80000C2B239464046E0
:1017700000F002F8BDE8F88307B502AB012200F0E3
:1017800001F80EBD2DE9F0411E4615468846074674
:101790000024FFF737FF3846FFF704FFFFF776FF17
:1017A0004046FFF7FFFEFFF771FF06E0305DFFF7F1
:1017B000F9FEFFF76BFF641CE4B2AC42F6D3FFF70F
:1017C00049FF0120BDE8F08141060748826942F0E7
:1017D000010282610548426822F0E062426042688C
:1017E0000A434260704700000010024000000140C0
:1017F0000748816941F0080181610648016821F4C8
:1018000070010160016841F400010160704700004F
:1018100000100240000C01402DE9F34F554C87B0F9
:10182000216A04910898FEF73FFD61690091FEF777
:1018300041FDA169FEF7E6FC04F144050390D5F8EB
:1018400004A0A0685146FEF72FFDD5F80890494640
:10185000FEF72AFD48490860EA6882F000464E60BB
:101860008E60E768CF6090460099FEF723FD2968F7
:10187000FEF7C8FC834630460099FEF71BFD06467E
:101880005146FEF7BFFC029030464946FEF7BAFCCF
:10189000824638460099FEF70DFD4146FEF7B2FC40
:1018A000814603990798FEF7FFFC80466062207826
:1018B000FEF72AFF59460190FEF7FCFC0646A0629F
:1018C00051460198FEF7F6FCE0620590314601981A
:1018D000FEF7F0FC2169FEF795FC074620633946C8
:1018E0003046FEF71DFD6063009039460598FEF70F
:1018F00017FDC4E90E060746DDE90101FEF7DAFC33
:101900002064019031460098FEF7D4FC5946FEF75A
:10191000CEFC2860DDE90001FEF7CCFC0299FEF761
:10192000C6FC686031463846FEF7C4FC5146FEF7F7
:10193000BEFCA86038460199FEF7BCFC4946FEF79C
:10194000B6FCE86041460098FEF7B4FC0399FEF748
:1019500059FCA06141463846FEF7ACFC0499FEF7FD
:1019600051FC014620620898FEF79EFCE06109B038
:10197000BDE8F08FC00000206C05002006490A6811
:10198000521C0A60824205D104480268D2430260B8
:10199000002008607047000040000020A081214224
:1019A00010B5022000F011F8022000F020F800200D
:1019B00000F014F8002000F02FF8002000F026F8C6
:1019C000BDE81040002000F01BB808B503230090CC
:1019D00002226B21D020FFF7A5FE08BD08B5022327
:1019E000009004221C21D020FFF79CFE08BD08B502
:1019F0000223009004221B21D020FFF793FE08BD94
:101A0000034601223721D020FFF773BE034605228B
:101A10006A21D020FFF76DBE034606226B21D0203D
:101A2000FFF767BE10B51846144600F015F8012000
:101A30004FF0E021202C06D2D1F80021A040024333
:101A4000C1F8002110BDD1F80421203CA040024380
:101A5000C1F8042110BD0000072181430A02054995
:101A600008684FF6FF031840034B18431043086003
:101A7000704700000CED00E00000FA05FEE70000F2
:101A8000214A10B5D36943F00203D361936943F04F
:101A9000080393611D4A136823F0FF031360136862
:101AA00043F0BB031360121D13689BB213601368ED
:101AB000174C23431360174A1080101F01801548EC
:101AC0001038018841F4C0410180018841F0600173
:101AD0000180018841F400610180018841F0080122
:101AE0000180001D018841F480510180018841F48A
:101AF00080710180C11307482C380180018841F0B2
:101B00000101018010BD000000100240000C0140E6
:101B1000000022222C04004070470000F0B50F2185
:101B2000C478027801234FF0E026DCB1124C24681F
:101B3000457804F4E064C4F5E064240AC4F10407C1
:101B4000E1408478BD400C402C4321010B4C1155E1
:101B5000007800F01F018B40400906EB8000C0F8C0
:101B60000031F0BD02F01F008340500906EB8000F9
:101B7000C0F88031F0BD00000CED00E000E400E0B2
:101B800030B40021084B0A465FF0000003EBC004AC
:101B9000401CC0B262548028F8D3491CC9B208293D
:101BA000F2D330BC00F00AB96C01002010B500215E
:101BB0008D2000F0CDF90021102000F0C9F900219E
:101BC000BDE81040AE2000F0C3B910B500218D2053
:101BD00000F0BEF90021142000F0BAF90021BDE8A0
:101BE0001040AF2000F0B4B910B57F2816D83F29B7
:101BF00014D80723A3EBD10301F00701C1F10704B7
:101C00000121A140064CDBB204EBC000002AC25CFB
:101C1000C9B201D00A4300E08A43C25410BD00009B
:101C20006C0100202DE9F0471E4617468846054600
:101C3000DDF820900CE0444606E04A46214628465E
:101C4000FFF7D2FF641CE4B2B442F6D96D1CEDB2CA
:101C5000BD42F0D9BDE8F04700F0B0B8504810B52B
:101C6000816941F0080181614E490A6822F0F00261
:101C70000A600A6842F020020A60816941F010019E
:101C80008161816941F00101816147494A68C2F37C
:101C900013024A604A68454B1A434A6044490A683D
:101CA00042F480720A60026A22F001020262414834
:101CB000028822F001020280086820F48070086027
:101CC0003D4C00202060642001F014FA01202060C7
:101CD0000021AE2000F03CF90021D52000F038F9B9
:101CE0000021502000F034F90021A82000F030F944
:101CF00000213F2000F02CF90021D32000F028F92A
:101D00000021084600F024F90021402000F020F9CD
:101D100000218D2000F01CF90021142000F018F99A
:101D20000021202000F014F90021022000F010F919
:101D30000021A12000F00CF90021C02000F008F9DA
:101D40000021DA2000F004F90021122000F000F94F
:101D50000021812000F0FCF80021EF2000F0F8F8CD
:101D60000021D92000F0F4F80021F12000F0F0F873
:101D70000021DB2000F0ECF80021302000F0E8F832
:101D80000021A42000F0E4F80021A62000F0E0F8F3
:101D90000021AF2000F0DCF8BDE81040FFF7F0BEF6
:101DA00000100240040C01400010014000002022FD
:101DB00000700040306C0040B401224270B5114EFA
:101DC000002400BF04F1B000C0B2002100F0C0F850
:101DD0000021084600F0BCF80021102000F0B8F8FF
:101DE0005FF0000506EBC5000121005D00F0B0F8D2
:101DF0006D1CEDB2802DF5D3641CE4B2082CE1D348
:101E000070BD00006C0100202DE9FF4F203A1F46F5
:101E10000C46894602F0FF0A0025DDF834B032E0B6
:101E20000C2F09D01A4901EB0A104FF00008465D4B
:101E3000300607D55A4609E016490AEB4A0001EB7D
:101E40008000F2E7BBF1000F12D00022214600987B
:101E5000FFF7CAFE7006641C060EE4B2A4EB09008C
:101E6000B84207D100984C46401CC0B2009008E030
:101E70000122EBE708F1010000F0FF08B8F1080FBC
:101E8000D6D36D1CEDB2BD42CAD3BDE8FF8F0000B2
:101E90008C660008186200082DE9FF4F81B000260B
:101EA000DDF838A01D469346814634464FF00108C0
:101EB0004FEA5A0727E0281B401EC1B20A2002F051
:101EC0008DFFBBFBF0F00A21B0FBF1F201FB120029
:101ED00026B9691E8C4201DA48B101263030C2B2FF
:101EE00007FB0490C0B25346CDF8008006E007FB24
:101EF0000490C0B253462022CDF800800299FFF72B
:101F000083FF641CE4B2AC42D5D305B0BDE8F08FCA
:101F1000F8B516460D460446012714E07A2C02D97E
:101F200000241035EDB23A2D03D900242546FFF7E1
:101F300027FE009732780C2329462046FFF764FFDE
:101F40000834E4B2761C30780028E7D1F8BD0000F0
:101F50002DE9F041154F00250646012411B1C7F8BF
:101F6000A44101E0C7F8A451DFF844804021404675
:101F7000FFF77BF90F490020C1F8BC51320602D5AA
:101F8000C1F8B84101E0C1F8B851C1F8BC417206CE
:101F9000401C160EC0B20828EED340214046FFF781
:101FA00066F9C7F8A441BDE8F08100000080214235
:101FB000001401400000224270470000044A00293A
:101FC000916901D0014300E08143916170470000B5
:101FD0000010024030B520494A6812F00C031F4A35
:101FE00003D0042B01D0082B22D002604A680F23B3
:101FF0001B4C03EA1212A35C0268DA4042604B6891
:10200000072505EA1323E35C22FA03F383604B6898
:1020100005EAD323E35C22FA03F2C2604968032392
:1020200003EA9131231F595CB2FBF1F1016130BD2C
:102030004A684B6802F470124FF0020413F4803FB8
:1020400004EB924202D04B689B0301D5054B00E0A4
:10205000024B5A43C9E700000010024000127A0008
:102060003000002000093D002DE9F04188B0294CE6
:1020700007A8CDE9004004F11E0106AB02AA881FA3
:1020800001F0B4F92088C00540D50298FEF733FB73
:102090006FF01D063146FEF783F9804660600398B5
:1020A000FEF729FB3146FEF77BF90746A06004984E
:1020B000FEF721FB3146FEF773F90546E06005980F
:1020C000FEF719FB3146FEF76BF906462061012148
:1020D0004046FEF765F92946FEF7ECF805464FF055
:1020E00040413846FEF7E6F83146FEF7E3F8294668
:1020F000FEF788F8FEF777FB00F0BAFC4FF0663287
:10210000054BFEF700FAFEF781FB606108B0BDE801
:10211000F08100007400002066A64C4010B54221FA
:10212000D020FFF79CF904464121D020FFF797F912
:1021300004EB0020FEF7E8FAB0F18E4F03DD4FF01C
:102140008F41FEF7B1F80949FEF7EAF8FEF74BFBBD
:10215000074A084BFEF730F90022074BFEF7D3F988
:10216000FEF754FBBDE81040FEF7F1BA0000AA43A9
:10217000A4703D0AD743424000002440704700004D
:102180000CB50021264801910091026842F480328A
:1021900002604FF4A063026802F400320092019AD8
:1021A000521C0192009A12B9019A9A42F3D1026824
:1021B000920333D5012100911A490A6842F01002B6
:1021C0000A600A6822F003020A600A6842F002020A
:1021D0000A604168416041684160416841F4806142
:1021E0004160416821F47C114160416841F4E8118B
:1021F0004160016841F08071016001688901FCD58E
:10220000416821F003014160416841F002014160F1
:102210004168C1F381010229FAD10CBD00910CBDC6
:1022200000100240002002402DE9F0410025012667
:10223000114C0F46002804DAC4F8BC61C4F8B85148
:1022400003E0C4F8BC51C4F8B86102F0C3FD0B4907
:102250000880002F04DAC4F8B451C4F8B06103E078
:10226000C4F8B461C4F8B051384602F0B3FD034974
:10227000091F0880BDE8F081008021424004004031
:10228000704700000F4810B5016841F0010101607E
:1022900041680D4A1140416001680C4A11400160DB
:1022A000016821F480210160416821F4FE01416050
:1022B0004FF41F018160FFF763FF05494FF0006095
:1022C000086010BD001002400000FFF8FFFFF6FE9E
:1022D00008ED00E02DE9F04123480188C90740D00E
:1022E000018821F00101018002F0BCFE4FF4C870AA
:1022F000FFF744FBFFF788F8642001F0A3FE1B48BA
:102300000078FEF7D1FF1A481A4D0168286800F0DE
:10231000BFFE194C194E1A4FE0623168386803F05D
:10232000B7F82063174831680268386802F05EFF2A
:102330006063D4E90B121144134C0A1A134E08447B
:102340002260306000F0BEF911480168286800F092
:1023500057F8002805D131682068BDE8F041FFF743
:1023600063BFBDE8F0810000102C01400000002098
:102370000C000020080000201C0100201C00002090
:102380001800002010000020200000202400002061
:10239000280000204FF08040018A018A21F00101CD
:1023A0000182704703480188018821F00101018002
:1023B00070470000100800400F4A936943F400631F
:1023C00093610E4A1080101F01800C48203801884C
:1023D00041F001010180018841F04001018007487E
:1023E0002C38018841F001010180012319220321C9
:1023F0001846FFF717BB0000001002402C2C0140CC
:102400000C4988420CD80C49884209DC0B480078FA
:10241000012805D00A4840F256410068884207DA90
:10242000084A012000219160D1605160116070471D
:1024300000207047000020C2000020420100002060
:1024400028000020B081214210B540F225510948F2
:1024500000F0A5F800280BD003F00EF8A52807D14E
:1024600003F00AF85A2803D1BDE8104003F004B87D
:1024700010BD000000380140F0B53B4800888006E0
:102480006DD53948001D028838480A2A00F10C0130
:10249000826000DA0A70354B0F781B1D03F10806C5
:1024A00093F800C07578B4780020F67867450AD1B3
:1024B00093F801C0654506D193F802C0644502D186
:1024C000DB789E420DD0294B93F800C0674511D1AF
:1024D0005F78BD420ED19D78AC420BD1DB789E4235
:1024E00008D1234B1C78E4B100241C70087048709C
:1024F0008870C8701F4B204C204D214E9AB1012787
:10250000012A12D0052A15D0022A16D0032A14D087
:10251000042A12D0062A23D0072A21D0082A1FD045
:102520000FE00124E1E7187000E01F7020702870B0
:10253000307006E018702770F9E718702070287066
:1025400037708879C8714879887108794871C87876
:1025500008718878C8704878887008784870F0BD2D
:10256000187020702F70E3E700480040A40000209E
:10257000010000201400002015000020160000209B
:1025800017000020C943018070470029818902D0CB
:1025900041F4005101E021F400518181704730B5D0
:1025A00001F01F0201240025C1F3421304FA02F2D4
:1025B000012B0FD0022B0FD0838A4FEA1121008804
:1025C000134204FA01F400EA040001D000B101252D
:1025D000284630BD8389F0E7038AEEE710B5C1F3E2
:1025E000421301F01F040121A140012B07D0022B4F
:1025F00007D01430002A026805D00A4304E00C30EA
:10260000F8E71030F6E78A43026010BD30B50446A3
:10261000008A85B00D464CF6FF710840E9880143F9
:102620002182A1894EF6F3100140A8882A8910431F
:102630006A890A431043A081A08A4FF6FF410840EF
:10264000A9890143A1826846FFF7C4FC1B48844264
:1026500001D1039800E00298A1890904002900EB48
:10266000C00101EB0010296802DA4FEA410101E0E4
:102670004FEA8101B0FBF1F06422B0FBF2F14FEAC6
:1026800001114FEA11136FF018056B4300EB830043
:10269000A3891D044FF0320306D503EBC000B0FB45
:1026A000F2F000F0070005E003EB0010B0FBF2F0E1
:1026B00000F00F000843208105B030BD0038014014
:1026C000FEE700000A4940F6AC5042420B689342D4
:1026D00001DA0A6002E0834200DD086005490B6808
:1026E000934201DA0A6070478342FCDD086070475C
:1026F00020000020240000202DE9F04180460846FB
:10270000FEF771F8164A174BFDF7FDFE164D06460B
:102710000C46A869FEF767F832462346FDF74CFEE3
:102720000C46696807460E464FF07E50FDF7BCFD2B
:10273000FEF759F83A462346FDF7E5FE07460C46F4
:1027400031464046FDF7B6FDFEF74DF83A462346C2
:10275000FDF732FEFEF75AF8A861BDE8F0810000EF
:102760007B14AE47E17A743FC00000200FB4054BE4
:1027700010B503A9044A029800F090F810BC5DF867
:1027800014FB00008D3A000854010020490050EA73
:10279000C12018BF04204A0D18BF40F0010040F2CC
:1027A000FF72B2EB515F08BF40F00200012808BF82
:1027B000052070472DE9F0414F1E00EBC70104468C
:1027C000D1E9000115461E4637F006020DD02A4613
:1027D0003346FDF798FE7F1E04EBC703D3E90023C1
:1027E000FDF7EAFD37F00602F1D1022F25D0042FC4
:1027F00013D0062F18BFBDE8F0812A463346FDF7F7
:1028000082FED4E90A23FDF7D7FD2A463346FDF7B9
:102810007AFED4E90823FDF7CFFD2A463346FDF7BB
:1028200072FED4E90623FDF7C7FD2A463346FDF7BD
:102830006AFED4E90423FDF7BFFD2A463346FDF7BF
:1028400062FED4E90223FDF7B7FD2A463346FDF7C1
:102850005AFED4E90023BDE8F041FDF7ADBD00000C
:10286000024A00201107FDF72FBF000001FDFFFF06
:1028700002E008C8121F08C1002AFAD17047704749
:10288000002001E001C1121F002AFBD170470000A7
:102890000149086070470000580100202DE9FF4FF2
:1028A00089B09B460446002597E0252833D10027B0
:1028B000641C4E49B84601222378203B02FA03F0FB
:1028C000084202D00743641CF6E720782E2819D16D
:1028D00014F8010F47F004072A280ED06FF02F02DA
:1028E0002078A0F1300109290CD808EB880102EB0F
:1028F000410100EB0108641CF2E70A98641C50F8DF
:10290000048B0A90207800286BD0642808D06928AE
:1029100006D0752820D05A460B9990476D1C5BE075
:102920000A994FF00A0901C90A91002804DAC0F196
:1029300000004FF02D0102E0390504D52B218DF860
:102940002010012103E0F90704D02021F7E78A468F
:1029500008AE0EE00021FAE70A994FF00A0901C912
:102960000A91F7E74946FDF76DFF01F1300106F8DE
:10297000011D0028F6D1ADEB060000F12009780713
:1029800001D44FF00108C84502DDA8EB090000E0C2
:1029900000208046002706E008A85A46C05D0B9933
:1029A00090476D1C7F1C5745F6DB04E030205A46EB
:1029B0000B9990476D1CB8F10001A8F10108F5DCF6
:1029C00005E016F8010B5A460B9990476D1CB9F1BA
:1029D0000001A9F10109F4DC641C207800287FF4CF
:1029E00064AF0DB02846BDE8F08F00000928010053
:1029F0002DE9FE4F07460E460025684601F050F8C7
:102A000000246FF00F0AE8464FF0010957F8240040
:102A100056F82410401A00D54042FDF76CFE51468E
:102A2000FDF7BEFC58F8241011F0FF4F0BD0FDF756
:102A300077FC4FF07E51FDF737FC0A4920F000404B
:102A4000884205DC07E0084908440849884202D367
:102A500009FA04F00543641C032CD7DB2846BDE8C3
:102A6000FE8F0000295C0F3E666666C19A99D90008
:102A70002DE9F04D904F21F0004A86B005460C46F6
:102A8000BA4530DBAAEB070028430CD08B488245BF
:102A900001DC1CD1DDB106B02846BDE8F04D4FF099
:102AA0000102FDF711BE864A864B2846FDF72BFD35
:102AB00007460E46844A854B28462146FDF723FDEE
:102AC00006B03A463346BDE8F04DFDF775BC01202F
:102AD000FFF7DEFE06B00022BDE8F04D13461046BB
:102AE0001146FDF782BD7A48824542DABAF1795F34
:102AF0000BDA2846FFF74AFE042808BFFFF7B0FEAE
:102B0000284606B02146BDE8F08D2A460B46104601
:102B1000FDF7F9FC834602466E480E460B46062139
:102B20007844FFF747FE5A463346FDF7ECFC8046F3
:102B300069488A465A46334604217844FFF73AFEEC
:102B40005A463346FDF7DFFC00223B46FDF734FCD6
:102B500002460B4640465146FDF747FD2A462346AE
:102B6000FDF7D1FC06B02A462346BDE8F04DFDF73F
:102B700023BC284624F0004100223D463B46FDF799
:102B8000BFFC4FF0FF32FDF79FFD0646024653485B
:102B90000F460B4606217844FFF70CFE32463B46B3
:102BA000FDF7B1FCCDE900014D4832463B4604211A
:102BB0007844FFF7FFFD32463B46FDF7A4FC0022B8
:102BC0002B46FDF7F9FB834602913046394602F069
:102BD000E5FA804643480D46504517DCDDE9000123
:102BE0005A46029BFDF701FD42462B46FDF78BFC42
:102BF00042462B46FDF7E0FB0122FDF765FD304A1A
:102C0000304BFDF77AFC304A304B4CE04FF0000A75
:102C100052460B464046FDF7CFFBCDE90310524626
:102C20002B4610461946FDF76EFC32463B46FDF733
:102C300067FCDDE90332FDF7D8FC06460F46DDE907
:102C400000015A46029BFDF7D0FC83460091012209
:102C500030463946FDF738FD194A1A4BFDF750FC4E
:102C600006460F46012240462946FDF72DFD5A46ED
:102C7000009BFDF748FC32463B46FDF73EFC07460D
:102C80000E46012250462946FDF71EFD0E4DDFF887
:102C900058802A464346FDF733FC3A463346FDF753
:102CA0002FFC2A464346FDF72BFC002CD8BF81F0B1
:102CB000004106B0BDE8F08D0000F03F0000F07F5D
:102CC000075C143326A6913C182D4454FB21F93F90
:102CD0000000E03F5C41000072410000E64000005F
:102CE000FC4000003333EF3FFB21E93F2DE9F84F73
:102CF00004460D4621F0004000917449884213DBE0
:102D00007349884201DC08D13CB120462946BDE820
:102D1000F84F4FF00102FDF7D7BC6E48002DCCBF35
:102D20006D496E49BDE8F88F6D49884211DA6D49E9
:102D30008842A8BF4FF0FF366DDA20462946FFF7DC
:102D400025FD042808BFFFF78BFD20462946BDE876
:102D5000F88F6549654F25F00045884233DA6449AC
:102D6000884219DA002632464FF080432046294631
:102D7000FDF722FB80468A46012220462946FDF7C0
:102D8000A3FC00223B46FDF7B8FB42465346FDF745
:102D90002CFC04460D463EE001260022BA463B4686
:102DA00020462946FDF708FB80460F460022534681
:102DB00020462946FDF7A1FB42463B46FDF715FCA0
:102DC00004460D4627E04B4988421BDADFF828818C
:102DD00002260022434620462946FDF794FB0022A6
:102DE0003B46FDF7E9FA07468A460022434620465D
:102DF0002946FDF782FB3A465346FDF7F6FB0446AB
:102E00000D4608E0032622462B4600203B49FDF7ED
:102E1000ECFB04460D4622462B4610461946FDF7AC
:102E200072FB8B46824602460B46FDF76CFB07465B
:102E30000246334888460B4606217844FFF7BAFC21
:102E400052465B46FDF75FFB82462E488B463A466C
:102E5000434605217844FFF7ADFC3A464346FDF76B
:102E600052FB02460B46002E504659460CDAFDF73F
:102E7000A3FA22462B46FDF746FB01B022462B461D
:102E8000BDE8F04FFDF73CBBFDF796FA22462B4616
:102E9000FDF739FB1C4A7A4402EBC603D3E9002351
:102EA000FDF72BFB22462B46FDF727FB174A7A44FA
:102EB00002EBC603D3E90023FDF722FB009A002AA8
:102EC000B8BF81F00041BDE8F88F00000000104459
:102ED0000000F07F182D4454FB21F93FFB21F9BF7E
:102EE0000000DC3F0000203E0000F33F0000F03F08
:102EF0000000E63F008003400000F83F0000F0BF04
:102F0000FA3E0000B83E0000563E00001E3E0000A3
:102F10002DE9F04D9446CCF1000423F000464CEA34
:102F20000404524F46EAD4749A46884621F000427F
:102F3000BC4206D8454240EA050442EAD474BC4289
:102F400004D9BDE8F04D6246FDF736BAAAF1405506
:102F5000A5F17F6555EA0C040BD0022404EAAA749B
:102F6000434DDFF810E144EAD87452EA000B04D074
:102F70000CE0BDE8F04DFFF7B9BE002C14BF012CEA
:102F8000BDE8F08D022C30D0032C32D056EA0C0B69
:102F90000AD0BE4220D1BA4209D126F0804622F0A2
:102FA00080423346114617E000291ADB25E0DFF89E
:102FB000C8B0FB44002C04BFDBE90001BDE8F08D84
:102FC000012C02BFDBE9000181F00041BDE8F08D7A
:102FD000022C0AD0032C0CD0BA4212D1B8F1000F47
:102FE0000BDA23482549BDE8F08D28462449BDE881
:102FF000F08D28467146BDE8F08D1D482149BDE899
:10300000F08D921B12153C2AC4BF19481D490EDCD5
:10301000BAF1000FBEBF12F13C0F0020014606DBE3
:103020006246FDF7E2FA21F00041FFF75FFE002C57
:1030300008BFBDE8F08D012C04BF81F00041BDE860
:10304000F08D114A114B022C07D0FDF756FA2A4693
:10305000BDE8F04D0A4BFDF750BAFDF74EFA2A468F
:10306000BDE8F04D064BFDF74BBA00000000F07FC5
:10307000182D4454FB2109C0B23D0000FB21F9BFCB
:10308000FB210940FB21F93F075C143326A6A13C34
:1030900070B504460846FDF7A6FB6FF00202FDF787
:1030A00013FB06460D4607492046FDF703F9FDF7D9
:1030B0009AFB32462B46FDF77FF9BDE87040FDF7DD
:1030C00073BB000000000C424FF0E0210A6922F0BF
:1030D00004020A610649C00800EB40020870C2EB16
:1030E000C0104FF6FF7202EAC0004880704700002F
:1030F000440000200849498848434FF0E0214861D6
:103100000020886101220A610A69D30701D0D20335
:10311000FAD50861886170474400002008490978A1
:1031200048434FF0E02148610020886101220A6194
:103130000A69D30701D0D203FAD5086188617047C4
:103140004400002008B560B120208DF80000282040
:103150008DF8010030208DF8020038208DF8030032
:1031600004E0A32204216846FDF72DF86A460421F5
:1031700040F69E2001F004FE01F0CAFA08BD0000EE
:103180003EB5044602208DF80000CA208DF80100EB
:10319000E3208DF8020009208DF803006A4604211F
:1031A000682001F0EDFDA3208DF80000610609D52F
:1031B000C0218DF80110C8218DF80210C2218DF8B0
:1031C000031005E08DF801008DF802008DF8030072
:1031D00014F4C07F09D0C4218DF80410CC218DF8DF
:1031E0000510C6218DF8061005E08DF804008DF855
:1031F00005008DF806008DF808008DF807008DF8A1
:1032000009006A460A2140F6A72001F0B9FDA0078F
:103210004FF0D80503D020208DF8000001E08DF894
:1032200000506A46012140F6B62001F0A9FDA00633
:1032300001D5012000E0002000F08EF814F4C07FDA
:103240001ED0E0050AD5B2208DF800008B208DF845
:103250000100B6208DF802009B2009E0B0208DF817
:10326000000080208DF80100B4208DF8020090202D
:103270008DF803006A46042140F6A22001F080FD8B
:10328000E1074FF40B6022D0F8218DF800106A4658
:10329000012101F075FDFA21072000F043FB072012
:1032A00000F00EFB012000F02BFB642000F0CEFBB1
:1032B0004FF4FA7000F0DAFBC821254800F0C8FA94
:1032C000282000F0DDFA0A2000F0EAFA05E08DF887
:1032D00000506A46012101F053FDA00703D5D92013
:1032E0008DF8000001E08DF800506A46012140F29F
:1032F0003D7001F045FD600701D5012000E0002090
:1033000000F04CF8E00601D5012000E00020FFF7B6
:1033100019FF104D44F00800688101F0F9F9002010
:10332000A873600601D50620A87314F4C07F02D0EC
:10333000A87B801DA87314F0140F02D0A87B103056
:10334000A873A00702D0A87B001DA87300203EBD73
:1033500009E3CA025C0100200EB54FF4976320B167
:1033600008A207CA8DE8070006E009A2D2E900100A
:1033700092680091CDE901026A460921184601F0E0
:10338000FFFC0EBDB8AAB38DB4980D355D000000EA
:10339000B8AAAAAAB088C3C5C700000008B560B122
:1033A000C0208DF80000C2208DF80100C4208DF8E7
:1033B0000200C6208DF8030004E08B220421684639
:1033C000FCF701FF6A46042140F6982001F0D8FC82
:1033D00001F09EF908BD0000C8234FF48062024945
:1033E00040F6F63001F076B8225600082DE9FF4F7E
:1033F00089B01746DDE9165200244C4E88468146B6
:103400002C80A246B07B694601F010F94FF0FF3BDB
:1034100018B158460DB0BDE8F08F708910F0140F48
:103420003CD0009909BA21F0FF039DF803100B432B
:103430003B6001991B1409BA21F0FF029DF80710A7
:103440005B430A437A6002999DF80B4009BA21F068
:10345000FF012143B960039C091424BA24F0FF0C36
:103460009DF80F4012144CEA040CC7F80CC04FEA48
:103470002C47494302FB023207FB07111144102479
:10348000A1F17061B1F1007F04D901F041F9A5F813
:1034900000A0BEE7298841F4807129804206694670
:1034A00011D50A19A41D13885BBAA8F800305388F7
:1034B0005BBAA8F80230928852BAA8F804202A8889
:1034C00042F008022A8010F4C07F11D00A19A41D0E
:1034D00013885BBAA9F8003053885BBAA9F80230A8
:1034E000928852BAA9F804202A8842F070022A80F1
:1034F000800716D00C44E07800F0C00500F03F01D2
:103500006078C00706D0C80801F007013268491C7E
:1035100002B190476078000703D5716809B1A80926
:1035200088470C9800F012FB002073E75C01002034
:103530002DE9FF41044603A800F082FEBDF80C000F
:103540004FEA50414FEAC0333048028902F003008D
:10355000550754F8200001D5C0F10000C2F3C105A1
:10356000960654F8255001D5C5F10005C2F3811621
:10357000D20554F8264000D56442A0FB0367C21769
:1035800002FB037200FB0120820042EA9670A5FB59
:103590000367EA1702FB037205FB0122950045EA67
:1035A0009672A4FB0367E51705FB037304FB013167
:1035B0008B0043EA9671030E8DF80030030C8DF8F2
:1035C0000130030A8DF802308DF80300100E8DF8DB
:1035D0000400100C8DF80500100A8DF80600080E86
:1035E0008DF80800080C8DF80900080A8DF80A000B
:1035F0008DF807208DF80B106A460C214FF42570CA
:1036000001F0BEFB04B0BDE8F08100005C010020C9
:1036100030B5044613A285B007CA8DE807004FF005
:10362000FF35C82C16D8C820B0FBF4F1491E080A93
:103630008DF80C008DF80D1003AA022140F216201F
:1036400001F09EFB30B96A460C2140F6C12001F022
:1036500097FB10B1284605B030BD05488481002095
:10366000F9E70000FEF2ABC4AAF1DFDFBBAFDFDF9A
:103670005C010020F8B53149098901F0030250F8D6
:1036800022404A0701D5C4F10004C1F3C1028B06F0
:1036900050F8222001D5C2F10002C1F3811350F885
:1036A0002330C80500D55B42254984FB01408500D5
:1036B00045EA947082FB0142A40F44EA820483FB32
:1036C0000121950F45EA8105010E8DF80010010CCE
:1036D0008DF80110010A8DF802108DF803006A467A
:1036E00004214FF4747001F04BFB4FF0FF3688B9A2
:1036F000200E8DF80000200C8DF80100200A8DF8B6
:1037000002008DF803406A4604214FF4757001F001
:1037100037FB08B13046F8BD280E8DF80000280CA4
:103720008DF80100280A8DF802008DF803506A46D2
:1037300004214FF4767001F023FBF8BD5C010020FA
:1037400009E3CA022DE9FF4104463CA004F003034B
:10375000006802903AA0006803903AA006683AA078
:10376000056802A8C15C8DF80010C4F3C101425C79
:103770008DF80120C4F38112805C8DF8020003A84B
:10378000C35C8DF80430415C8DF80510805C8DF8C9
:1037900006006A46032140F2264001F0F1FA4FF09C
:1037A000FF37E0BB01AA032140F22A4001F0E8FA0A
:1037B000A8BBCDE9006560070BD59DF8000040F07F
:1037C00001008DF800009DF8040040F001008DF824
:1037D0000400A0060BD59DF8010040F001008DF813
:1037E00001009DF8050040F001008DF80500E0059E
:1037F0000BD59DF8020040F001008DF802009DF805
:10380000060040F001008DF806006A4603214FF4DF
:10381000886001F0B5FA10B901AA032100E004E0C4
:1038200040F2314001F0ACFA18B1384604B0BDE8BE
:10383000F081064804810020F8E700004CCD6C00C0
:103840000CC92C0036567600264666005C01002026
:103850004FF47A7290FBF2F008B54843010E8DF8F0
:103860000010010C8DF80110010A8DF802108DF87E
:1038700003006A4604214FF4AE7001F081FA08BDDE
:103880000521B0FBF1F008B5010A8DF800108DF8A4
:1038900001006A4602214FF4AD7001F071FA08BDD3
:1038A0000521B0FBF1F008B5010A8DF800108DF884
:1038B00001006A4602214FF4AC7001F061FA08BDC4
:1038C00008B500218DF80010C10702D030218DF815
:1038D0000010810705D59DF8001041F00C018DF80E
:1038E0000010400705D59DF8000040F003008DF85A
:1038F00000006A4601214FF4A47001F041FA08BDAE
:1039000008B560B1042800D90420401E8DF80000DD
:103910006A46012140F24F1001F032FA08BD012041
:10392000F3E700002DE9FC41054640074FF0FF3664
:103930007CD0B1F5C86F79D80846FCF7E5FE3E4962
:10394000FCF7EEFC074601A800F05CFC9DF80400C3
:10395000022806D004280DD008282ED0102865D1C2
:1039600034E00E213846FCF71BFDFCF709FF84B25A
:10397000324907E00D213846FCF712FDFCF700FF45
:103980002F4984B23846FCF795FCFCF7F9FE210A72
:103990008DF8001080B28DF80140010A8DF80210F8
:1039A0008DF80300E8076C4620D0224602214FF430
:1039B000EA7001F0E5F9C8BB11E00C213846FCF7CC
:1039C000EFFCFCF7DDFE84B21E49DBE70B21384635
:1039D000FCF7E6FCFCF7D4FE84B21B49D2E7A21C3C
:1039E00002214FF4927001F0CBF9F8B9A8070DD578
:1039F0006A4602214FF4EC7001F0C2F9B0B9A21C82
:103A000002214FF4947001F0BBF978B9680710D522
:103A10006A4602214FF4EE7001F0B2F930B9A21CEF
:103A200002214FF4967001F0ABF910B13046BDE8B9
:103A3000FC810020FBE700000000484300004046F6
:103A40000000C045000040450000C0440521B0FB17
:103A5000F1F008B5010A8DF800108DF801006A46F2
:103A600002214FF4EF7001F08BF908BD0521B0FB86
:103A7000F1F008B5010A8DF800108DF801006A46D2
:103A800002214FF4ED7001F07BF908BD034AC1B289
:103A90001180111F0A885206FCD570470438014076
:103AA0002DE9FE430646264801AB042240680D215D
:103AB000007800F041FA10B10720BDE8FE839DF8C0
:103AC00004101C2000EAD1029DF80710DFF8749062
:103AD000C1F301131A438DF800209DF80520C1F3AE
:103AE000810300EAD2021A438DF801209DF80620D6
:103AF00001F0030100EAD20008430024124F8DF8C0
:103B00000200A0466D46285D10B146F824900AE0F8
:103B100046F824800DE000BF56F824003946FCF733
:103B2000C9FB46F82400285D401E10F0FF00285510
:103B3000F2D1641CE4B2032CE5D30020BDE7000001
:103B4000480000207B14AE3E1D5A843F70470000A1
:103B50002DE9FE4F05460120C14E8DF800004FF0C3
:103B600000088DF8018030680C461746817C70682B
:103B70006B460222007800F017FA4FF0FF3A002857
:103B80007AD1C820FFF7B6FA8DF8008030686B460E
:103B90000122C17B7068007800F006FA0028EFD19E
:103BA00030686B46012241797068007800F0FCF9BA
:103BB0000028E5D130686B460122817C706800786E
:103BC00000F0F2F90028DBD130686B460122C17D9C
:103BD0007068007800F0E8F90028D1D130686B46B1
:103BE000012201797068007800F0DEF90028C7D161
:103BF0004FF00C098DF8009030686B460122017976
:103C00007068007800F0D0F9002835D10F20FFF758
:103C100071FAB06A6B460122407A8DF80000306874
:103C200081787068007800F0BFF9002824D1B06A6C
:103C30006B460122007A8DF8000030684178706888
:103C4000007800F0B1F9002873D1B06A807A0FB122
:103C500040F0E0008DF8000030686B460122817969
:103C60007068007800F0A0F9002862D12FB1B06A26
:103C7000C07A40F0E00001E04AE018208DF8000032
:103C800030686B460122C1797068007800F08CF9C9
:103C9000F0BB17B1C820FFF72DFA40208DF80000C7
:103CA00030686B46012201797068007800F07CF979
:103CB00070BB78208DF8000030686B460122417996
:103CC0007068007800F070F910BB3220FFF712FA2C
:103CD0008DF80080306847466B4641797068012254
:103CE000007800F061F998B931687068B046897A57
:103CF00000786B46022200F01FF948B9BDF80000B9
:103D0000AF6040BAB0FBF9F06F60C6B22F6000E060
:103D10000FE0A76067602760002739E0D8F800103F
:103D2000D8F804006B46C97A00780C2200F004F938
:103D300010B15046BDE8FE8FBDF80000236840BAC0
:103D400002B2BDF80200BDF804101A44226040BA65
:103D5000626800B21044606049BAA06809B20844C1
:103D6000A060BDF806002B6840BA02B2BDF808009A
:103D70001A4440BA01B2BDF80A002A606A6840BA23
:103D800011446960A96800B208447F1CFFB2A860B2
:103D9000B742C3D328688322C117090441EA1041FE
:103DA00000040023FCF7E2F932460023FCF7DEF9B9
:103DB000286068688322C117090441EA10410004A1
:103DC0000023FCF7D3F932460023FCF7CFF96860F3
:103DD000A8688322C117090441EA104100040023A6
:103DE000FCF7C4F932460023FCF7C0F9A86020684C
:103DF0004FF40065C117090441EA104100042A4646
:103E00000023FCF7B3F932460023FCF7AFF920603A
:103E100060682A46C117090441EA104100040023E2
:103E2000FCF7A4F932460023FCF7A0F96060A06813
:103E30002A46C117090441EA104100040023FCF797
:103E400095F932460023FCF791F9A060002802DDC5
:103E5000A0F5803001E000F58030A060002069E727
:103E6000480000202DE9F84F81462E48884600255D
:103E700040686B46032200780D2100F05DF810B118
:103E80000720BDE8F88F9DF80000002400F01F0017
:103E90008DF800009DF801006FF00F0B00F01F007F
:103EA0008DF801009DF802006E4600F01F008DF8AD
:103EB00002004FF0010A00BF59F8241058F82400FE
:103EC000081A00D54042FCF716FC5946FCF768FA80
:103ED0000746305DC0B1144802E01449FCF7EAF926
:103EE000315D491E11F0FF013155F6D101463846CA
:103EF000FCF716FA4FF07E51FCF7D6F90C4920F08A
:103F00000040884205DC07E00A483844B0F1D97F18
:103F100002D90AFA04F00543641C032CCCDB2846C2
:103F2000AFE70000480000200000C84154E3853F8F
:103F3000295C0F3E0000E0BE2DE9F0411D4614460D
:103F40000F460646FDF75EFBB0B17006000EFDF7AA
:103F500029FBFDF79BFB90B13846FDF723FBFDF7EE
:103F600095FBFDF74FFB012000EB4600C0B2FDF7CB
:103F700019FBFDF78BFB0FE00120BDE8F081FDF799
:103F800069FBF9E7012C0DD05FF00100FDF7D4FAD1
:103F9000641E05F8010BE4B2002CF3D1FDF75AFBC7
:103FA0000020EAE70020F1E72DE9F0411E46154622
:103FB0000F460446FDF726FB68B16006000EFDF7CC
:103FC000F1FAFDF763FB48B13846FDF7EBFAFDF770
:103FD0005DFB00240CE00120BDE8F081FDF73AFB19
:103FE000F9E7305DFDF7DEFAFDF750FB10B1641C18
:103FF000AC42F6DBFDF72EFB0020EDE790F9001058
:10400000002902DD4FF00000704702DA4FF0040093
:10401000704790F90110002902DD4FF00100704750
:1040200002DA4FF00500704790F90200002802DD27
:104030004FF00200704702DA4FF0060070474FF071
:104040000700704730B51D4BD3F814211C490C787C
:1040500022434FF0010400D10C704D78002285B945
:104060000D78012D03D18D786D1C8D704C708C787E
:10407000022C06D1134C257845B1002525708A7095
:104080008A80D3F81431012B02D003E00125F5E733
:104090000A704A708B78012B0CD18B885B1C9BB209
:1040A0008B80834206D90848037823B1002303702C
:1040B0008A708A8030BD0123F9E700000080214228
:1040C000B80000200200002001000020074881699C
:1040D00041F0080181610648016821F00F0101608B
:1040E000016841F0030101607047000000100240C8
:1040F000040C0140FEF7C6F84820FEF7E5FF01F08A
:1041000065F94FF41651482001F0FEF80220FDF742
:104110005BFB0120FDF758FBFFF7D8FFFDF768FBBD
:10412000FCF730FD002140F60F60FDF7A9FCFDF71C
:1041300095FDFCF77DFFFCF7E5FFC820FEF7DAFFF1
:10414000FDF7C8F9FDF72CFCFCF792FD41F61F4185
:104150003120FEF731F9134E134D144C207801280D
:104160000DD1FDF781FF3068A060B5F90200FCF7C2
:10417000C2FAE060B5F90400FCF7BDFA206160788E
:10418000012802D020780128E8D9FDF7C7FF606038
:10419000A078012802D0FCF77BFEDFE700F028FEC4
:1041A000DCE70000880000208C00002000000020D8
:1041B0002DE9F041124C20F00101002594F8240073
:1041C00010B10020BDE8F081A07A4FF0FF3668B151
:1041D0000840277C2074884200D0354641B1012038
:1041E00000F0B0FF00F094FA38B127743046E9E7E8
:1041F000207D00B1012000F0A5FF2846E2E7000085
:10420000480000200D494A7A42B1012A08D0022A0A
:104210000FD0032A0FD04FF0FF307047022200E08A
:1042200004220270C97C11B11106C90D0170002071
:1042300070470822F5E71022F3E70000480000204D
:104240000F494A7A42B1012A09D0022A11D0032A21
:1042500012D04FF0FF3070474FF4804201E041F63A
:104260009C720280C97C11B1C2F34E010180002012
:1042700070474FF48052F4E74FF40062F1E700001A
:10428000480000200B49097A39B1012907D00229D9
:104290000AD003290BD0002103E0FA2101E04FF4FA
:1042A000FA710180002070474FF47A71F9E74FF4FA
:1042B000FA61F6E7480000200A49097A41B101296C
:1042C00008D002290AD003290AD04FF0FF307047E6
:1042D000054900E005490160002070470449FAE7FC
:1042E0000449F8E74800002000000343000083422F
:1042F00033330342333383410C49C97A072913D23C
:10430000DFE801F01204060A0C0E1000BC2100E0E8
:1043100062210180002070472A21FAE71421F8E782
:104320000A21F6E70521F4E70021F2E74800002022
:10433000054991F8242012B14FF0FF307047C98928
:104340000180002070470000480000202DE9FC415A
:104350004C4C80208DF8000020686B460122817C47
:1043600060680078FFF720FE4FF0FF37002832D159
:104370006420FEF7BFFE00258DF8005020686B46D4
:104380000122817C60680078FFF70EFE002871D161
:1043900020686B460622817D60680078FFF7CCFDBF
:1043A000002867D19DF805009DF80310C007400F55
:1043B00001F0010140EA41019DF801004FF00106C2
:1043C00000F00100014309D0012905D0022916D0CF
:1043D0002DA0FEF7CBF94DE0E67411E020686B46A6
:1043E0000122C17860680078FFF7A6FD002841D15E
:1043F0009DF8000010F00F0020D0042822D0E574B2
:10440000FF2004F80A0F4FF6FF7104F8020C04F8BD
:10441000010C6070A180A0712072A670267665766E
:10442000E572A572E56025616561A576E576A583EF
:104430004FF4FA6000F06AFBE0B907E01C48FEF7B1
:1044400095F917E01BA0FEF791F9C5E7022000F0EF
:104450007FFA78B92A2000F0C1FB58B9322000F069
:10446000F3FB38B90020FFF7A3FE18B9002000F0D5
:10447000A3FA10B13846BDE8FC81002000F024FC0E
:104480000020F8E748000020556E737570706F7259
:1044900074656420736F6674776172652070726FE3
:1044A00064756374207265762025642E0A0000000E
:1044B000D455000848616C662073656E7369746931
:1044C00076697479207061727420666F756E642EDF
:1044D0000D0A00002DE9FF4FDFF89480064685B0F5
:1044E00098F8250015460F464FF0FF39B0BBAFB323
:1044F000002420E0301B102800DD102080B283460D
:104500003A1901469246204600F03AFC30BB6A4612
:104510005946204600F0D2F800BB50465A4669463C
:10452000FBF763FE20B16FF0010009B0BDE8F08F2A
:1045300004EB0B0084B2B442DCD3280A8DF81000DF
:104540008DF81150D8F80000444604AB817ED8F8AD
:10455000040002220078FFF727FD08B14846E4E78F
:10456000012084F825000898E0840020DDE70000A1
:10457000480000202DE9F84305464FF0FF39282870
:1045800044D80727284C00267DB1012000F0F4FA1A
:1045900020208DF800004FF00108012D17D0052DC7
:1045A00018D88DF8018005201FE0002000F0E4FA03
:1045B0008DF800608DF8017020686B460222817CC6
:1045C00060680078FFF7F0FC00BB267529E08DF8E5
:1045D0000160E8E7142D04D802208DF801000A20BC
:1045E00003E003208DF80100142000F0F7FA9DF895
:1045F00001006B4607EB80108DF801002068022255
:10460000817C60680078FFF7CFFC10B14846BDE8B8
:10461000F8830820A072267384F814800020FFF726
:10462000C7FD0020F3E70000480000202DE9F84313
:10463000214C0646174694F8240089464FF0FF386F
:1046400090B3A07A80B320686B460222817A6068BA
:104650000078FFF771FC38BBBDF8000045BAB542E1
:1046600002D2002038701FE060684188B5EB510F1E
:1046700011D9216800786B46497C0122FFF75CFC68
:1046800090B99DF80000C00605D500F041F86FF024
:104690000100BDE8F8832068F2B24B46C17A606839
:1046A0000078FFF749FC08B14046F2E7B5FBF6F0A9
:1046B000401E38700020ECE748000020F8B51600D6
:1046C0000D464FF0FF371FD0104CA17AE1B1010A1F
:1046D0008DF80010C0B28DF8010041196068428960
:1046E000914211D8216800786B46097E0222FFF7BB
:1046F0005BFC48B92068EAB23346417D60680078C7
:10470000FFF71AFC002800D03846F8BD480000200A
:10471000F8B5524C4FF0FF36A07A00287CD0002527
:104720008DF8005020686B460122C17B60680078DC
:10473000FFF73AFC00286FD120686B4601224179CF
:1047400060680078FFF730FC002865D120686B4670
:104750000122017960680078FFF726FC00287AD1F1
:1047600094F82400C0B30C208DF8000020686B463C
:104770000122017960680078FFF716FC00286AD1F1
:10478000C0208DF80000A07AC00702D0E0208DF88C
:10479000000020686B460122017960680078FFF70D
:1047A00003FC002857D1607C18B102208DF800006E
:1047B00001E08DF8005020686B460122C17B6068E3
:1047C0000078FFF7F1FB38BB8DF8005020686B468E
:1047D00041796068007839E0FFE704208DF8000037
:1047E00020686B460122017960680078FFF7DCFBE6
:1047F00090B9A07C88B9A07AC0070ED05FF06000A5
:104800008DF8000020686B4601220179606800780D
:10481000FFF7CAFB00B902E01DE04020F0E7607C32
:1048200018B101208DF8000001E08DF800502068DB
:104830006B460122C17B60680078FFF7B5FB50B979
:104840002068064B41796068103300780122FFF739
:10485000ABFB002800D03046F8BD00004800002027
:104860002DE9F047394C82468AB094F824000F466F
:1048700020B1002000F00EF9012600E0002607A874
:10488000FFF700FD06A8FFF7BDFC09A8FFF734FD00
:1048900008A8FFF74DFD94F80A9094F810800025C1
:1048A000002239465046FFF753F910B16D1C022D16
:1048B000F6DB022D1AD00025012203A96846FFF776
:1048C00047F910B16D1C022DF6DB022D0ED003A9A5
:1048D0003846FEF78DF8C7B269465046FFF7C2FA70
:1048E00010F0FF0F4FF0000502D002E0002503E0BA
:1048F00001250FB945F00205FF2020726072E072B9
:104900004FF6FF71E181A072207401202073BDF881
:104910001C0000F0FBF89DF8180000F019F8BDF835
:10492000240000F05BF9BDF8200000F08DF9484646
:1049300000F0CAF94046FFF73BFC16B1012000F039
:10494000A9F80AB02846BDE8F0870000480000201A
:1049500038B5184C4FF0FF35A17A19B3022806D0AC
:10496000042806D008280ED010281BD10DE0002006
:1049700000E008208DF80000607A9DF80010B0EB90
:10498000D10F04D005E01020F4E71820F2E7002052
:1049900038BD20686B460122C17960680078FFF756
:1049A00003FB08B1284638BD9DF80000C0086072BE
:1049B000EDE7000048000020F8B5354C0546A07C26
:1049C000A84201D10020F8BD31484FF0FF366B46B8
:1049D000D0E900104FF001020979007835B3FFF7F4
:1049E000ABFA70BB9DF800006B4620F020008DF8FC
:1049F000000020680122017960680078FFF7D4FA8E
:104A0000F8B90320FEF776FB02208DF8000094F839
:104A1000220078B382202BE020686B460122017DC2
:104A200060680078FFF7C0FA58B92EE0FFF784FA03
:104A300038B9A07AC0079DF8000003D040F02000EC
:104A400002E00CE020F020008DF8000020686B46AA
:104A50000122017960680078FFF7A6FA08B13046B4
:104A6000F8BD0320FEF746FB94F8220000B1802039
:104A70008DF8000094F823000028CDD09DF80000A8
:104A800040F030008DF80000C6E7A5749AE70000FA
:104A90004800002038B51C4C94F8241081421DD0E9
:104AA000002500B394F82500D0B1002000F04AFBA7
:104AB0000020FFF781FFE08C00F0C6F88DF8005071
:104AC00060686B46012200782321FFF76DFA012010
:104AD00084F8240000F036FBFFF71AFE002038BDF2
:104AE0004FF0FF3038BD002000F02CFB207C8DF80B
:104AF000000060686B46012200782321FFF754FA1A
:104B000084F82450E8E700004800002038B5194C2C
:104B10004FF0FF35A17A31B3FA2809D0B0F5FA7F0A
:104B200008D0B0F57A7F0FD0B0F5FA6F1BD10DE049
:104B3000002000E008208DF80000207A9DF8001089
:104B4000B0EBD10F04D005E01020F4E71820F2E715
:104B5000002038BD20686B460122817960680078AA
:104B6000FFF722FA08B1284638BD9DF80000C008BA
:104B70002072EDE74800002038B5174C054694F840
:104B80002300A84201D1002038BD0DB1302000E043
:104B900000208DF80000A07C28B19DF8000040F0B6
:104BA00002008DF8000094F8220028B19DF8000062
:104BB00040F080008DF8000020686B460122017DE6
:104BC00060680078FFF7F0F910B14FF0FF3038BDA2
:104BD00084F82350D7E700004800002038B5194C6E
:104BE0004FF0FF35A17A31B3BC2801D3012010E08A
:104BF000622801D302200CE02A2801D3032008E018
:104C0000142801D3042004E00A2801D3052000E081
:104C100006208DF80000E07A9DF80010884201D14E
:104C2000002038BD20686B460122817860680078DA
:104C3000FFF7BAF908B1284638BD9DF80000E072C8
:104C4000EEE7000048000020F8B51E4D04464FF086
:104C5000FF37A87A48B395F8240030BB287D4FF47D
:104C60007A7648B164B1282C03D8E0B2FFF782FC11
:104C700026E00020FFF77EFC042C05D2042406E089
:104C80000020FFF777FCF9E7B44200D93446B6FBC1
:104C9000F4F0401E8DF8000028686B460122417830
:104CA00068680078FFF780F908B13846F8BD9DF8CC
:104CB0000000401CB6FBF0F0E8814008FFF78EFFD3
:104CC0000020F8BD48000020F8B5054610F0700F30
:104CD0004FF0000601D0012004E015B18DF800600E
:104CE00002E040208DF80000244C6B460122206831
:104CF000817C60680078FFF757F94FF0FF3760BBA1
:104D00009DF8000020F0400020738DF800606806D8
:104D100002D404208DF80000A80605D49DF80000F8
:104D200040F002008DF80000E80605D49DF8000070
:104D300040F001008DF80000280705D49DF8000020
:104D400040F038008DF8000020686B460122C17CDD
:104D500060680078FFF728F910B1A6723846F8BDF0
:104D600025B1082D02D00020FFF706FFA572267599
:104D70003220FEF7BFF90020F8BD000048000020F7
:104D8000F8B516000D464FF0FF371FD0104CA17A32
:104D9000E1B1010A8DF80010C0B28DF8010041198F
:104DA00060684289914211D8216800786B46097E7B
:104DB0000222FFF7F9F848B92068EAB23346417D8C
:104DC00060680078FFF7F0F8002800D03846F8BD9A
:104DD00048000020002800DA4042704702460120C7
:104DE00000E050430B00A1F10101C9B2F9D17047B5
:104DF000F8B57F4900204860FCF7E7FE0023012456
:104E00007F22194618460094FCF70CFF00223F232E
:104E1000114610460094FCF705FF7F223F23002136
:104E200010460094FCF7FEFE3F237F221946002027
:104E30000094FCF7F7FE6FA200210120FDF768F84F
:104E40006E4D0C24009401232A7800211E20FDF7CA
:104E500023F82878012804D0022804D0032804D09D
:104E600008E067A202E067A200E068A200212D200E
:104E7000FDF74EF867A20A210120FDF749F8674DBA
:104E80000A2602232868314690FBF6F22D20009472
:104E9000FDF702F82868012390FBF6F106FB1102EA
:104EA0000A2144200094FCF7F7FF5DA20A213A2072
:104EB000FDF72EF85BA20A215020FDF729F85AA22F
:104EC00014210120FDF724F8594D2868002809DA3B
:104ED00058A214212D20FDF71BF800942868052303
:104EE000424207E054A214212D20FDF711F800944E
:104EF0002A68052314214120FCF7CEFF4FA21E2172
:104F00000120FDF705F84F4D2868002809DA49A26D
:104F10001E212D20FCF7FCFF009428680523424247
:104F200007E045A21E212D20FCF7F2FF00942A681D
:104F300005231E214120FCF7AFFF43A228210120B9
:104F4000FCF7E6FF36A228213A20FCF7E1FF40A259
:104F500028215020FCF7DCFF3E4D64260223286800
:104F6000282190FBF6F22D200094FCF795FF28688D
:104F7000022390FBF6F106FB110228214420009445
:104F8000FCF78AFF286890FBF6F106FB11000A285F
:104F900006DA0223002228213E200094FCF77CFF41
:104FA0002DA232210120FCF7B3FF2D48006810F13B
:104FB000FF4F10D380F00040FBF7E2FB02460423D2
:104FC00032212D200094FCF767FF1AA232212D20F8
:104FD000FCF79EFF08E0FBF7D3FB024604233221D7
:104FE0002D200094FCF758FFBDE8F840FCF7E6BE22
:104FF000140100205741592D00000000000000203E
:10500000444D50004B616C6D616E000048756275D7
:105010000000000057656E64750000000400002069
:105020002E00000060430000456E636F31000000F9
:10503000180000202D0000002B000000456E636F5B
:10504000320000001C000020566F6C7461000000EC
:105050005600000028000020416E676C65000000CB
:10506000080000200B480188002202800307988C6A
:105070009A84DB13084A984202D9A0F57D40E838AB
:10508000404210600548994202D9A1F57D41E839B6
:105090000160704724080040180000201C00002018
:1050A00010B588B0694604A8FFF7DAFB072835D1A8
:1050B00007A8FFF701F90498FBF71DFB07990C46B9
:1050C000FBF7F8F8FBF743FB04900598FBF713FB9D
:1050D0002146FBF7EFF8FBF73AFB05900698FBF744
:1050E0000AFB2146FBF7E6F8FBF731FB069004A824
:1050F000FEF7C0FA03A8FFF7A3F8BDF80C0000996B
:10510000414300910199414301910299414368460D
:105110000291FEF70DFA02A0FDF728FB08B010BDC2
:1051200073657474696E6720626961732073756357
:1051300063657366756C6C79202E2E2E2E2E2E0DC7
:105140000A000000F8B5144C0146224694F8246089
:10515000D2E9000200235D1E56B179B1022111E0AF
:10516000C17B10786B460122FEF71EFF68B90EE086
:10517000A67A56B111B1617C61B902E08DF80030B8
:10518000EEE701218DF80010EAE72846F8BD9DF80A
:10519000000060740020F8BD480000202DE9F041B7
:1051A00006460F46FBF76EFC04000D4618BF0120B3
:1051B000284320F00040C0F17F6000F1E040C00FC4
:1051C0000FD0002E14BF01200020384320F00040F3
:1051D000C0F17F6000F1E040C00F04BF0120FDF787
:1051E00057FB20462946BDE8F08100002DE9F04735
:1051F00092463C4A40F2DC533B4F1278DFF8EC9089
:10520000B3FBF2F53A780026394C05F548754FF0B6
:105210000308012A07D099F80020012A03D0C4E925
:105220000886E6611FE0626A521C6262012A01D0B0
:10523000E06903E00844FFF7CDFDE0614FF4FA6157
:1052400091FBF0F02062032802DAC4F8208003E02A
:105250000A2801DD0A202062387801281CD099F83C
:10526000000001281CD030466661A84200DD65615F
:1052700061696842814200DA60611E481E49006827
:105280000968431A1D4801681D480068FDF7B8F811
:105290000028A06A09D00CE0216A6069084402E095
:1052A000216A6069401A6061DFE761691844401A49
:1052B000A0624FF4E161884202DC4942884200DA90
:1052C000A16210495046FBF72BF80546A06A400042
:1052D000FBF711FA2946FAF795FFFBF738FAA061B8
:1052E000BDE8F08700000020160000201700002015
:1052F0001C010020180000201C00002028000020B5
:10530000080000200000404170B505460801FBF789
:10531000FBF90446294845436808FBF7F5F921469F
:10532000FAF7FEFF0546FBF72BFA84B22046FBF79F
:10533000EBF92946FAF7BBFF0421FBF731F8FBF73D
:105340001FFA4FF6FF7101EA04110A181C4881691F
:1053500041F008018161C16941F48021C1611949AD
:105360000B6823F47F430B600B6843F40B430B6023
:10537000144908310B6843F480630B60016941F400
:1053800080210161016921F4802101610E480280C0
:10539000001D018842F20C0211430180018841F492
:1053A00080710180018841F020010180BDE87040DA
:1053B0000223272203210120FCF734BB40420F00C7
:1053C00000100240040C01400848004010B586B0AF
:1053D000012144F20400FCF7F1FD4FF40070ADF838
:1053E000100018208DF813000320214C8DF81200B6
:1053F00004A92046FBF7EAFE2015ADF810000420B2
:105400008DF8130004A92046FBF7E0FE4FF4E130CD
:1054100000900020ADF80400ADF80600ADF80800DB
:10542000ADF80C000C20134CADF80A00694620467C
:10543000FDF7ECF840212046FDF7A4F8012240F2E8
:1054400025512046FDF7CAF801212046FDF79DF8B9
:1054500025208DF8140001208DF8150007218DF806
:1054600016108DF8170005A8FCF758FB06B010BD04
:105470000008014000380140044801888906FCD535
:105480000248001D0088C0B270470000003801408B
:105490002DE9F0412F48304C4FF0000800780128EA
:1054A00033D02E480078012831D0C4F80C802C4825
:1054B0002C490068096845186560A068FBF729F960
:1054C000294E2A4B3246FBF71EF8FBF76DF90746CB
:1054D0002846FBF71EF93246254BFBF714F8054624
:1054E0000E463846FBF715F92A463346FAF764FFAD
:1054F000FBF75AF91F4B204DA06019682868FCF78C
:105500007FFF0028206906D00AE01C4801E04FF424
:105510006170E060CBE7A1680844E168401A20614F
:105520001749884202DC4942884200DA2161206939
:105530008C2190FBF1F0A16800EB810020601968DC
:105540002868FCF75DFF012801D1C4F810802068AD
:10555000BDE8F081140000201C010020150000208F
:10556000180000201C0000209A9999999999E93F08
:105570009999C93F28000020080000207CFCFFFF0B
:10558000407E05006800000476005401F7FD00012C
:1055900075191A0C6A231B1C1F207274433B413877
:1055A000393A6B6C376F06246D6E70008300000013
:1055B0000008000000010018320005000000204132
:1055C0000000D242295C0F3E9A99993E3333733FD3
:1055D000295C0F3E50726F647563742049442072D9
:1055E000656164206173203020696E646963617451
:1055F00065732064657669636520697320656974E5
:1056000068657220696E636F6D70617469626C6544
:10561000206F7220616E204D5055333035302E0D85
:105620000A000000700000000024000000020003D7
:10563000000000650054FFEF0000FA80000B1282AA
:105640000001030C30C30E8C8CE914D54002137199
:105650000F8E3883F8833000F883258EF88330006E
:10566000F883FFFFFFFF0FFEA9D6240004001A8273
:1056700079A10000003CFFFF00000010000038830B
:105680006FA2003E03304000000002CAE3093E80E2
:10569000000020000000000000004000000060004A
:1056A0000000000C0000000C186E000006920A16A4
:1056B000C0DFFFFF0256FD8CD377FFE1C496E0C543
:1056C000BEAA00000000FFFF0B2B000016570000D1
:1056D00003594000000000001DFA00026C1D00008C
:1056E00000003FFFDFEB003EB3B6000D2278000064
:1056F0002F3C00000000001942B5000039A2000054
:10570000B365D90E9FC91DCF4C3430000000500046
:1057100000003BB67AE80064000000C8000000000A
:105720000000100000001000FA921000225E000D30
:10573000229F0001000000320000FF46000063D4F9
:1057400000001000000004D6000004CC000004CCCF
:105750000000000010720000004000000000000087
:1057600000000006000200050007000000000064C1
:10577000000000000000000000050005006400209B
:1057800000000000000000000000000040000000D9
:10579000030000000032F8980000FF650000830F4E
:1057A0000000FF9BFC000000000000000000000063
:1057B00000000000000000000000000000000000E9
:1057C00000000000000000000000000000000000D9
:1057D000100040000000000000060000B26A000255
:1057E00000000001FB830068000000D9FC007CF190
:1057F000FF830000000000650000006403E800640F
:105800000028000000250000000016A00000000095
:10581000100000001000002F0000000001F4000044
:10582000100000280000FFFF4581FFFFFA72000012
:10583000000000000000004400050005BAC6004753
:1058400078A2000000010000000000000600000037
:1058500000140000254D002F706D000005AE000CF7
:1058600002D0000000000000000000000000000066
:105870000000001B0000000000000000000000000D
:1058800000000064000000080000000000000000AC
:105890000000000000000000000000000000000008
:1058A00000000000000000000000000000000000F8
:1058B00000000000000000000000000000000000E8
:1058C00000000000000000000000000000000000D8
:1058D00000000000000000000000000000000000C8
:1058E0000000001B00000000000000000000000E8F
:1058F000000E00000AC70004000000000032FFFF95
:10590000FF9C00000B2B00000002000000010000C3
:105910000064FFE50000000000000000000000003F
:105920000000000000010000000000010000000075
:1059300000000001800000018000000180000024C0
:1059400026D30000000000000000000600100096B2
:10595000003C00000000000000000000000000000B
:1059600000000C0A4E68CDCF770950166759C6194A
:10597000CE820000000000000000000000000000D7
:105980000000000000000000000017D784000300A2
:1059900000000000000000000000C7938F9D1E1B48
:1059A0001C190000000000000000000000000000C2
:1059B0000000000000000000000002031885000045
:1059C0004000000000030000000300000000000091
:1059D0000000400000000000000000000000000087
:1059E00000000000000000000000000000000000B7
:1059F00000000000000000000000000000000000A7
:105A0000000000000000677DDF7E72902E554CF68E
:105A1000E688000000000000000000000000000018
:105A20000000D8DCB4B8B0D8B9ABF3F8FAB3B7BB60
:105A30008E9EAEF132F51BF1B4B8B08097F1A9DFBC
:105A4000DFDFAADFDFDFF2AAC5CDC7A90CC92C971B
:105A5000F1A989264666B28999A92D557DB0B08AEB
:105A6000A896365676F1BAA3B4B280C0B8A89711FA
:105A7000B28398BAA3F0240844106418B2B9B49859
:105A800083F1A329557DBAB5B1A38393F0002850C3
:105A9000F5B2B6AA839328547CF1B9A3829361BA74
:105AA000A2DADEDFDB819AB9AEF5606870F1DABAAE
:105AB000A2DFD9BAA2FAB9A38292DB31BAA2D9BACB
:105AC000A2F8DF85A4D0C1BBAD83C2C5C7B8A2DF31
:105AD000DFDFBAA0DFDFDFD8D8F1B8AAB38DB49882
