:020000040800F2
:1000000088090020490100087D190008C112000874
:10001000E11800086D0C0008192500080000000018
:10002000000000000000000000000000C51F0008E4
:10003000910E000800000000011E0008C920000801
:100040006301000863010008630100086301000800
:1000500063010008630100086301000863010008F0
:1000600063010008630100086301000863010008E0
:1000700063010008630100086301000863010008D0
:10008000630100086301000863010008000000002C
:1000900000000000000000000000000063010008F4
:1000A000630100081D2100086301000863010008C6
:1000B000DD21000863010008ED210008630100084C
:1000C0006301000863010008630100086301000880
:1000D00063010008A122000863010008D122000882
:1000E0006301000863010008630100086301000860
:1000F0006301000863010008000000000000000028
:100100000000000000000000630100086301000817
:10011000630100086301000863010008630100082F
:10012000630100086301000863010008630100081F
:1001300063010008DFF80CD000F092FC0048004793
:10014000853F000888090020064880470648004788
:10015000FEE7FEE7FEE7FEE7FEE7FEE7FEE7FEE777
:10016000FEE7FEE7CD200008350100082DE9F0414B
:1001700000242546002905DA01240027D0EB0700DA
:1001800067EB0101002B05DA0027D2EB07020125FE
:1001900067EB030300F06CFB86460E4617469C4651
:1001A000AC4204D00025D0EB050E65EB010624B16E
:1001B0000020D2EB000760EB030C704631463A4654
:1001C0006346BDE8F081D2B201E000F8012B491E80
:1001D000FBD270470022F6E710B513460A460446E4
:1001E0001946FFF7F0FF204610BD30B50446002049
:1001F000034600E05B1C934203D2E05CCD5C401BF5
:10020000F8D030BDF0B480EA0102D40F4200B2EB66
:10021000410F02D20246084611464A0042D0C30DA1
:10022000DDB2C1F3C752AD1A202D35DAC1F3160184
:1002300041F4000204B15242C5F1200602FA06F16F
:100240002A411044B3EBD05F23D0C4B1012DA0EB01
:10025000C35009DCF0BC4FF0004202EAC35200F583
:100260000000DBB200F06FBB400000F1807000EBDB
:10027000C350A0F1807040EAD170490009E04908FC
:1002800041EAC071A0EBC35000F50000400800EB4C
:10029000C350F0BC00F04EBB6142012202EB4101B1
:1002A000001BF6E7F0BC704781F00041AAE780F040
:1002B0000040A7E780EA010210B502F000434000C9
:1002C00026D04A0023D04FEA106101EB1261C0F33F
:1002D0005600C2F3560240F4000042F40002A0FBB4
:1002E0000220A1F17F014FEA0040140401D000F187
:1002F000010050EA124001D44000491EC2B20C066F
:1003000004EBD010401C4008802A02D003E00020FB
:1003100010BD20F00100002900DA0020184310BDB4
:1003200030B480EA010202F0004530F0004221F0D2
:10033000004015D0A0B1C0F3C753C2F3C754C2F3F5
:100340001601C0F31600E41A41F4000140F4000263
:100350007D34914201D3641C00E04900002C02DA94
:1003600030BC002070474FF400000023914201D3BD
:10037000891A034340084FEA4101F7D151B1914234
:1003800002D14FF0004105E002D24FF0010101E03F
:100390006FF0010103EBC450284430BC00F0CABA2E
:1003A000420005D0C0F3C7525242914201DC002006
:1003B000704700EBC15070472DE9FE4F804681EA3F
:1003C0000300C00F0C46009021F0004123F00045CF
:1003D000B8EB0200A94105D24046214690461C4692
:1003E0000B46024623F00040104304D1404621460C
:1003F00003B0BDE8F08F270DC7F30A00C3F30A511D
:100400000290401A0190402866DAC3F3130040F4CA
:10041000801B0098924620B10023D2EB030A63EBC5
:100420000B0B01985946C0F14002504600F051FABA
:1004300006460D4650465946019A00F069FA10EBFF
:1004400008006141002487EA115284EAE7731A43E5
:100450003BD0009A3AB3019A012A4FEA075210DCC6
:10046000001B61EB02014FF0004202EA0752CDE9A6
:100470000042001C41F5801132462B4600F09DFAE7
:10048000B6E7001B61EB0201001C41F58013001868
:100490005B412018A2F5001747EB030140EAD57035
:1004A000B6196D4111E06D084FEA360645EAC07590
:1004B0004FEA0752001B61EB0201001C41F580115D
:1004C00049084FEA30000019514132462B4603B02B
:1004D000BDE8F04F00F064BA00980122400000230C
:1004E000D0EB020263EBE073009821464FEAE07420
:1004F000B8EB000061EB0401E9E783F000435BE740
:1005000081F0004158E72DE9FE4F81EA030404F031
:10051000004421F0004100944FF0000B23F0004311
:1005200050EA010402D052EA030404D1002001463B
:1005300003B0BDE8F08FC3F30A54C1F30A552C444D
:10054000A4F2F3340194A0FB0254C1F3130141F46B
:100550008011C3F3130343F4801301FB024400FB37
:10056000034E840A970A44EA815447EA8357A4FB5E
:10057000076802958D0A05FB07854FEA932C04FB5B
:100580000C542705029D4FEA065847EA1637B5EB8B
:1005900008056EEB070C870E920E47EA811742EAB8
:1005A0008312A7FB0201B6EB0B0164EB00042B0DD9
:1005B00043EA0C335E1844EB1C50DA465146E7FB25
:1005C0000201C5F313044FEA0B3343EA14534FEA15
:1005D0000432019C43EA0603A4F10C040294009C3B
:1005E000CDE900B400F0E9F9A2E72DE9F04D81EA88
:1005F000030404F0004B21F0004514464FF0000ABC
:1006000023F0004150EA050220D054EA01021DD037
:10061000C5F30A570246C5F31303C1F31300C1F330
:100620000A5640F4801543F48013A7EB0608101B0C
:10063000D64608F2FD3873EB050002D308F1010835
:1006400001E092185B41B8F1000F03DA0020014687
:10065000BDE8F08D00204FF48011064684460EE080
:10066000171B73EB050705D3121B63EB050306434A
:100670004CEA010C49084FEA300092185B4150EAFD
:100680000107EDD152EA030012D082EA040083EAA6
:100690000501084303D100224FF0004308E0101B7E
:1006A000AB4102D20122002302E06FF0010253109D
:1006B0001AEB06004CEB085110EB0A0041EB0B0162
:1006C000BDE8F04D00F06CB970B521F00043034374
:1006D0000CD0C1F30A550024D5EB040564EB0403E8
:1006E000D617AD1AB34102DB0020014670BD2018B9
:1006F00041EB025170BDC10F80EAE0700844CA07A7
:100700009623002100F01FB996230022114600F025
:100710001AB90EB5C10F80EAE0700844CA0700217B
:1007200040F233438DE80E000A460B4600F045F9CF
:1007300003B000BD0EB540F2334102910021CDE976
:1007400000110A460B4600F038F903B000BD00F076
:10075000004220F00040C10DC0F3160040F400003C
:100760007F2901DA00207047962903DCC1F1960148
:10077000C84001E096398840002AF4D040427047D2
:1007800020F00040C10DC0F3160040F400007F29A6
:1007900001DA00207047962903DCC1F19601C840B8
:1007A000704796398840704770B5C1F30A5201F01E
:1007B00000450024C1F3130140F2FF3341F48011DE
:1007C0009A4201DA002070BD40F233439A42A2F20D
:1007D000334203DC524200F08BF800E090402C439F
:1007E000F1D0404270BD00F0004230F000400AD02D
:1007F000C10D01F56071C0F3160042EA0151C20853
:1008000040071143704700200146704701F0004344
:1008100030B421F0004150EA010206D00A0DA2F5E1
:100820006072C1F31301002A02DC30BC0020704763
:10083000440F44EAC104C100E01830BC00EBC250D0
:1008400000F078B830B50B46014600202022012484
:1008500009E021FA02F59D4205D303FA02F5491B8E
:1008600004FA02F52844151EA2F10102F1DC30BDA4
:100870002DE9F05F0546002092469B4688460646D5
:10088000814640241BE0284641464746224600F068
:100890002FF853465A46C01A914110D311461846B4
:1008A000224600F016F82D1A67EB01084F46224643
:1008B0000120002100F00DF817EB00094E41201E29
:1008C000A4F10104DFDC484631462A464346BDE830
:1008D000F09F202A04DB203A00FA02F10020704742
:1008E0009140C2F1200320FA03F31943904070476E
:1008F000202A04DB203A21FA02F00021704721FA75
:1009000002F3D040C2F120029140084319467047DB
:10091000202A06DBCB17203A41FA02F043EAE073C3
:1009200006E041FA02F3D040C2F1200291400843B0
:10093000194670470029A8BF7047401C490008BFEE
:1009400020F00100704710B4B0FA80FC00FA0CF0FF
:1009500050EA010404BF10BC704749B1CCF1200437
:1009600021FA04F411FA0CF118BF012121430843C4
:10097000A3EB0C01CB1D0106000A002BBEBF00201B
:1009800010BC704700EBC35010440029A4BF10BC3A
:100990007047401C490008BF20F0010010BC7047A0
:1009A00010B5002B08DA401C41F1000192185B41A0
:1009B0001A4301D120F0010010BD2DE9F04D9246FF
:1009C0009B4611B1B1FA81F202E0B0FA80F2203216
:1009D0009046FFF77EFF04460F4640EA0A0041EAD0
:1009E0000B0153465A46084303D120463946BDE819
:1009F000F08D114653EA010015D0C8F1400250466F
:100A0000FFF776FF05460E46504659464246FFF729
:100A100060FF084301D0012000E00020054346EAC2
:100A2000E0762C4337430A984FEA4453A0EB080082
:100A30004FEAD4240A304FF0000244EA47544FEA08
:100A4000D72502D500200146D1E7010510196941DB
:100A5000DDE9084500196941BDE8F04DA0E7000057
:100A6000064C074D06E0E06840F0010394E80700FB
:100A700098471034AC42F6D3FFF760FB006C0008D7
:100A8000206C00082DE9F04D00231A461B1A8A41FC
:100A900003DB00200146BDE8F08DC1F30A52C1F32B
:100AA000130141F480154FF0000BD10702D100185B
:100AB0006D41521E0027044640F2FF11384601EBFB
:100AC000620A3E468046024600204FF48011FFF73E
:100AD0000FFFC2197141BB1846EB0100B4EB030CC8
:100AE00075EB000C04D3E41A65EB000517460E46BF
:100AF000241908F101006D4180463428E3DDF9191D
:100B000046EB0600091BA84103D24FF0FF32134603
:100B100001E0002213461BEB070046EB0A51BDE83B
:100B2000F04DFFF73DBF70B501EB020410F8015B1B
:100B300015F0070301D110F8013B2A1106D110F876
:100B4000012B03E010F8016B01F8016B5B1EF9D17A
:100B50002B0705D40023521E0FD401F8013BFAE7FE
:100B600010F8013B02F10202A1EB030303E013F8CA
:100B7000015B01F8015B521EF9D5A142D6D30020DA
:100B800070BD0000354810B5816941F004018161F4
:100B900033490A6822F470220A60816941F40071C5
:100BA0008161C16841F40071C160C16821F40071C4
:100BB000C160416821F440414160416841F4004115
:100BC000416028480168284A1140016001680160BD
:100BD000016821F480710160001D016821F00201AB
:100BE0000160016821F460210160016841F4602125
:100BF0000160016841F480110160016821F4006125
:100C00000160184928310A6822F470020A600A68F3
:100C100000220A6013490C310A6822F470020A604B
:100C20000A6842F4E0420A60016841F00101016093
:100C3000016841F00801016001680907FCD40168FE
:100C400041F00401016001684907FCD4012002F071
:100C500099F9BDE8104000F0FFBA00000010024012
:100C60000008014004240140FFFFF000FEE70000FF
:100C700038B5002000906B4601227521682003F0F2
:100C8000A3F830A001F09EFC9DF80000682809D070
:100C900035480168354A01F4E06111430160BFF352
:100CA000408FFEE703F0A4FA002849D1782003F032
:100CB0005DFF10B923A001F085FC782003F0CAF98C
:100CC00010B92BA001F07EFCC82003F00FFF10B973
:100CD00031A001F077FC02F0C7FA10B938A001F09A
:100CE00071FC4448044603F0D1F80546E01C03F0CB
:100CF000CDF845EAC005A01D03F0C8F845EA80100C
:100D000080B202F067FC10B93BA001F05BFC40F23E
:100D1000731002F07DF910B941A001F053FCC82016
:100D200002F0BEFB10B948A001F04CFC04F000F941
:100D3000012003F001FE002802D14CA001F042FC8A
:100D400038BD00006D70755F7365745F73656E7399
:100D50006F7220636F6D706C657465202E2E2E2E61
:100D60002E2E0D0A000000000CED00E00400FA0534
:100D70006D70755F636F6E6669677572655F6669D2
:100D8000666F20636F6D706C657465202E2E2E2E3D
:100D90002E2E0D0A000000006D70755F7365745F84
:100DA00073616D706C655F7261746520636F6D70E7
:100DB0006C657465202E2E2E2E2E2E0D0A0000003E
:100DC000646D705F6C6F61645F6D6F74696F6E5F8F
:100DD0006472697665725F6669726D7761726520AB
:100DE000636F6D706C657465202E2E2E2E2E2E0D69
:100DF0000A0000009C000020646D705F7365745FE2
:100E00006F7269656E746174696F6E20636F6D7067
:100E10006C657465202E2E2E2E2E2E0D0A000000DD
:100E2000646D705F656E61626C655F666561747547
:100E3000726520636F6D706C657465202E2E2E2E8A
:100E40002E2E0D0A00000000646D705F7365745FE4
:100E50006669666F5F7261746520636F6D706C6543
:100E60007465202E2E2E2E2E2E0D0A006D70755FAD
:100E70007365745F646D705F737461746520636F14
:100E80006D706C657465202E2E2E2E2E2E0D0A0090
:100E900070470000314810B5C16941F00401C161DB
:100EA000816941F0080181612D48016821F070617C
:100EB0000160016841F000610160016821F070414A
:100EC0000160016841F0804101602648018841F0DD
:100ED00001010180018841F04001018001231E22AF
:100EE0000321184600F0D0FC1E4800231C3003806C
:100EF0001C494FF6E750203108801A480C38018809
:100F000021F440710180018821F0600101801549C0
:100F10000C310A8842F001020A800A8842F4807289
:100F20000A80104A1432148824F0020414801488B1
:100F300024F0200414800A8842F030020A80094913
:100F4000091F0A8842F003020A80064918310B8003
:100F5000018841F00101018010BD00000010024035
:100F6000000C01400C0800402A4810B5C16941F04E
:100F70000101C161816941F0040181612648016874
:100F800021F00F010160016841F004010160016876
:100F900021F0F0010160016841F040010160C404EA
:100FA000A08940F00100A081A08940F04000A0810C
:100FB00001231C220321184600F066FC0020208536
:100FC0004FF6E751A185218821F4407121802188C5
:100FD00021F060012180218B41F001012183218BCF
:100FE00041F480712183218C21F002012184218C24
:100FF00021F020012184218B41F0300121832189BE
:1010000041F003012181A084208840F0010020806C
:1010100010BD00000010024000080140F0B5CA7881
:10102000002502F00F03D20601D58A7813430C780D
:101030004FF00F0E0122ECB1D0F800400F8802FAF9
:1010400005F63740B74211D14FEA850C0EFA0CF77E
:1010500024EA070703FA0CF43C43CF78282F02D088
:10106000482F02D002E0466100E006616D1C082DA9
:10107000E4D304600C88FF2C1ED944685FF000069E
:1010800006F1080702FA07F50F882F40AF420FD18B
:101090004FEA860C0EFA0CF7BC4303FA0CF73C43FC
:1010A000CF78282F00D14561CF78482F00D1056136
:1010B000761C082EE4D34460F0BD416170470161A5
:1010C000704700000B490A6822F01F020A600A6894
:1010D00002430A6007482C38016841F4800101602E
:1010E0000448343801688907FCD502481830006884
:1010F00080B27047342401402DE9F04701287DD0AB
:101100004621D02000F0DDF804464521D02000F033
:10111000D8F804EB0020FFF7F7FA05464821D02065
:1011200000F0CFF804464721D02000F0CAF804EBC5
:101130000020FFF7E9FA04463C21D02000F0C1F876
:1011400006463B21D02000F0BCF806EB0020FFF75C
:10115000DBFA80464021D02000F0B3F806463F215C
:10116000D02000F0AEF806EB0020FFF7CDFA4FF0EC
:101170008E4706464FF08F49BD4204DD494628465A
:10118000FFF792F80546BC4204DD49462046FFF7CA
:101190008BF804464046B84503DD4946FFF784F81E
:1011A0008046BE4204DD49463046FFF77DF80646DC
:1011B000204985F0004008603046FFF714FB0746E1
:1011C0000E464046FFF70FFB3A46334601F0CCFD92
:1011D0000022194BFFF797F9184A194BFFF705FA48
:1011E000FFF714FB06462846FFF7FDFA4FF066327C
:1011F000144BFFF7FAF9FFF709FB00E017E012497B
:101200000978022902D0032906D00AE080F00041C3
:10121000304600F033FA04E080F00041304601F03F
:1012200097F90A480A49006808600A480460BDE85E
:10123000F08700000C00002000806640F1D4C85305
:10124000FB2109406666304000000020E0000020DD
:10125000080000201000002010B50420FFF732FF26
:10126000FFF768FA4FF066320F4BFFF74CF9002298
:101270000E4BFFF748F900220D4BFFF744F900220F
:101280000C4BFFF7B2F96FF00B02FFF71DFAFFF7F7
:101290008BFA0949094B08601A68904201DA186014
:1012A00010BD0A6010BD000066660A4000002740BD
:1012B000000059400000F83F2C000020C40000202E
:1012C000FEE770B50D46044600F0CEF8204600F06B
:1012D0009BF800F00DF9284600F096F800F008F9A8
:1012E00000F0C2F8641CE0B200F08EF800F000F9E3
:1012F000002000F053F8044600F0DEF8204670BDF0
:1013000070B50B4C0025E5600A48016821F00F011B
:101310000160016841F0030101602560012001F0D6
:1013200045FE0120E06001F041FEE56070BD000077
:10133000A0012142040801400848816941F00401EC
:101340008161074801684FF20F0291430160016813
:1013500043F2030211430160704700000010024095
:101360000408014070B50B4C0025E5600A4801688F
:1013700021F00F010160016841F0030101600126C5
:101380002660304601F012FEE660012001F00EFEFC
:10139000E56070BDA0012142040801402DE9F0473D
:1013A000814617480024016821F00F01016001689F
:1013B00041F008010160134E254627464FF0010811
:1013C000C6F8AC71022001F0F1FDC6F8AC816006F0
:1013D000040ED6F8200108B1641CE4B2022001F02A
:1013E000E5FD6D1CEDB2082DEAD3B9F1000F02D076
:1013F000FFF786FF01E0FFF7B5FF2046BDE8F08765
:1014000004080140000021422DE9F041064614483D
:10141000016821F00F010160016841F003010160E2
:10142000104C0027C4F8AC713D464FF00108F0099C
:10143000C4F8A0017006060E012001F0B7FDC4F843
:10144000AC81012001F0B2FDC4F8AC71012001F0C3
:10145000ADFD6D1CEDB2082DE9D3BDE8F0810000B3
:10146000040801400000214270B51148016821F0D4
:101470000F010160016841F0030101600D4C012082
:10148000C4F8A001D4F8201149B1C4F8AC0101F0AE
:101490008DFD0025C4F8A051D4F8200108B100202A
:1014A00070BD012001F082FDC4F8AC51012070BD77
:1014B00004080140000021420B4810B5016821F0EA
:1014C0000F010160016841F003010160074C002039
:1014D000E0602060012001F069FD0120E0602060F3
:1014E000BDE8104001F062BD04080140A0012142A6
:1014F00070B513480024016821F00F0101600168F4
:1015000041F0080101600F4D0126C5F8A061304689
:1015100001F04CFDC5F8AC6107E0641CE4B2322C6C
:1015200003D9FFF7C9FF002070BD012001F03EFD87
:10153000D5F820010028F0D1C5F8AC01012070BD1C
:10154000040801400000214210B51446FFF7B9FE1F
:101550002070012010BDF8B515461C460E46074602
:101560006A46FFF7F1FF01209DF80010A8400CB17A
:10157000084301E021EA0000C2B28DF800203146A4
:10158000384600F02BF8F8BD2DE9F84314461D4607
:101590000F4680466A46089EFFF7D6FF00281BD0FC
:1015A000611CFF20C4F1080200FA01F12A44521E16
:1015B000D0400143C5F108008640F2B2C4F10700F3
:1015C000C2409DF80000084010438DF80000C2B2F0
:1015D0003946404600F002F8BDE8F88307B502AB93
:1015E000012200F001F80EBD2DE9F0411E4615461E
:1015F000884607460024FFF737FF3846FFF704FF09
:10160000FFF776FF4046FFF7FFFEFFF771FF06E0AA
:10161000305DFFF7F9FEFFF76BFF641CE4B2AC42EC
:10162000F6D3FFF749FF0120BDE8F08141060748E6
:10163000826942F0010282610548426822F0E0625C
:10164000426042680A434260704700000010024056
:10165000000001400748816941F0080181610648A6
:10166000016821F470010160016841F4000101602A
:101670007047000000100240000C01402DE9F34FBC
:10168000554C87B0216A04910898FEF70DFE6169F8
:101690000091FEF70FFEA169FEF7B4FD04F14405C9
:1016A0000390D5F804A0A0685146FEF7FDFDD5F8DB
:1016B00008904946FEF7F8FD48490860EA6882F05C
:1016C00000464E608E60E768CF6090460099FEF756
:1016D000F1FD2968FEF796FD834630460099FEF736
:1016E000E9FD06465146FEF78DFD0290304649461B
:1016F000FEF788FD824638460099FEF7DBFD41463D
:10170000FEF780FD814603990798FEF7CDFD8046E0
:1017100060622078FEF7F8FF59460190FEF7CAFD97
:101720000646A06251460198FEF7C4FDE0620590AE
:1017300031460198FEF7BEFD2169FEF763FD0746BD
:10174000206339463046FEF7EBFD60630090394672
:101750000598FEF7E5FDC4E90E060746DDE901013F
:10176000FEF7A8FD2064019031460098FEF7A2FD27
:101770005946FEF79CFD2860DDE90001FEF79AFD61
:101780000299FEF794FD686031463846FEF792FDF7
:101790005146FEF78CFDA86038460199FEF78AFD98
:1017A0004946FEF784FDE86041460098FEF782FD59
:1017B0000399FEF727FDA06141463846FEF77AFD02
:1017C0000499FEF71FFD014620620898FEF76CFDA4
:1017D000E06109B0BDE8F08FC8000020740500206A
:1017E00006490A68521C0A60824205D10448026810
:1017F000D2430260002008607047000044000020CF
:10180000A081214210B5022000F011F8022000F062
:1018100020F8002000F014F8002000F02FF800203D
:1018200000F026F8BDE81040002000F01BB808B515
:101830000323009002226B21D020FFF7A5FE08BDF4
:1018400008B50223009004221C21D020FFF79CFE43
:1018500008BD08B50223009004221B21D020FFF709
:1018600093FE08BD034601223721D020FFF773BE47
:10187000034605226A21D020FFF76DBE03460622EB
:101880006B21D020FFF767BE10B51846144600F054
:1018900015F801204FF0E021202C06D2D1F80021CC
:1018A000A0400243C1F8002110BDD1F80421203C22
:1018B000A0400243C1F8042110BD0000072181436C
:1018C0000A02054908684FF6FF031840034B184306
:1018D00010430860704700000CED00E00000FA05BE
:1018E000FEE70000214A10B5D36943F00203D3613B
:1018F000936943F0080393611D4A136823F0FF03C3
:101900001360136843F0BB031360121D13689BB28E
:1019100013601368174C23431360174A1080101F7D
:10192000018015481038018841F4C04101800188C8
:1019300041F060010180018841F40061018001886B
:1019400041F008010180001D018841F480510180AF
:10195000018841F480710180C11307482C3801804F
:10196000018841F00101018010BD0000001002401B
:10197000000C0140000022222C04004070470000AF
:10198000F0B50F21C478027801234FF0E026DCB1D6
:10199000124C2468457804F4E064C4F5E064240A39
:1019A000C4F10407E1408478BD400C402C43210180
:1019B0000B4C1155007800F01F018B40400906EBDD
:1019C0008000C0F80031F0BD02F01F0083405009D4
:1019D00006EB8000C0F88031F0BD00000CED00E0A7
:1019E00000E400E030B40021084B0A465FF000003C
:1019F00003EBC004401CC0B262548028F8D3491CD9
:101A0000C9B20829F2D330BC00F0FCB87401002040
:101A100010B500218D2000F0BFF90021142000F046
:101A2000BBF90021BDE81040AF2000F0B5B90000BF
:101A300010B57F2816D83F2914D80723A3EBD1036C
:101A400001F00701C1F107040121A140064CDBB2FE
:101A500004EBC000002AC25CC9B201D00A4300E016
:101A60008A43C25410BD0000740100202DE9F047E4
:101A70001E46174688460546DDF820900CE0444691
:101A800006E04A4621462846FFF7D2FF641CE4B22E
:101A9000B442F6D96D1CEDB2BD42F0D9BDE8F047B5
:101AA00000F0B0B8504810B5816941F0080181617B
:101AB0004E490A6822F0F0020A600A6842F02002E9
:101AC0000A60816941F010018161816941F0010181
:101AD000816147494A68C2F313024A604A68454B2C
:101AE0001A434A6044490A6842F480720A60026AF2
:101AF00022F0010202624148028822F001020280C3
:101B0000086820F4807008603D4C0020206064204C
:101B100001F038FA012020600021AE2000F03CF9ED
:101B20000021D52000F038F90021502000F034F9D0
:101B30000021A82000F030F900213F2000F02CF90E
:101B40000021D32000F028F90021084600F024F9F4
:101B50000021402000F020F900218D2000F01CF928
:101B60000021142000F018F90021202000F014F9C1
:101B70000021022000F010F90021A12000F00CF952
:101B80000021C02000F008F90021DA2000F004F95B
:101B90000021122000F000F90021812000F0FCF863
:101BA0000021EF2000F0F8F80021D92000F0F4F82F
:101BB0000021F12000F0F0F80021DB2000F0ECF82B
:101BC0000021302000F0E8F80021A42000F0E4F823
:101BD0000021A62000F0E0F80021AF2000F0DCF8A2
:101BE000BDE81040FFF7FEBE00100240040C0140AB
:101BF000001001400000202200700040306C0040C6
:101C0000B401224270B5114E002400BF04F1B000AF
:101C1000C0B2002100F0C0F80021084600F0BCF876
:101C20000021102000F0B8F85FF0000506EBC500B9
:101C30000121005D00F0B0F86D1CEDB2802DF5D3F0
:101C4000641CE4B2082CE1D370BD000074010020D4
:101C50002DE9FF4F203A1F460C46894602F0FF0A45
:101C60000025DDF834B032E00C2F09D01A4901EB21
:101C70000A104FF00008465D300607D55A4609E0C5
:101C800016490AEB4A0001EB8000F2E7BBF1000FB6
:101C900012D0002221460098FFF7CAFE7006641C8D
:101CA000060EE4B2A4EB0900B84207D100984C46F6
:101CB000401CC0B2009008E00122EBE708F10100EF
:101CC00000F0FF08B8F1080FD6D36D1CEDB2BD428D
:101CD000CAD3BDE8FF8F00001C650008A86000089B
:101CE0002DE9FF4F81B00026DDF838A01D46934650
:101CF000814634464FF001084FEA5A0727E0281B77
:101D0000401EC1B20A2002F0BBFFBBFBF0F00A216B
:101D1000B0FBF1F201FB120026B9691E8C4201DA18
:101D200048B101263030C2B207FB0490C0B253461E
:101D3000CDF8008006E007FB0490C0B25346202295
:101D4000CDF800800299FFF783FF641CE4B2AC4237
:101D5000D5D305B0BDE8F08FF8B516460D4604465C
:101D6000012714E07A2C02D900241035EDB23A2D67
:101D700003D900242546FFF735FE009732780C235F
:101D800029462046FFF764FF0834E4B2761C307819
:101D90000028E7D1F8BD00002DE9F041154F0025DE
:101DA0000646012411B1C7F8A44101E0C7F8A451C7
:101DB000DFF8448040214046FFF77FF90F490020BB
:101DC000C1F8BC51320602D5C1F8B84101E0C1F8F2
:101DD000B851C1F8BC417206401C160EC0B20828AA
:101DE000EED340214046FFF76AF9C7F8A441BDE8A9
:101DF000F0810000008021420014014000002242D6
:101E000070470000044A0029916901D0014300E0B5
:101E100081439161704700000010024030B52049B5
:101E20004A6812F00C031F4A03D0042B01D0082B80
:101E300022D002604A680F231B4C03EA1212A35CF3
:101E40000268DA4042604B68072505EA1323E35C29
:101E500022FA03F383604B6805EAD323E35C22FA9A
:101E600003F2C2604968032303EA9131231F595CDE
:101E7000B2FBF1F1016130BD4A684B6802F47012A7
:101E80004FF0020413F4803F04EB924202D04B68FF
:101E90009B0301D5054B00E0024B5A43C9E7000004
:101EA0000010024000127A003400002000093D00BA
:101EB0002DE9F04188B0294C07A8CDE9004004F194
:101EC0001E0106AB02AA881F01F0D8F92088C005C0
:101ED00040D50298FEF70FFC6FF01D063146FEF765
:101EE0005FFA804660600398FEF705FC3146FEF716
:101EF00057FA0746A0600498FEF7FDFB3146FEF74F
:101F00004FFA0546E0600598FEF7F5FB3146FEF70F
:101F100047FA0646206101214046FEF741FA29466C
:101F2000FEF7C8F905464FF040413846FEF7C2F9C2
:101F30003146FEF7BFF92946FEF764F9FEF753FC78
:101F400000F0C2FC4FF06632054BFEF7DCFAFEF7FC
:101F50005DFC606108B0BDE8F08100007800002001
:101F600066A64C4010B54221D020FFF7AAF90446DE
:101F70004121D020FFF7A5F904EB0020FEF7C4FBB8
:101F8000B0F18E4F03DD4FF08F41FEF78DF9094917
:101F9000FEF7C6F9FEF727FC074A084BFEF70CFAD6
:101FA0000022074BFEF7AFFAFEF730FCBDE8104009
:101FB000FEF7CDBB0000AA43A4703D0AD7434240C0
:101FC00000002440704700000CB500212648019114
:101FD0000091026842F4803202604FF4A06302680C
:101FE00002F400320092019A521C0192009A12B936
:101FF000019A9A42F3D10268920333D501210091EC
:102000001A490A6842F010020A600A6822F00302C4
:102010000A600A6842F002020A6041684160416851
:102020004160416841F480614160416821F47C1164
:102030004160416841F4E8114160016841F08071FC
:10204000016001688901FCD5416821F0030141600C
:10205000416841F0020141604168C1F381010229F8
:10206000FAD10CBD00910CBD0010024000200240CE
:102070002DE9F04100250126114C0F46002804DA15
:10208000C4F8BC61C4F8B85103E0C4F8BC51C4F84A
:10209000B86102F0F1FD0B490880002F04DAC4F8A2
:1020A000B451C4F8B06103E0C4F8B461C4F8B051ED
:1020B000384602F0E1FD0349091F0880BDE8F081C0
:1020C0000080214240040040704700000F4810B5D6
:1020D000016841F00101016041680D4A1140416011
:1020E00001680C4A11400160016821F480210160FF
:1020F000416821F4FE0141604FF41F018160FFF748
:1021000063FF05494FF00060086010BD00100240F9
:102110000000FFF8FFFFF6FE08ED00E02DE9F041BA
:1021200023480188C90740D0018821F001010180BE
:1021300002F0E0FE4FF4C870FFF752FBFFF78CF897
:10214000642001F0C7FE1B480078FEF7D5FF1A484F
:102150001A4D0168286800F0C7FE194C194E1A4F35
:10216000E0623168386803F0DBF8206317483168B3
:102170000268386802F082FF6063D4E90B121144F0
:10218000134C0A1A134E08442260306000F0C6F95E
:1021900011480168286800F057F8002805D1316817
:1021A0002068BDE8F041FFF763BFBDE8F0810000A3
:1021B000102C0140000000200C000020080000202E
:1021C00024010020200000201C000020100000201E
:1021D00024000020280000202C0000204FF0804028
:1021E000018A018A21F001010182704703480188B8
:1021F000018821F0010101807047000010080040B3
:102200000F4A936943F4006393610E4A1080101FD4
:1022100001800C482038018841F0010101800188CB
:1022200041F04001018007482C38018841F001014C
:1022300001800123192203211846FFF725BB000066
:10224000001002402C2C01400F49884211D80F4940
:1022500088420EDC0E48007801280AD00D4840F272
:1022600056410068884204DB0B480068B0F5167FD1
:1022700007DD0A4A012000219160D16051601160A0
:102280007047002070470000000034C20000344254
:10229000010000202C00002004000020B081214219
:1022A00010B540F22551094800F0A5F800280BD0E0
:1022B00003F02AF8A52807D103F026F85A2803D1FD
:1022C000BDE8104003F020B810BD00000038014008
:1022D000F0B53B48008880066DD53948001D02885E
:1022E00038480A2A00F10C01826000DA0A70354B86
:1022F0000F781B1D03F1080693F800C07578B478B9
:102300000020F67867450AD193F801C0654506D1EB
:1023100093F802C0644502D1DB789E420DD0294B70
:1023200093F800C0674511D15F78BD420ED19D780A
:10233000AC420BD1DB789E4208D1234B1C78E4B130
:1023400000241C70087048708870C8701F4B204CA7
:10235000204D214E9AB10127012A12D0052A15D00D
:10236000022A16D0032A14D0042A12D0062A23D017
:10237000072A21D0082A1FD00FE00124E1E71870B6
:1023800000E01F7020702870307006E01870277011
:10239000F9E718702070287037708879C87148790B
:1023A000887108794871C87808718878C870487849
:1023B000887008784870F0BD187020702F70E3E7BF
:1023C00000480040A8000020010000201800002064
:1023D000190000201A0000201B000020C9430180C2
:1023E00070470029818902D041F4005101E021F4B5
:1023F00000518181704730B501F01F020124002592
:10240000C1F3421304FA02F2012B0FD0022B0FD0BA
:10241000838A4FEA11210088134204FA01F400EA8A
:10242000040001D000B10125284630BD8389F0E7C2
:10243000038AEEE710B5C1F3421301F01F04012136
:10244000A140012B07D0022B07D01430002A0268CC
:1024500005D00A4304E00C30F8E71030F6E78A4371
:10246000026010BD30B50446008A85B00D464CF6BA
:10247000FF710840E98801432182A1894EF6F310DB
:102480000140A8882A8910436A890A431043A08121
:10249000A08A4FF6FF410840A9890143A1826846FE
:1024A000FFF7BCFC1B48844201D1039800E002986E
:1024B000A1890904002900EBC00101EB0010296883
:1024C00002DA4FEA410101E04FEA8101B0FBF1F08D
:1024D0006422B0FBF2F14FEA01114FEA11136FF0E1
:1024E00018056B4300EB8300A3891D044FF03203F2
:1024F00006D503EBC000B0FBF2F000F0070005E0EA
:1025000003EB0010B0FBF2F000F00F000843208155
:1025100005B030BD00380140FEE700000A4940F632
:10252000AC5042420B68934201DA0A6002E08342F7
:1025300000DD086005490B68934201DA0A607047C4
:102540008342FCDD08607047240000202800002042
:102550002DE9F04180460846FEF745F9164A174B2B
:10256000FDF7D1FF164D06460C46A869FEF73BF96C
:1025700032462346FDF720FF0C46696807460E46A3
:102580004FF07E50FDF790FEFEF72DF93A462346B8
:10259000FDF7B9FF07460C4631464046FDF78AFE77
:1025A000FEF721F93A462346FDF706FFFEF72EF91E
:1025B000A861BDE8F08100007B14AE47E17A743F6A
:1025C000C80000200FB4054B10B503A9044A0298B7
:1025D00000F090F810BC5DF814FB00001D390008F5
:1025E0005C010020490050EAC12018BF04204A0DB8
:1025F00018BF40F0010040F2FF72B2EB515F08BF1C
:1026000040F00200012808BF052070472DE9F04185
:102610004F1E00EBC7010446D1E9000115461E46D6
:1026200037F006020DD02A463346FDF76CFF7F1EB9
:1026300004EBC703D3E90023FDF7BEFE37F0060223
:10264000F1D1022F25D0042F13D0062F18BFBDE8DB
:10265000F0812A463346FDF756FFD4E90A23FDF7F9
:10266000ABFE2A463346FDF74EFFD4E90823FDF7BB
:10267000A3FE2A463346FDF746FFD4E90623FDF7BD
:102680009BFE2A463346FDF73EFFD4E90423FDF7BF
:1026900093FE2A463346FDF736FFD4E90223FDF7C1
:1026A0008BFE2A463346FDF72EFFD4E90023BDE812
:1026B000F041FDF781BE0000024A00201107FEF73D
:1026C00003B8000001FDFFFF02E008C8121F08C1A7
:1026D000002AFAD170477047002001E001C1121FA3
:1026E000002AFBD1704700000149086070470000D4
:1026F000600100202DE9FF4F89B09B46044600256C
:1027000097E0252833D10027641C4E49B8460122A2
:102710002378203B02FA03F0084202D00743641CEE
:10272000F6E720782E2819D114F8010F47F0040796
:102730002A280ED06FF02F022078A0F1300109294D
:102740000CD808EB880102EB410100EB0108641C86
:10275000F2E70A98641C50F8048B0A90207800284D
:102760006BD0642808D0692806D0752820D05A4636
:102770000B9990476D1C5BE00A994FF00A0901C95B
:102780000A91002804DAC0F100004FF02D0102E0A8
:10279000390504D52B218DF82010012103E0F9071C
:1027A00004D02021F7E78A4608AE0EE00021FAE7C0
:1027B0000A994FF00A0901C90A91F7E74946FEF75D
:1027C00041F801F1300106F8011D0028F6D1ADEB0A
:1027D000060000F12009780701D44FF00108C84530
:1027E00002DDA8EB090000E000208046002706E09B
:1027F00008A85A46C05D0B9990476D1C7F1C574531
:10280000F6DB04E030205A460B9990476D1CB8F176
:102810000001A8F10108F5DC05E016F8010B5A46A5
:102820000B9990476D1CB9F10001A9F10109F4DC85
:10283000641C207800287FF464AF0DB02846BDE802
:10284000F08F0000092801002DE9FE4F07460E46D3
:102850000025684601F06CF800246FF00F0AE84686
:102860004FF0010957F8240056F82410401A00D5FB
:102870004042FDF740FF5146FDF792FD58F8241005
:1028800011F0FF4F0BD0FDF74BFD4FF07E51FDF7E0
:102890000BFD0A4920F00040884205DC07E00849AA
:1028A00008440849884202D309FA04F00543641C2D
:1028B000032CD7DB2846BDE8FE8F0000295C0F3EC5
:1028C000666666C19A99D9002DE9F04D904F21F0C6
:1028D000004A86B005460C46BA4530DBAAEB070035
:1028E00028430CD08B48824501DC1CD1DDB106B0F9
:1028F0002846BDE8F04D4FF00102FDF7E5BE864ADF
:10290000864B2846FDF7FFFD07460E46844A854B59
:1029100028462146FDF7F7FD06B03A463346BDE8A6
:10292000F04DFDF749BD0120FFF7DEFE06B00022A5
:10293000BDE8F04D134610461146FDF756BE7A48E5
:10294000824542DABAF1795F0BDA2846FFF74AFE90
:10295000042808BFFFF7B0FE284606B02146BDE8B0
:10296000F08D2A460B461046FDF7CDFD8346024604
:102970006E480E460B4606217844FFF747FE5A463E
:102980003346FDF7C0FD804669488A465A463346BD
:1029900004217844FFF73AFE5A463346FDF7B3FD6B
:1029A00000223B46FDF708FD02460B4640465146D5
:1029B000FDF71BFE2A462346FDF7A5FD06B02A4675
:1029C0002346BDE8F04DFDF7F7BC284624F0004152
:1029D00000223D463B46FDF793FD4FF0FF32FDF7E9
:1029E00073FE0646024653480F460B4606217844BE
:1029F000FFF70CFE32463B46FDF785FDCDE90001B1
:102A00004D4832463B4604217844FFF7FFFD3246ED
:102A10003B46FDF778FD00222B46FDF7CDFC8346B3
:102A200002913046394602F001FB804643480D468C
:102A3000504517DCDDE900015A46029BFDF7D5FD44
:102A400042462B46FDF75FFD42462B46FDF7B4FCA0
:102A50000122FDF739FE304A304BFDF74EFD304A7A
:102A6000304B4CE04FF0000A52460B464046FDF713
:102A7000A3FCCDE9031052462B4610461946FDF73C
:102A800042FD32463B46FDF73BFDDDE90332FDF7F3
:102A9000ACFD06460F46DDE900015A46029BFDF7F4
:102AA000A4FD83460091012230463946FDF70CFE15
:102AB000194A1A4BFDF724FD06460F4601224046EF
:102AC0002946FDF701FE5A46009BFDF71CFD3246E4
:102AD0003B46FDF712FD07460E46012250462946A9
:102AE000FDF7F2FD0E4DDFF858802A464346FDF70C
:102AF00007FD3A463346FDF703FD2A464346FDF7F8
:102B0000FFFC002CD8BF81F0004106B0BDE8F08D7D
:102B10000000F03F0000F07F075C143326A6913CD4
:102B2000182D4454FB21F93F0000E03F9441000080
:102B3000AA4100001E410000344100003333EF3F42
:102B4000FB21E93F2DE9F84F04460D4621F00040F6
:102B500000917449884213DB7349884201DC08D133
:102B60003CB120462946BDE8F84F4FF00102FDF781
:102B7000ABBD6E48002DCCBF6D496E49BDE8F88FE6
:102B80006D49884211DA6D498842A8BF4FF0FF367F
:102B90006DDA20462946FFF725FD042808BFFFF718
:102BA0008BFD20462946BDE8F88F6549654F25F025
:102BB0000045884233DA6449884219DA00263246F1
:102BC0004FF0804320462946FDF7F6FB80468A46B3
:102BD000012220462946FDF777FD00223B46FDF7FE
:102BE0008CFC42465346FDF700FD04460D463EE090
:102BF00001260022BA463B4620462946FDF7DCFB6B
:102C000080460F460022534620462946FDF775FCB4
:102C100042463B46FDF7E9FC04460D4627E04B499A
:102C200088421BDADFF8288102260022434620462C
:102C30002946FDF768FC00223B46FDF7BDFB074631
:102C40008A460022434620462946FDF756FC3A466E
:102C50005346FDF7CAFC04460D4608E0032622460B
:102C60002B4600203B49FDF7C0FC04460D4622469A
:102C70002B4610461946FDF746FC8B468246024617
:102C80000B46FDF740FC07460246334888460B4694
:102C900006217844FFF7BAFC52465B46FDF733FC49
:102CA00082462E488B463A46434605217844FFF734
:102CB000ADFC3A464346FDF726FC02460B46002E85
:102CC000504659460CDAFDF777FB22462B46FDF7B6
:102CD0001AFC01B022462B46BDE8F04FFDF710BCB0
:102CE000FDF76AFB22462B46FDF70DFC1C4A7A4491
:102CF00002EBC603D3E90023FDF7FFFB22462B4678
:102D0000FDF7FBFB174A7A4402EBC603D3E9002325
:102D1000FDF7F6FB009A002AB8BF81F00041BDE83C
:102D2000F88F0000000010440000F07F182D44547C
:102D3000FB21F93FFB21F9BF0000DC3F0000203EF2
:102D40000000F33F0000F03F0000E63F008003403A
:102D50000000F83F0000F0BF323F0000F03E0000EE
:102D60008E3E0000563E00002DE9F04D9446CCF119
:102D7000000423F000464CEA0404524F46EAD4749F
:102D80009A46884621F00042BC4206D8454240EAB5
:102D9000050442EAD474BC4204D9BDE8F04D624651
:102DA000FDF70ABBAAF14055A5F17F6555EA0C0471
:102DB0000BD0022404EAAA74434DDFF810E144EA80
:102DC000D87452EA000B04D00CE0BDE8F04DFFF7D8
:102DD000B9BE002C14BF012CBDE8F08D022C30D000
:102DE000032C32D056EA0C0B0AD0BE4220D1BA4294
:102DF00009D126F0804622F080423346114617E082
:102E000000291ADB25E0DFF8C8B0FB44002C04BF22
:102E1000DBE90001BDE8F08D012C02BFDBE9000118
:102E200081F00041BDE8F08D022C0AD0032C0CD0BB
:102E3000BA4212D1B8F1000F0BDA23482549BDE898
:102E4000F08D28462449BDE8F08D28467146BDE83E
:102E5000F08D1D482149BDE8F08D921B12153C2ACA
:102E6000C4BF19481D490EDCBAF1000FBEBF12F1F4
:102E70003C0F0020014606DB6246FDF7B6FB21F061
:102E80000041FFF75FFE002C08BFBDE8F08D012C6C
:102E900004BF81F00041BDE8F08D114A114B022CB6
:102EA00007D0FDF72AFB2A46BDE8F04D0A4BFDF797
:102EB00024BBFDF722FB2A46BDE8F04D064BFDF78B
:102EC0001FBB00000000F07F182D4454FB2109C0F7
:102ED000EA3D0000FB21F9BFFB210940FB21F93F3E
:102EE000075C143326A6A13C70B50D464FF07C510B
:102EF000FDF788F90446124806782846FDF773FC6A
:102F0000012E07D90F4A104BFDF7FDFA0D46064674
:102F10000E4907E04FF033320D4BFDF7F4FA0D4642
:102F20000C4906462046FDF7C5F9FDF75CFC324624
:102F30002B46FDF741FABDE87040FDF735BC0000B7
:102F400000000020A4703D0AD7A3C03F000020422B
:102F50003333C33F000004424FF0E0210A6922F0FE
:102F600004020A610649C00800EB40020870C2EB87
:102F7000C0104FF6FF7202EAC000488070470000A0
:102F8000480000200849498848434FF0E021486143
:102F90000020886101220A610A69D30701D0D203A7
:102FA000FAD508618861704748000020084909780F
:102FB00048434FF0E02148610020886101220A6106
:102FC0000A69D30701D0D203FAD508618861704736
:102FD0004800002008B560B120208DF800002820AE
:102FE0008DF8010030208DF8020038208DF80300A4
:102FF00004E0A32204216846FDF7E5F86A460421AF
:1030000040F69E2001F00EFE01F0D4FA08BD00004B
:103010003EB5044602208DF80000CA208DF801005C
:10302000E3208DF8020009208DF803006A46042190
:10303000682001F0F7FDA3208DF80000610609D596
:10304000C0218DF80110C8218DF80210C2218DF821
:10305000031005E08DF801008DF802008DF80300E3
:1030600014F4C07F09D0C4218DF80410CC218DF850
:103070000510C6218DF8061005E08DF804008DF8C6
:1030800005008DF806008DF808008DF807008DF812
:1030900009006A460A2140F6A72001F0C3FDA007F7
:1030A0004FF0D80503D020208DF8000001E08DF806
:1030B00000506A46012140F6B62001F0B3FDA0069B
:1030C00001D5012000E0002000F08EF814F4C07F4C
:1030D0001ED0E0050AD5B2208DF800008B208DF8B7
:1030E0000100B6208DF802009B2009E0B0208DF889
:1030F000000080208DF80100B4208DF8020090209F
:103100008DF803006A46042140F6A22001F08AFDF2
:10311000E1074FF40B6022D0F8218DF800106A46C9
:10312000012101F07FFDFA21072000F043FB072079
:1031300000F00EFB012000F02BFB642000F0CEFB22
:103140004FF4FA7000F0DAFBC821254800F0C8FA05
:10315000282000F0DDFA0A2000F0EAFA05E08DF8F8
:1031600000506A46012101F05DFDA00703D5D9207A
:103170008DF8000001E08DF800506A46012140F210
:103180003D7001F04FFD600701D5012000E00020F7
:1031900000F04CF8E00601D5012000E00020FFF728
:1031A00019FF104D44F00800688101F003FA002077
:1031B000A873600601D50620A87314F4C07F02D05E
:1031C000A87B801DA87314F0140F02D0A87B1030C8
:1031D000A873A00702D0A87B001DA87300203EBDE5
:1031E00009E3CA02640100200EB54FF4976320B1D1
:1031F00008A207CA8DE8070006E009A2D2E900107C
:1032000092680091CDE901026A460921184601F051
:1032100009FD0EBDB8AAB38DB4980D355D00000050
:10322000B8AAAAAAB088C3C5C700000008B560B193
:10323000C0208DF80000C2208DF80100C4208DF858
:103240000200C6208DF8030004E08B2204216846AA
:10325000FCF7B9FF6A46042140F6982001F0E2FC31
:1032600001F0A8F908BD0000C8234FF480620249AC
:1032700040F6F63001F080B8B25400082DE9FF4F57
:1032800089B01746DDE9165200244C4E8846814627
:103290002C80A246B07B694601F01AF94FF0FF3B43
:1032A00018B158460DB0BDE8F08F708910F0140FBA
:1032B0003CD0009909BA21F0FF039DF803100B439D
:1032C0003B6001991B1409BA21F0FF029DF8071019
:1032D0005B430A437A6002999DF80B4009BA21F0DA
:1032E000FF012143B960039C091424BA24F0FF0CA8
:1032F0009DF80F4012144CEA040CC7F80CC04FEABA
:103300002C47494302FB023207FB071111441024EA
:10331000A1F17061B1F1007F04D901F04BF9A5F87A
:1033200000A0BEE7298841F48071298042066946E1
:1033300011D50A19A41D13885BBAA8F80030538868
:103340005BBAA8F80230928852BAA8F804202A88FA
:1033500042F008022A8010F4C07F11D00A19A41D7F
:1033600013885BBAA9F8003053885BBAA9F8023019
:10337000928852BAA9F804202A8842F070022A8062
:10338000800716D00C44E07800F0C00500F03F0143
:103390006078C00706D0C80801F007013268491CF0
:1033A00002B190476078000703D5716809B1A80998
:1033B00088470C9800F012FB002073E7640100209E
:1033C0002DE9FF41044603A800F08CFEBDF80C0077
:1033D0004FEA50414FEAC0333048028902F00300FF
:1033E000550754F8200001D5C0F10000C2F3C10513
:1033F000960654F8255001D5C5F10005C2F3811693
:10340000D20554F8264000D56442A0FB0367C217DA
:1034100002FB037200FB0120820042EA9670A5FBCA
:103420000367EA1702FB037205FB0122950045EAD8
:103430009672A4FB0367E51705FB037304FB0131D8
:103440008B0043EA9671030E8DF80030030C8DF863
:103450000130030A8DF802308DF80300100E8DF84C
:103460000400100C8DF80500100A8DF80600080EF7
:103470008DF80800080C8DF80900080A8DF80A007C
:103480008DF807208DF80B106A460C214FF425703B
:1034900001F0C8FB04B0BDE8F08100006401002029
:1034A00030B5044613A285B007CA8DE807004FF077
:1034B000FF35C82C16D8C820B0FBF4F1491E080A05
:1034C0008DF80C008DF80D1003AA022140F2162091
:1034D00001F0A8FB30B96A460C2140F6C12001F08A
:1034E000A1FB10B1284605B030BD054884810020FD
:1034F000F9E70000FEF2ABC4AAF1DFDFBBAFDFDF0C
:1035000064010020F8B53149098901F0030250F83F
:1035100022404A0701D5C4F10004C1F3C1028B0661
:1035200050F8222001D5C2F10002C1F3811350F8F6
:103530002330C80500D55B42254984FB0140850046
:1035400045EA947082FB0142A40F44EA820483FBA3
:103550000121950F45EA8105010E8DF80010010C3F
:103560008DF80110010A8DF802108DF803006A46EB
:1035700004214FF4747001F055FB4FF0FF3688B909
:10358000200E8DF80000200C8DF80100200A8DF827
:1035900002008DF803406A4604214FF4757001F073
:1035A00041FB08B13046F8BD280E8DF80000280C0C
:1035B0008DF80100280A8DF802008DF803506A4644
:1035C00004214FF4767001F02DFBF8BD640100205A
:1035D00009E3CA022DE9FF4104463CA004F00303BD
:1035E000006802903AA0006803903AA006683AA0EA
:1035F000056802A8C15C8DF80010C4F3C101425CEB
:103600008DF80120C4F38112805C8DF8020003A8BC
:10361000C35C8DF80430415C8DF80510805C8DF83A
:1036200006006A46032140F2264001F0FBFA4FF003
:10363000FF37E0BB01AA032140F22A4001F0F2FA71
:10364000A8BBCDE9006560070BD59DF8000040F0F0
:1036500001008DF800009DF8040040F001008DF895
:103660000400A0060BD59DF8010040F001008DF884
:1036700001009DF8050040F001008DF80500E0050F
:103680000BD59DF8020040F001008DF802009DF876
:10369000060040F001008DF806006A4603214FF451
:1036A000886001F0BFFA10B901AA032100E004E02C
:1036B00040F2314001F0B6FA18B1384604B0BDE826
:1036C000F081064804810020F8E700004CCD6C0032
:1036D0000CC92C0036567600264666006401002090
:1036E0004FF47A7290FBF2F008B54843010E8DF862
:1036F0000010010C8DF80110010A8DF802108DF8F0
:1037000003006A4604214FF4AE7001F08BFA08BD45
:103710000521B0FBF1F008B5010A8DF800108DF815
:1037200001006A4602214FF4AD7001F07BFA08BD3A
:103730000521B0FBF1F008B5010A8DF800108DF8F5
:1037400001006A4602214FF4AC7001F06BFA08BD2B
:1037500008B500218DF80010C10702D030218DF886
:103760000010810705D59DF8001041F00C018DF87F
:103770000010400705D59DF8000040F003008DF8CB
:1037800000006A4601214FF4A47001F04BFA08BD15
:1037900008B560B1042800D90420401E8DF800004F
:1037A0006A46012140F24F1001F03CFA08BD0120A9
:1037B000F3E700002DE9FC41054640074FF0FF36D6
:1037C0007CD0B1F5C86F79D80846FCF79DFF3E491B
:1037D000FCF7A6FD074601A800F066FC9DF8040072
:1037E000022806D004280DD008282ED0102865D134
:1037F00034E00E213846FCF7D3FDFCF7C1FF84B25C
:10380000324907E00D213846FCF7CAFDFCF7B8FF46
:103810002F4984B23846FCF74DFDFCF7B1FF210A71
:103820008DF8001080B28DF80140010A8DF8021069
:103830008DF80300E8076C4620D0224602214FF4A1
:10384000EA7001F0EFF9C8BB11E00C213846FCF733
:10385000A7FDFCF795FF84B21E49DBE70B21384634
:10386000FCF79EFDFCF78CFF84B21B49D2E7A21C3B
:1038700002214FF4927001F0D5F9F8B9A8070DD5DF
:103880006A4602214FF4EC7001F0CCF9B0B9A21CE9
:1038900002214FF4947001F0C5F978B9680710D58A
:1038A0006A4602214FF4EE7001F0BCF930B9A21C57
:1038B00002214FF4967001F0B5F910B13046BDE821
:1038C000FC810020FBE70000000048430000404668
:1038D0000000C045000040450000C0440521B0FB89
:1038E000F1F008B5010A8DF800108DF801006A4664
:1038F00002214FF4EF7001F095F908BD0521B0FBEE
:10390000F1F008B5010A8DF800108DF801006A4643
:1039100002214FF4ED7001F085F908BD034AC1B2F0
:103920001180111F0A885206FCD5704704380140E7
:103930002DE9FE430646264801AB042240680D21CE
:10394000007800F041FA10B10720BDE8FE839DF831
:1039500004101C2000EAD1029DF80710DFF87490D3
:10396000C1F301131A438DF800209DF80520C1F31F
:10397000810300EAD2021A438DF801209DF8062047
:1039800001F0030100EAD20008430024124F8DF831
:103990000200A0466D46285D10B146F824900AE06A
:1039A00046F824800DE000BF56F824003946FCF7A5
:1039B00081FC46F82400285D401E10F0FF002855C9
:1039C000F2D1641CE4B2032CE5D30020BDE7000073
:1039D0004C0000207B14AE3E1D5A843F704700000F
:1039E0002DE9FE4F05460120C14E8DF800004FF035
:1039F00000088DF8018030680C461746817C70689D
:103A00006B460222007800F017FA4FF0FF3A0028C8
:103A10007AD1C820FFF7B6FA8DF8008030686B467F
:103A20000122C17B7068007800F006FA0028EFD10F
:103A300030686B46012241797068007800F0FCF92B
:103A40000028E5D130686B460122817C70680078DF
:103A500000F0F2F90028DBD130686B460122C17D0D
:103A60007068007800F0E8F90028D1D130686B4622
:103A7000012201797068007800F0DEF90028C7D1D2
:103A80004FF00C098DF8009030686B4601220179E7
:103A90007068007800F0D0F9002835D10F20FFF7CA
:103AA00071FAB06A6B460122407A8DF800003068E6
:103AB00081787068007800F0BFF9002824D1B06ADE
:103AC0006B460122007A8DF80000306841787068FA
:103AD000007800F0B1F9002873D1B06A807A0FB194
:103AE00040F0E0008DF8000030686B4601228179DB
:103AF0007068007800F0A0F9002862D12FB1B06A98
:103B0000C07A40F0E00001E04AE018208DF80000A3
:103B100030686B460122C1797068007800F08CF93A
:103B2000F0BB17B1C820FFF72DFA40208DF8000038
:103B300030686B46012201797068007800F07CF9EA
:103B400070BB78208DF8000030686B460122417907
:103B50007068007800F070F910BB3220FFF712FA9D
:103B60008DF80080306847466B46417970680122C5
:103B7000007800F061F998B931687068B046897AC8
:103B800000786B46022200F01FF948B9BDF800002A
:103B9000AF6040BAB0FBF9F06F60C6B22F6000E0D2
:103BA0000FE0A76067602760002739E0D8F80010B1
:103BB000D8F804006B46C97A00780C2200F004F9AA
:103BC00010B15046BDE8FE8FBDF80000236840BA32
:103BD00002B2BDF80200BDF804101A44226040BAD7
:103BE000626800B21044606049BAA06809B2084433
:103BF000A060BDF806002B6840BA02B2BDF808000C
:103C00001A4440BA01B2BDF80A002A606A6840BA94
:103C100011446960A96800B208447F1CFFB2A86023
:103C2000B742C3D328688322C117090441EA10416F
:103C300000040023FCF79AFA32460023FCF796FAB8
:103C4000286068688322C117090441EA1041000412
:103C50000023FCF78BFA32460023FCF787FA6860F2
:103C6000A8688322C117090441EA10410004002317
:103C7000FCF77CFA32460023FCF778FAA86020684B
:103C80004FF40065C117090441EA104100042A46B7
:103C90000023FCF76BFA32460023FCF767FA20603A
:103CA00060682A46C117090441EA10410004002354
:103CB000FCF75CFA32460023FCF758FA6060A06813
:103CC0002A46C117090441EA104100040023FCF709
:103CD0004DFA32460023FCF749FAA060002802DDC5
:103CE000A0F5803001E000F58030A060002069E799
:103CF0004C0000202DE9F84F81462E4888460025CB
:103D000040686B46032200780D2100F05DF810B189
:103D10000720BDE8F88F9DF80000002400F01F0088
:103D20008DF800009DF801006FF00F0B00F01F00F0
:103D30008DF801009DF802006E4600F01F008DF81E
:103D400002004FF0010A00BF59F8241058F824006F
:103D5000081A00D54042FCF7CEFC5946FCF720FB80
:103D60000746305DC0B1144802E01449FCF7A2FADE
:103D7000315D491E11F0FF013155F6D1014638463B
:103D8000FCF7CEFA4FF07E51FCF78EFA0C4920F08A
:103D90000040884205DC07E00A483844B0F1D97F8A
:103DA00002D90AFA04F00543641C032CCCDB284634
:103DB000AFE700004C0000200000C84154E3853FFD
:103DC000295C0F3E0000E0BE2DE9F0411D4614467F
:103DD0000F460646FDF748FBB0B17006000EFDF732
:103DE00013FBFDF785FB90B13846FDF70DFBFDF7A2
:103DF0007FFBFDF739FB012000EB4600C0B2FDF769
:103E000003FBFDF775FB0FE00120BDE8F081FDF736
:103E100053FBF9E7012C0DD05FF00100FDF7BEFA6E
:103E2000641E05F8010BE4B2002CF3D1FDF744FB4E
:103E30000020EAE70020F1E72DE9F0411E46154693
:103E40000F460446FDF710FB68B16006000EFDF753
:103E5000DBFAFDF74DFB48B13846FDF7D5FAFDF723
:103E600047FB00240CE00120BDE8F081FDF724FBB6
:103E7000F9E7305DFDF7C8FAFDF73AFB10B1641CB5
:103E8000AC42F6DBFDF718FB0020EDE790F90010DF
:103E9000002902DD4FF00000704702DA4FF0040005
:103EA000704790F90110002902DD4FF001007047C2
:103EB00002DA4FF00500704790F90200002802DD99
:103EC0004FF00200704702DA4FF0060070474FF0E3
:103ED0000700704730B51D4BD3F814211C490C78EE
:103EE00022434FF0010400D10C704D78002285B9B7
:103EF0000D78012D03D18D786D1C8D704C708C78F0
:103F0000022C06D1134C257845B1002525708A7006
:103F10008A80D3F81431012B02D003E00125F5E7A4
:103F20000A704A708B78012B0CD18B885B1C9BB27A
:103F30008B80834206D90848037823B1002303709D
:103F40008A708A8030BD0123F9E700000080214299
:103F5000BC00002002000020010000200748816909
:103F600041F0080181610648016821F00F010160FC
:103F7000016841F003010160704700000010024039
:103F8000040C0140FEF7A2F84820FEF7E5FF01F01F
:103F900065F94FF41651482001F0FEF80220FDF7B4
:103FA00045FB0120FDF742FBFFF7D8FFFDF752FB71
:103FB000FCF7E8FD002140F60F60FDF793FCFDF7EC
:103FC00071FDFCF767FFFCF7CFFFC820FEF7DAFFB3
:103FD000FDF7B2F9FDF716FCFCF74AFE41F61F416A
:103FE0003120FEF70DF9184C207801281CD1FDF77F
:103FF0005FFF1648164D0068A060B5F90200FCF797
:104000007AFBE060B5F90400FCF775FB2061B5F9B7
:104010000600FCF770FB6061FDF7A4FF6060A0780C
:10402000012801D100F036FE6078012802D0207806
:104030000128D9D9FDF796FF6060A0780128D3D177
:1040400000F028FED0E70000000000208C000020D7
:10405000900000202DE9F041124C20F001010025D4
:1040600094F8240010B10020BDE8F081A07A4FF050
:10407000FF3668B10840277C2074884200D035465E
:1040800041B1012000F0A6FF00F094FA38B1277486
:104090003046E9E7207D00B1012000F09BFF284673
:1040A000E2E700004C0000200D494A7A42B1012AA3
:1040B00008D0022A0FD0032A0FD04FF0FF307047EC
:1040C000022200E004220270C97C11B11106C90D60
:1040D0000170002070470822F5E71022F3E7000086
:1040E0004C0000200F494A7A42B1012A09D0022A25
:1040F00011D0032A12D04FF0FF3070474FF48042A6
:1041000001E041F69C720280C97C11B1C2F34E01FC
:104110000180002070474FF48052F4E74FF40062B2
:10412000F1E700004C0000200B49097A39B1012960
:1041300007D002290AD003290BD0002103E0FA217D
:1041400001E04FF4FA710180002070474FF47A715A
:10415000F9E74FF4FA61F6E74C0000200A49097AC2
:1041600041B1012908D002290AD003290AD04FF011
:10417000FF307047054900E00549016000207047A5
:104180000449FAE70449F8E74C0000200000034323
:104190000000834233330342333383410C49C97AED
:1041A000072913D2DFE801F01204060A0C0E1000F2
:1041B000BC2100E062210180002070472A21FAE73B
:1041C0001421F8E70A21F6E70521F4E70021F2E7D8
:1041D0004C000020054991F8242012B14FF0FF3027
:1041E0007047C98901800020704700004C00002002
:1041F0002DE9FC414C4C80208DF8000020686B4676
:104200000122817C60680078FFF716FE4FF0FF37CF
:10421000002832D16420FEF7B5FE00258DF800504D
:1042200020686B460122817C60680078FFF704FEFD
:10423000002871D120686B460622817D6068007875
:10424000FFF7C2FD002867D19DF805009DF8031017
:10425000C007400F01F0010140EA41019DF8010053
:104260004FF0010600F00100014309D0012905D0FB
:10427000022916D02DA0FEF7A5F94DE0E67411E055
:1042800020686B460122C17860680078FFF79CFDCA
:10429000002841D19DF8000010F00F0020D0042824
:1042A00022D0E574FF2004F80A0F4FF6FF7104F8DE
:1042B000020C04F8010C6070A180A0712072A6703D
:1042C00026766576E572A572E56025616561A5765D
:1042D000E576A5834FF4FA6000F06AFBE0B907E0E9
:1042E0001C48FEF76FF917E01BA0FEF76BF9C5E756
:1042F000022000F07FFA78B92A2000F0C1FB58B9FB
:10430000322000F0F3FB38B90020FFF7A3FE18B904
:10431000002000F0A3FA10B13846BDE8FC8100206F
:1043200000F024FC0020F8E74C000020556E737567
:1043300070706F7274656420736F667477617265F4
:104340002070726F64756374207265762025642E08
:104350000A0000006454000848616C662073656EB2
:104360007369746976697479207061727420666FFC
:10437000756E642E0D0A00002DE9FF4FDFF8948062
:10438000064685B098F8250015460F464FF0FF39D0
:10439000B0BBAFB3002420E0301B102800DD10209C
:1043A00080B283463A1901469246204600F03AFC14
:1043B00030BB6A465946204600F0D2F800BB504652
:1043C0005A466946FBF711FF20B16FF0010009B0B2
:1043D000BDE8F08F04EB0B0084B2B442DCD3280AB2
:1043E0008DF810008DF81150D8F80000444604AB49
:1043F000817ED8F8040002220078FFF71DFD08B185
:104400004846E4E7012084F825000898E08400206D
:10441000DDE700004C0000202DE9F84305464FF091
:10442000FF39282844D80727284C00267DB10120D1
:1044300000F0F4FA20208DF800004FF00108012D63
:1044400017D0052D18D88DF8018005201FE0002019
:1044500000F0E4FA8DF800608DF8017020686B467A
:104460000222817C60680078FFF7E6FC00BB2675BD
:1044700029E08DF80160E8E7142D04D802208DF8BA
:1044800001000A2003E003208DF80100142000F051
:10449000F7FA9DF801006B4607EB80108DF80100DC
:1044A00020680222817C60680078FFF7C5FC10B1AB
:1044B0004846BDE8F8830820A072267384F814806B
:1044C0000020FFF7C7FD0020F3E700004C000020AC
:1044D0002DE9F843214C0646174694F824008946F6
:1044E0004FF0FF3890B3A07A80B320686B46022269
:1044F000817A60680078FFF767FC38BBBDF8000080
:1045000045BAB54202D2002038701FE06068418889
:10451000B5EB510F11D9216800786B46497C012217
:10452000FFF752FC90B99DF80000C00605D500F0D9
:1045300041F86FF00100BDE8F8832068F2B24B4605
:10454000C17A60680078FFF73FFC08B14046F2E7A7
:10455000B5FBF6F0401E38700020ECE74C00002060
:10456000F8B516000D464FF0FF371FD0104CA17A5A
:10457000E1B1010A8DF80010C0B28DF801004119B7
:1045800060684289914211D8216800786B46097EA3
:104590000222FFF751FC48B92068EAB23346417D58
:1045A00060680078FFF710FC002800D03846F8BD9E
:1045B0004C000020F8B5524C4FF0FF36A07A00288E
:1045C0007CD000258DF8005020686B460122C17B0D
:1045D00060680078FFF730FC00286FD120686B46D8
:1045E0000122417960680078FFF726FC002865D138
:1045F00020686B460122017960680078FFF71CFC97
:1046000000287AD194F82400C0B30C208DF8000063
:1046100020686B460122017960680078FFF70CFC86
:1046200000286AD1C0208DF80000A07AC00702D00F
:10463000E0208DF8000020686B4601220179606857
:104640000078FFF7F9FB002857D1607C18B10220F1
:104650008DF8000001E08DF8005020686B460122C3
:10466000C17B60680078FFF7E7FB38BB8DF800502E
:1046700020686B4641796068007839E0FFE70420E4
:104680008DF8000020686B4601220179606800788F
:10469000FFF7D2FB90B9A07C88B9A07AC0070ED0F2
:1046A0005FF060008DF8000020686B460122017900
:1046B00060680078FFF7C0FB00B902E01DE0402011
:1046C000F0E7607C18B101208DF8000001E08DF862
:1046D000005020686B460122C17B60680078FFF7BC
:1046E000ABFB50B92068064B417960681033007805
:1046F0000122FFF7A1FB002800D03046F8BD0000E2
:104700004C0000202DE9F047394C82468AB094F8DD
:1047100024000F4620B1002000F00EF9012600E031
:10472000002607A8FFF700FD06A8FFF7BDFC09A8B3
:10473000FFF734FD08A8FFF74DFD94F80A9094F8B0
:1047400010800025002239465046FFF749F910B184
:104750006D1C022DF6DB022D1AD00025012203A9C3
:104760006846FFF73DF910B16D1C022DF6DB022DF6
:104770000ED003A93846FEF767F8C7B2694650461F
:10478000FFF7B8FA10F0FF0F4FF0000502D002E07B
:10479000002503E001250FB945F00205FF20207236
:1047A0006072E0724FF6FF71E181A0722074012007
:1047B0002073BDF81C0000F0FBF89DF8180000F015
:1047C00019F8BDF8240000F05BF9BDF8200000F0F6
:1047D0008DF9484600F0CAF94046FFF73BFC16B198
:1047E000012000F0A9F80AB02846BDE8F0870000D3
:1047F0004C00002038B5184C4FF0FF35A17A19B3A2
:10480000022806D0042806D008280ED010281BD174
:104810000DE0002000E008208DF80000607A9DF88F
:104820000010B0EBD10F04D005E01020F4E7182001
:10483000F2E7002038BD20686B460122C17960682C
:104840000078FFF7F9FA08B1284638BD9DF8000056
:10485000C0086072EDE700004C000020F8B5354C50
:104860000546A07CA84201D10020F8BD31484FF098
:10487000FF366B46D0E900104FF00102097900784D
:1048800035B3FFF7A1FA70BB9DF800006B4620F02E
:1048900020008DF80000206801220179606800780E
:1048A000FFF7CAFAF8B90320FEF76CFB02208DF877
:1048B000000094F8220078B382202BE020686B4639
:1048C0000122017D60680078FFF7B6FA58B92EE042
:1048D000FFF77AFA38B9A07AC0079DF8000003D034
:1048E00040F0200002E00CE020F020008DF80000F5
:1048F00020686B460122017960680078FFF79CFA16
:1049000008B13046F8BD0320FEF73CFB94F82200C6
:1049100000B180208DF8000094F823000028CDD04D
:104920009DF8000040F030008DF80000C6E7A57447
:104930009AE700004C00002038B51C4C94F8241075
:1049400081421DD0002500B394F82500D0B100208D
:1049500000F040FB0020FFF781FFE08C00F0C6F87C
:104960008DF8005060686B46012200782321FFF724
:1049700063FA012084F8240000F02CFBFFF71AFEF4
:10498000002038BD4FF0FF3038BD002000F022FB82
:10499000207C8DF8000060686B460122007823219E
:1049A000FFF74AFA84F82450E8E700004C000020A2
:1049B00038B5194C4FF0FF35A17A31B3FA2809D038
:1049C000B0F5FA7F08D0B0F57A7F0FD0B0F5FA6F66
:1049D0001BD10DE0002000E008208DF80000207AB7
:1049E0009DF80010B0EBD10F04D005E01020F4E7E3
:1049F0001820F2E7002038BD20686B46012281793B
:104A000060680078FFF718FA08B1284638BD9DF8AD
:104A10000000C0082072EDE74C00002038B5174CAC
:104A2000054694F82300A84201D1002038BD0DB1FD
:104A3000302000E000208DF80000A07C28B19DF817
:104A4000000040F002008DF8000094F8220028B128
:104A50009DF8000040F080008DF8000020686B4653
:104A60000122017D60680078FFF7E6F910B14FF090
:104A7000FF3038BD84F82350D7E700004C000020F9
:104A800038B5194C4FF0FF35A17A31B3BC2801D3AA
:104A9000012010E0622801D302200CE02A2801D373
:104AA000032008E0142801D3042004E00A2801D3DD
:104AB000052000E006208DF80000E07A9DF8001047
:104AC000884201D1002038BD20686B4601228178E0
:104AD00060680078FFF7B0F908B1284638BD9DF846
:104AE0000000E072EEE700004C000020F8B51E4D1B
:104AF00004464FF0FF37A87A48B395F8240030BB3E
:104B0000287D4FF47A7648B164B1282C03D8E0B2FE
:104B1000FFF782FC26E00020FFF77EFC042C05D284
:104B2000042406E00020FFF777FCF9E7B44200D93F
:104B30003446B6FBF4F0401E8DF8000028686B4642
:104B40000122417868680078FFF776F908B13846A5
:104B5000F8BD9DF80000401CB6FBF0F0E88140086D
:104B6000FFF78EFF0020F8BD4C000020F8B5054689
:104B700010F0700F4FF0000601D0012004E015B1D5
:104B80008DF8006002E040208DF80000244C6B4658
:104B900001222068817C60680078FFF74DF94FF0B2
:104BA000FF3760BB9DF8000020F0400020738DF8B7
:104BB0000060680602D404208DF80000A80605D421
:104BC0009DF8000040F002008DF80000E80605D4D2
:104BD0009DF8000040F001008DF80000280705D482
:104BE0009DF8000040F038008DF8000020686B460A
:104BF0000122C17C60680078FFF71EF910B1A6722F
:104C00003846F8BD25B1082D02D00020FFF706FF79
:104C1000A57226753220FEF7B5F90020F8BD000018
:104C20004C000020F8B516000D464FF0FF371FD09E
:104C3000104CA17AE1B1010A8DF80010C0B28DF8D4
:104C40000100411960684289914211D821680078B9
:104C50006B46097E0222FFF7EFF848B92068EAB2F6
:104C60003346417D60680078FFF7E6F8002800D001
:104C70003846F8BD4C000020002800DA404270475A
:104C80000246012000E050430B00A1F10101C9B22E
:104C9000F9D17047F8B57C4900204860FCF7B8FEB0
:104CA000002301247F22194618460094FCF7DEFEFB
:104CB00000223F23114610460094FCF7D7FE7F22C6
:104CC0003F23002110460094FCF7D0FE3F237F22B3
:104CD000194600200094FCF7C9FE6CA200210120B7
:104CE000FDF73AF86B4D0C24009401232A7800213B
:104CF0001E20FCF7F5FF2878012804D0022804D0F4
:104D0000032804D008E064A202E064A200E065A2E7
:104D100000212D20FDF720F864A20A210120FDF7D3
:104D20001BF8644D0A2602232868314690FBF6F2F0
:104D30002D200094FCF7D4FF2868012390FBF6F1A6
:104D400006FB11020A2144200094FCF7C9FF5AA275
:104D50000A213A20FDF700F858A20A215020FCF75A
:104D6000FBFF57A214210120FCF7F6FF564D2868DF
:104D7000002809DA55A214212F20FCF7EDFF00943A
:104D800028680323424207E051A214212F20FCF798
:104D9000E3FF00942A68032314213820FCF7A0FFC6
:104DA0004C4D2868002809DA48A214215520FCF748
:104DB000D3FF009428680323424207E044A2142151
:104DC0005520FCF7C9FF00942A68032314215D20B5
:104DD000FCF786FF40A21E210120FCF7BDFF36A292
:104DE0001E213A20FCF7B8FF3DA21E215020FCF7FF
:104DF000B3FF3C4D6426022328681E2190FBF6F287
:104E00002D200094FCF76CFF2868022390FBF6F13C
:104E100006FB11021E2144200094FCF761FF286864
:104E200090FBF6F106FB11000A2806DA02230022A5
:104E30001E213E200094FCF753FF2BA228210120C5
:104E4000FCF78AFF2A4D286810F1FF4F08D31FA2F4
:104E500028212E20FCF780FF286880F0004005E024
:104E60001BA228212E20FCF777FF2868FBF788FC7F
:104E700002460323282136200094FCF731FFBDE8C9
:104E8000F840FCF7BFBE00001C010020414C472D3C
:104E90000000000000000020444D50004B616C6D8C
:104EA000616E0000487562750000000054656D5029
:104EB00000000000040000202E00000060430000FD
:104EC000456E636F000000001C0000202D000000F4
:104ED0002B00000020000020566F6C746100000061
:104EE000560000002C000020416E676C6500000039
:104EF000080000200B480188002202800307988CDC
:104F00009A84DB13084A984202D9A0F57D40E8381C
:104F1000404210600548994202D9A1F57D41E83927
:104F200001607047240800401C0000202000002081
:104F300010B588B0694604A8FFF7E4FB072835D10F
:104F400007A8FFF70BF90498FBF7D5FB07990C4668
:104F5000FBF7B0F9FBF7FBFB04900598FBF7CBFBE5
:104F60002146FBF7A7F9FBF7F2FB05900698FBF744
:104F7000C2FB2146FBF79EF9FBF7E9FB069004A86C
:104F8000FEF7C0FA03A8FFF7ADF8BDF80C000099D2
:104F9000414300910199414301910299414368467F
:104FA0000291FEF70DFA02A0FDF70CFB08B010BD50
:104FB00073657474696E67206269617320737563C9
:104FC00063657366756C6C79202E2E2E2E2E2E0D39
:104FD0000A000000F8B5144C0146224694F82460FB
:104FE000D2E9000200235D1E56B179B1022111E021
:104FF000C17B10786B460122FEF71EFF68B90EE0F8
:10500000A67A56B111B1617C61B902E08DF8003029
:10501000EEE701218DF80010EAE72846F8BD9DF87B
:10502000000060740020F8BD4C0000202DE9F04124
:1050300006460F46FBF726FD04000D4618BF01206B
:10504000284320F00040C0F17F6000F1E040C00F35
:105050000FD0002E14BF01200020384320F0004064
:10506000C0F17F6000F1E040C00F04BF0120FDF7F8
:105070003BFB20462946BDE8F08100002DE9F047C2
:1050800092463C4A40F2DC533B4F1278DFF8EC90FA
:10509000B3FBF2F53A780026394C05F548754FF028
:1050A0000308012A07D099F80020012A03D0C4E997
:1050B0000886E6611FE0626A521C6262012A01D022
:1050C000E06903E00844FFF7D7FDE0614FF4FA61BF
:1050D00091FBF0F02062032802DAC4F8208003E09C
:1050E0000A2801DD0A202062387801281CD099F8AE
:1050F000000001281CD030466661A84200DD6561D1
:1051000061696842814200DA60611E481E49006898
:105110000968431A1D4801681D480068FDF794F8A6
:105120000028A06A09D00CE0216A6069084402E006
:10513000216A6069401A6061DFE761691844401ABA
:10514000A0624FF4E161884202DC4942884200DA01
:10515000A16210495046FBF7E3F80546A06A4000FB
:10516000FBF7C9FA2946FBF74DF8FBF7F0FAA06107
:10517000BDE8F087000000201A0000201B0000207E
:10518000240100201C000020200000202C00002012
:10519000080000200000404170B505460801FBF7FB
:1051A000B3FA0446294845436808FBF7ADFA21469F
:1051B000FBF7B6F80546FBF7E3FA84B22046FBF7A7
:1051C000A3FA2946FBF773F80421FBF7E9F8FBF78C
:1051D000D7FA4FF6FF7101EA04110A181C488169D9
:1051E00041F008018161C16941F48021C16119491F
:1051F0000B6823F47F430B600B6843F40B430B6095
:10520000144908310B6843F480630B60016941F471
:1052100080210161016921F4802101610E48028031
:10522000001D018842F20C0211430180018841F403
:1052300080710180018841F020010180BDE870404B
:105240000223272203210120FCF71EBB40420F004E
:1052500000100240040C01400848004010B586B020
:10526000012144F20400FCF7CDFD4FF40070ADF8CD
:10527000100018208DF813000320214C8DF8120027
:1052800004A92046FBF7CAFE2015ADF81000042043
:105290008DF8130004A92046FBF7C0FE4FF4E1305F
:1052A00000900020ADF80400ADF80600ADF808004D
:1052B000ADF80C000C20134CADF80A0069462046EE
:1052C000FDF7D0F840212046FDF788F8012240F292
:1052D00025512046FDF7AEF801212046FDF781F863
:1052E00025208DF8140001208DF8150007218DF878
:1052F00016108DF8170005A8FCF742FB06B010BD8C
:105300000008014000380140044801888906FCD5A6
:105310000248001D0088C0B27047000000380140FC
:105320002DE9F0412F48304C4FF00008007801285B
:1053300033D02E480078012831D0C4F80C802C4896
:105340002C490068096845186560A068FBF7E1F919
:10535000294E2A4B3246FBF7D6F8FBF725FA0746CB
:105360002846FBF7D6F93246254BFBF7CCF8054625
:105370000E463846FBF7CDF92A463346FBF71CF8B4
:10538000FBF712FA1F4B204DA06019682868FCF744
:105390005BFF0028206906D00AE01C4801E04FF4BA
:1053A0006170E060CBE7A1680844E168401A2061C1
:1053B0001749884202DC4942884200DA21612069AB
:1053C0008C2190FBF1F0A16800EB8100206019684E
:1053D0002868FCF739FF012801D1C4F81080206843
:1053E000BDE8F081180000202401002019000020F1
:1053F0001C000020200000209A9999999999E93F72
:105400009999C93F2C000020080000207CFCFFFF78
:10541000407E05006800000476005401F7FD00019D
:1054200075191A0C6A231B1C1F207274433B4138E8
:10543000393A6B6C376F06246D6E70008300000084
:1054400000080000000100183200050000002041A3
:105450000000D242295C0F3E9A99993E3333733F44
:10546000295C0F3E50726F6475637420494420724A
:10547000656164206173203020696E6469636174C2
:105480006573206465766963652069732065697456
:1054900068657220696E636F6D70617469626C65B6
:1054A000206F7220616E204D5055333035302E0DF7
:1054B0000A00000070000000002400000002000349
:1054C000000000650054FFEF0000FA80000B12821C
:1054D0000001030C30C30E8C8CE914D5400213710B
:1054E0000F8E3883F8833000F883258EF8833000E0
:1054F000F883FFFFFFFF0FFEA9D6240004001A82E5
:1055000079A10000003CFFFF00000010000038837C
:105510006FA2003E03304000000002CAE3093E8053
:1055200000002000000000000000400000006000BB
:105530000000000C0000000C186E000006920A1615
:10554000C0DFFFFF0256FD8CD377FFE1C496E0C5B4
:10555000BEAA00000000FFFF0B2B00001657000042
:1055600003594000000000001DFA00026C1D0000FD
:1055700000003FFFDFEB003EB3B6000D22780000D5
:105580002F3C00000000001942B5000039A20000C5
:10559000B365D90E9FC91DCF4C34300000005000B8
:1055A00000003BB67AE80064000000C8000000007C
:1055B0000000100000001000FA921000225E000DA2
:1055C000229F0001000000320000FF46000063D46B
:1055D00000001000000004D6000004CC000004CC41
:1055E00000000000107200000040000000000000F9
:1055F0000000000600020005000700000000006433
:10560000000000000000000000050005006400200C
:10561000000000000000000000000000400000004A
:10562000030000000032F8980000FF650000830FBF
:105630000000FF9BFC0000000000000000000000D4
:10564000000000000000000000000000000000005A
:10565000000000000000000000000000000000004A
:10566000100040000000000000060000B26A0002C6
:1056700000000001FB830068000000D9FC007CF101
:10568000FF830000000000650000006403E8006480
:105690000028000000250000000016A00000000007
:1056A000100000001000002F0000000001F40000B6
:1056B000100000280000FFFF4581FFFFFA72000084
:1056C000000000000000004400050005BAC60047C5
:1056D00078A20000000100000000000006000000A9
:1056E00000140000254D002F706D000005AE000C69
:1056F00002D00000000000000000000000000000D8
:105700000000001B0000000000000000000000007E
:10571000000000640000000800000000000000001D
:105720000000000000000000000000000000000079
:105730000000000000000000000000000000000069
:105740000000000000000000000000000000000059
:105750000000000000000000000000000000000049
:105760000000000000000000000000000000000039
:105770000000001B00000000000000000000000E00
:10578000000E00000AC70004000000000032FFFF06
:10579000FF9C00000B2B0000000200000001000035
:1057A0000064FFE5000000000000000000000000B1
:1057B00000000000000100000000000100000000E7
:1057C0000000000180000001800000018000002432
:1057D00026D3000000000000000000060010009624
:1057E000003C00000000000000000000000000007D
:1057F00000000C0A4E68CDCF770950166759C619BC
:10580000CE82000000000000000000000000000048
:105810000000000000000000000017D78400030013
:1058200000000000000000000000C7938F9D1E1BB9
:105830001C19000000000000000000000000000033
:1058400000000000000000000000020318850000B6
:105850004000000000030000000300000000000002
:1058600000004000000000000000000000000000F8
:105870000000000000000000000000000000000028
:105880000000000000000000000000000000000018
:10589000000000000000677DDF7E72902E554CF600
:1058A000E68800000000000000000000000000008A
:1058B0000000D8DCB4B8B0D8B9ABF3F8FAB3B7BBD2
:1058C0008E9EAEF132F51BF1B4B8B08097F1A9DF2E
:1058D000DFDFAADFDFDFF2AAC5CDC7A90CC92C978D
:1058E000F1A989264666B28999A92D557DB0B08A5D
:1058F000A896365676F1BAA3B4B280C0B8A897116C
:10590000B28398BAA3F0240844106418B2B9B498CA
:1059100083F1A329557DBAB5B1A38393F000285034
:10592000F5B2B6AA839328547CF1B9A3829361BAE5
:10593000A2DADEDFDB819AB9AEF5606870F1DABA1F
:10594000A2DFD9BAA2FAB9A38292DB31BAA2D9BA3C
:10595000A2F8DF85A4D0C1BBAD83C2C5C7B8A2DFA2
:10596000DFDFBAA0DFDFDFD8D8F1B8AAB38DB498F3
:105970000D355DB2B6BAAF8C96198F9FA70E161E65
:10598000B49AB8AA872C547CBAA4B08AB69132567D
:1059900076B28494A4C808CDD8B8B4B0F19982A8DE
:1059A0002D557D98A80E161EA22C547C92A4F02C86
:1059B0005078F184A898C4CDFCD80DDBA8FC2DF359
:1059C000D9BAA6F8DABAA6DED8BAB2B68696A6D002
:1059D000F3C841DAA6C8F8D8B0B4B882A892F52CBA
:1059E000548898F135D9F418D8F1A2D0F8F9A884E0
:1059F000D9C7DFF8F883C5DADF69DF83C1D8F401DE
:105A000014F1A8824EA884F311D182F5D992289777
:105A100088F109F41C1CD884A8F3C0F9D1D9978265
:105A2000F129F40DD8F3F9F9D1D982F4C203D8DE03
:105A3000DF1AD8F1A2FAF9A88498D9C7DFF8F8F8E4
:105A400083C7DADF69DFF883C3D8F40114F198A8BB
:105A5000822EA884F311D182F5D992509788F1094A
:105A6000F41CD884A8F3C0F8F9D1D99782F149F48D
:105A70000DD8F3F9F9D1D982F4C403D8DEDFD8F117
:105A8000AD8898CCA809F9D98292A8F57CF1883A1A
:105A9000CF944A6E98DB6931DAADF2DEF9D887959A
:105AA000A8F221D1DAA5F9F417D9F1AE8ED0C0C38E
:105AB000AE82C684C3A88595C8A588F2C0F1F4015A
:105AC0000EF18E9EA8C63E56F554F18872F401156B
:105AD000F19845856EF58E9E0488F142985A8E9E07
