:020000040800F2
:10000000A809002049010008391B00087D140008D8
:100010009D1A00086D0C0008A926000800000000C9
:100020000000000000000000000000006521000842
:100030002D10000800000000A11F00086922000820
:100040006301000863010008630100086301000800
:1000500063010008630100086301000863010008F0
:1000600063010008630100086301000863010008E0
:1000700063010008630100086301000863010008D0
:10008000630100086301000863010008000000002C
:1000900000000000000000000000000063010008F4
:1000A00063010008BD220008630100086301000825
:1000B0007D230008630100088D2300086301000808
:1000C0006301000863010008630100086301000880
:1000D000630100083124000863010008612400085E
:1000E0006301000863010008630100086301000860
:1000F0006301000863010008000000000000000028
:100100000000000000000000630100086301000817
:10011000630100086301000863010008630100082F
:10012000630100086301000863010008630100081F
:1001300063010008DFF80CD000F092FC0048004793
:10014000E1400008A809002006488047064800470B
:10015000FEE7FEE7FEE7FEE7FEE7FEE7FEE7FEE777
:10016000FEE7FEE76D220008350100082DE9F041A9
:1001700000242546002905DA01240027D0EB0700DA
:1001800067EB0101002B05DA0027D2EB07020125FE
:1001900067EB030300F06CFB86460E4617469C4651
:1001A000AC4204D00025D0EB050E65EB010624B16E
:1001B0000020D2EB000760EB030C704631463A4654
:1001C0006346BDE8F081D2B201E000F8012B491E80
:1001D000FBD270470022F6E710B513460A460446E4
:1001E0001946FFF7F0FF204610BD30B50446002049
:1001F000034600E05B1C934203D2E05CCD5C401BF5
:10020000F8D030BDF0B480EA0102D40F4200B2EB66
:10021000410F02D20246084611464A0042D0C30DA1
:10022000DDB2C1F3C752AD1A202D35DAC1F3160184
:1002300041F4000204B15242C5F1200602FA06F16F
:100240002A411044B3EBD05F23D0C4B1012DA0EB01
:10025000C35009DCF0BC4FF0004202EAC35200F583
:100260000000DBB200F06FBB400000F1807000EBDB
:10027000C350A0F1807040EAD170490009E04908FC
:1002800041EAC071A0EBC35000F50000400800EB4C
:10029000C350F0BC00F04EBB6142012202EB4101B1
:1002A000001BF6E7F0BC704781F00041AAE780F040
:1002B0000040A7E780EA010210B502F000434000C9
:1002C00026D04A0023D04FEA106101EB1261C0F33F
:1002D0005600C2F3560240F4000042F40002A0FBB4
:1002E0000220A1F17F014FEA0040140401D000F187
:1002F000010050EA124001D44000491EC2B20C066F
:1003000004EBD010401C4008802A02D003E00020FB
:1003100010BD20F00100002900DA0020184310BDB4
:1003200030B480EA010202F0004530F0004221F0D2
:10033000004015D0A0B1C0F3C753C2F3C754C2F3F5
:100340001601C0F31600E41A41F4000140F4000263
:100350007D34914201D3641C00E04900002C02DA94
:1003600030BC002070474FF400000023914201D3BD
:10037000891A034340084FEA4101F7D151B1914234
:1003800002D14FF0004105E002D24FF0010101E03F
:100390006FF0010103EBC450284430BC00F0CABA2E
:1003A000420005D0C0F3C7525242914201DC002006
:1003B000704700EBC15070472DE9FE4F804681EA3F
:1003C0000300C00F0C46009021F0004123F00045CF
:1003D000B8EB0200A94105D24046214690461C4692
:1003E0000B46024623F00040104304D1404621460C
:1003F00003B0BDE8F08F270DC7F30A00C3F30A511D
:100400000290401A0190402866DAC3F3130040F4CA
:10041000801B0098924620B10023D2EB030A63EBC5
:100420000B0B01985946C0F14002504600F051FABA
:1004300006460D4650465946019A00F069FA10EBFF
:1004400008006141002487EA115284EAE7731A43E5
:100450003BD0009A3AB3019A012A4FEA075210DCC6
:10046000001B61EB02014FF0004202EA0752CDE9A6
:100470000042001C41F5801132462B4600F09DFAE7
:10048000B6E7001B61EB0201001C41F58013001868
:100490005B412018A2F5001747EB030140EAD57035
:1004A000B6196D4111E06D084FEA360645EAC07590
:1004B0004FEA0752001B61EB0201001C41F580115D
:1004C00049084FEA30000019514132462B4603B02B
:1004D000BDE8F04F00F064BA00980122400000230C
:1004E000D0EB020263EBE073009821464FEAE07420
:1004F000B8EB000061EB0401E9E783F000435BE740
:1005000081F0004158E72DE9FE4F81EA030404F031
:10051000004421F0004100944FF0000B23F0004311
:1005200050EA010402D052EA030404D1002001463B
:1005300003B0BDE8F08FC3F30A54C1F30A552C444D
:10054000A4F2F3340194A0FB0254C1F3130141F46B
:100550008011C3F3130343F4801301FB024400FB37
:10056000034E840A970A44EA815447EA8357A4FB5E
:10057000076802958D0A05FB07854FEA932C04FB5B
:100580000C542705029D4FEA065847EA1637B5EB8B
:1005900008056EEB070C870E920E47EA811742EAB8
:1005A0008312A7FB0201B6EB0B0164EB00042B0DD9
:1005B00043EA0C335E1844EB1C50DA465146E7FB25
:1005C0000201C5F313044FEA0B3343EA14534FEA15
:1005D0000432019C43EA0603A4F10C040294009C3B
:1005E000CDE900B400F0E9F9A2E72DE9F04D81EA88
:1005F000030404F0004B21F0004514464FF0000ABC
:1006000023F0004150EA050220D054EA01021DD037
:10061000C5F30A570246C5F31303C1F31300C1F330
:100620000A5640F4801543F48013A7EB0608101B0C
:10063000D64608F2FD3873EB050002D308F1010835
:1006400001E092185B41B8F1000F03DA0020014687
:10065000BDE8F08D00204FF48011064684460EE080
:10066000171B73EB050705D3121B63EB050306434A
:100670004CEA010C49084FEA300092185B4150EAFD
:100680000107EDD152EA030012D082EA040083EAA6
:100690000501084303D100224FF0004308E0101B7E
:1006A000AB4102D20122002302E06FF0010253109D
:1006B0001AEB06004CEB085110EB0A0041EB0B0162
:1006C000BDE8F04D00F06CB970B521F00043034374
:1006D0000CD0C1F30A550024D5EB040564EB0403E8
:1006E000D617AD1AB34102DB0020014670BD2018B9
:1006F00041EB025170BDC10F80EAE0700844CA07A7
:100700009623002100F01FB996230022114600F025
:100710001AB90EB5C10F80EAE0700844CA0700217B
:1007200040F233438DE80E000A460B4600F045F9CF
:1007300003B000BD0EB540F2334102910021CDE976
:1007400000110A460B4600F038F903B000BD00F076
:10075000004220F00040C10DC0F3160040F400003C
:100760007F2901DA00207047962903DCC1F1960148
:10077000C84001E096398840002AF4D040427047D2
:1007800020F00040C10DC0F3160040F400007F29A6
:1007900001DA00207047962903DCC1F19601C840B8
:1007A000704796398840704770B5C1F30A5201F01E
:1007B00000450024C1F3130140F2FF3341F48011DE
:1007C0009A4201DA002070BD40F233439A42A2F20D
:1007D000334203DC524200F08BF800E090402C439F
:1007E000F1D0404270BD00F0004230F000400AD02D
:1007F000C10D01F56071C0F3160042EA0151C20853
:1008000040071143704700200146704701F0004344
:1008100030B421F0004150EA010206D00A0DA2F5E1
:100820006072C1F31301002A02DC30BC0020704763
:10083000440F44EAC104C100E01830BC00EBC250D0
:1008400000F078B830B50B46014600202022012484
:1008500009E021FA02F59D4205D303FA02F5491B8E
:1008600004FA02F52844151EA2F10102F1DC30BDA4
:100870002DE9F05F0546002092469B4688460646D5
:10088000814640241BE0284641464746224600F068
:100890002FF853465A46C01A914110D311461846B4
:1008A000224600F016F82D1A67EB01084F46224643
:1008B0000120002100F00DF817EB00094E41201E29
:1008C000A4F10104DFDC484631462A464346BDE830
:1008D000F09F202A04DB203A00FA02F10020704742
:1008E0009140C2F1200320FA03F31943904070476E
:1008F000202A04DB203A21FA02F00021704721FA75
:1009000002F3D040C2F120029140084319467047DB
:10091000202A06DBCB17203A41FA02F043EAE073C3
:1009200006E041FA02F3D040C2F1200291400843B0
:10093000194670470029A8BF7047401C490008BFEE
:1009400020F00100704710B4B0FA80FC00FA0CF0FF
:1009500050EA010404BF10BC704749B1CCF1200437
:1009600021FA04F411FA0CF118BF012121430843C4
:10097000A3EB0C01CB1D0106000A002BBEBF00201B
:1009800010BC704700EBC35010440029A4BF10BC3A
:100990007047401C490008BF20F0010010BC7047A0
:1009A00010B5002B08DA401C41F1000192185B41A0
:1009B0001A4301D120F0010010BD2DE9F04D9246FF
:1009C0009B4611B1B1FA81F202E0B0FA80F2203216
:1009D0009046FFF77EFF04460F4640EA0A0041EAD0
:1009E0000B0153465A46084303D120463946BDE819
:1009F000F08D114653EA010015D0C8F1400250466F
:100A0000FFF776FF05460E46504659464246FFF729
:100A100060FF084301D0012000E00020054346EAC2
:100A2000E0762C4337430A984FEA4453A0EB080082
:100A30004FEAD4240A304FF0000244EA47544FEA08
:100A4000D72502D500200146D1E7010510196941DB
:100A5000DDE9084500196941BDE8F04DA0E7000057
:100A6000064C074D06E0E06840F0010394E80700FB
:100A700098471034AC42F6D3FFF760FB086D0008CE
:100A8000286D00082DE9F04D00231A461B1A8A41F3
:100A900003DB00200146BDE8F08DC1F30A52C1F32B
:100AA000130141F480154FF0000BD10702D100185B
:100AB0006D41521E0027044640F2FF11384601EBFB
:100AC000620A3E468046024600204FF48011FFF73E
:100AD0000FFFC2197141BB1846EB0100B4EB030CC8
:100AE00075EB000C04D3E41A65EB000517460E46BF
:100AF000241908F101006D4180463428E3DDF9191D
:100B000046EB0600091BA84103D24FF0FF32134603
:100B100001E0002213461BEB070046EB0A51BDE83B
:100B2000F04DFFF73DBF70B501EB020410F8015B1B
:100B300015F0070301D110F8013B2A1106D110F876
:100B4000012B03E010F8016B01F8016B5B1EF9D17A
:100B50002B0705D40023521E0FD401F8013BFAE7FE
:100B600010F8013B02F10202A1EB030303E013F8CA
:100B7000015B01F8015B521EF9D5A142D6D30020DA
:100B800070BD0000354810B5816941F004018161F4
:100B900033490A6822F470220A60816941F40071C5
:100BA0008161C16841F40071C160C16821F40071C4
:100BB000C160416821F440414160416841F4004115
:100BC000416028480168284A1140016001680160BD
:100BD000016821F480710160001D016821F00201AB
:100BE0000160016821F460210160016841F4602125
:100BF0000160016841F480110160016821F4006125
:100C00000160184928310A6822F470020A600A68F3
:100C100000220A6013490C310A6822F470020A604B
:100C20000A6842F4E0420A60016841F00101016093
:100C3000016841F00801016001680907FCD40168FE
:100C400041F00401016001684907FCD4012002F071
:100C500047FABDE8104000F0E7BB0000001002407A
:100C60000008014004240140FFFFF000FEE70000FF
:100C700038B5002000906B4601227521682003F0F2
:100C800051F930A001F068FD9DF80000682809D0F6
:100C900035480168354A01F4E06111430160BFF352
:100CA000408FFEE703F048FB002849D1782004F08C
:100CB00001F810B923A001F04FFD782003F06EFA7F
:100CC00010B92BA001F048FDC82003F0B3FF10B904
:100CD00031A001F041FD02F075FB10B938A001F020
:100CE0003BFD4448044603F07FF90546E01C03F051
:100CF0007BF945EAC005A01D03F076F945EA8010AE
:100D000080B202F015FD10B93BA001F025FD40F2C4
:100D1000731002F02BFA10B941A001F01DFDC8209C
:100D200002F06CFC10B948A001F016FD04F086F941
:100D3000012003F0A5FE002802D14CA001F00CFD1B
:100D400038BD00006D70755F7365745F73656E7399
:100D50006F7220636F6D706C657465202E2E2E2E61
:100D60002E2E0D0A000000000CED00E00400FA0534
:100D70006D70755F636F6E6669677572655F6669D2
:100D8000666F20636F6D706C657465202E2E2E2E3D
:100D90002E2E0D0A000000006D70755F7365745F84
:100DA00073616D706C655F7261746520636F6D70E7
:100DB0006C657465202E2E2E2E2E2E0D0A0000003E
:100DC000646D705F6C6F61645F6D6F74696F6E5F8F
:100DD0006472697665725F6669726D7761726520AB
:100DE000636F6D706C657465202E2E2E2E2E2E0D69
:100DF0000A00000098000020646D705F7365745FE6
:100E00006F7269656E746174696F6E20636F6D7067
:100E10006C657465202E2E2E2E2E2E0D0A000000DD
:100E2000646D705F656E61626C655F666561747547
:100E3000726520636F6D706C657465202E2E2E2E8A
:100E40002E2E0D0A00000000646D705F7365745FE4
:100E50006669666F5F7261746520636F6D706C6543
:100E60007465202E2E2E2E2E2E0D0A006D70755FAD
:100E70007365745F646D705F737461746520636F14
:100E80006D706C657465202E2E2E2E2E2E0D0A0090
:100E900070B52A4C6068401C6060012803D100F0E6
:100EA0007FFE00F093FE26480121006800F094F8D0
:100EB00024480068FFF71FFC022100F08DF822484B
:100EC0000068FFF718FC032100F086F81F4800684F
:100ED000FFF711FC042100F07FF80521002000F04D
:100EE0007BF80621002000F077F80721002000F0B1
:100EF00073F80821002000F06FF80921002000F0AD
:100F00006BF80A21002000F067F80A2000F024F8AE
:100F100000210F4A607021700E4B151D06E01688E7
:100F20007606FCD55E5C2E80491C2170C9B28142D8
:100F3000F5D3BDE87040322002F0D2B81401002091
:100F4000080000201C0000201800002028000020BD
:100F5000003801407C0500200A2839D890B31D498B
:100F600024220B280A7033D2DFE800F032060A0E82
:100F700012161A1E22272D000520487106207047E0
:100F8000092048720A2070470D2048730E207047D0
:100F9000112048741220704715204875162070479C
:100FA000192048761A2070471D2048771E20704768
:100FB000212081F8210022207047252081F825007A
:100FC0002620704704E0292081F829002A20F8E72C
:100FD0000020F6E77C05002003B50A2912D8002975
:100FE00010D00B290ED2DFE801F00D06080E10120A
:100FF0001416181A1C00012200E005220A4968464E
:1010000000F0DAF80CBD0922F8E70D22F6E711220C
:10101000F4E71522F2E71922F0E71D22EEE721227C
:10102000ECE72522EAE700007C050020704700007D
:10103000314810B5C16941F00401C161816941F0D5
:10104000080181612D48016821F07061016001682B
:1010500041F000610160016821F0704101600168A8
:1010600041F0804101602648018841F00101018082
:10107000018841F04001018001231E22032118460E
:1010800000F0E0FC1E4800231C3003801C494FF692
:10109000E750203108801A480C38018821F440714B
:1010A0000180018821F06001018015490C310A8816
:1010B00042F001020A800A8842F480720A80104AD3
:1010C0001432148824F002041480148824F02004BC
:1010D00014800A8842F030020A800949091F0A88F0
:1010E00042F003020A80064918310B80018841F062
:1010F0000101018010BD000000100240000C014001
:101100000C0800402A4810B5C16941F00101C161D5
:10111000816941F0040181612648016821F00F01D5
:101120000160016841F004010160016821F0F001F3
:101130000160016841F040010160C404A08940F0F1
:101140000100A081A08940F04000A08101231C2261
:101150000321184600F076FC002020854FF6E75169
:10116000A185218821F440712180218821F060012E
:101170002180218B41F001012183218B41F4807179
:101180002183218C21F002012184218C21F0200176
:101190002184218B41F030012183218941F0030119
:1011A0002181A084208840F00100208010BD000033
:1011B000001002400008014003788B54114443782A
:1011C0004B7082788A70C078C8707047F0B5CA7862
:1011D000002502F00F03D20601D58A7813430C785C
:1011E0004FF00F0E0122ECB1D0F800400F8802FA48
:1011F00005F63740B74211D14FEA850C0EFA0CF7CD
:1012000024EA070703FA0CF43C43CF78282F02D0D6
:10121000482F02D002E0466100E006616D1C082DF7
:10122000E4D304600C88FF2C1ED944685FF00006EC
:1012300006F1080702FA07F50F882F40AF420FD1D9
:101240004FEA860C0EFA0CF7BC4303FA0CF73C434A
:10125000CF78282F00D14561CF78482F00D1056184
:10126000761C082EE4D34460F0BD416170470161F3
:10127000704700000B490A6822F01F020A600A68E2
:1012800002430A6007482C38016841F4800101607C
:101290000448343801688907FCD5024818300068D2
:1012A00080B27047342401402DE9F04701287DD0F9
:1012B0004621D02000F0E3F804464521D02000F07C
:1012C000DEF804EB0020FFF71FFA05464821D02086
:1012D00000F0D5F804464721D02000F0D0F804EB08
:1012E0000020FFF711FA04464421D02000F0C7F88F
:1012F0004321D02000F0C3F83C21D02000F0BFF8FB
:1013000006463B21D02000F0BAF806EB0020FFF79C
:10131000FBF980463E21D02000F0B1F83D21D020DD
:1013200000F0ADF84021D02000F0A9F806463F219A
:10133000D02000F0A4F806EB0020FFF7E5F94FF00D
:101340008E4706464FF08F49BD4204DD4946284688
:10135000FEF7AAFF0546BC4204DD49462046FEF7DB
:10136000A3FF04464046B84503DD4946FEF79CFF0F
:101370008046BE4204DD49463046FEF795FF0646EC
:10138000204985F0004008603046FFF72CFA0746F8
:101390000E464046FFF727FA3A46334601F0AEFDC7
:1013A0000022194BFFF7AFF8184A00E027E0184B6E
:1013B000FFF71BF9FFF72AFA06462846FFF713FA4C
:1013C0004FF06632134BFFF710F9FFF71FFA12497F
:1013D0000978022902D0032906D00AE080F00041F2
:1013E000304600F029FA04E080F00041304601F078
:1013F00079F90A480A49006808600A480460BDE8AB
:10140000F08700000C00002000806640F1D4C85333
:10141000FB2109406666304000000020D800002013
:10142000080000201000002010B50420FFF722FF64
:10143000FFF780F94FF066320B4BFFF764F800229C
:101440000A4BFFF760F80022094BFFF75CF8002217
:10145000084BFFF7CAF86FF00B02FFF735F9FFF7FB
:10146000A3F90549086010BD66660A4000002740E0
:10147000000059400000F83F28000020FEE770B54A
:101480000D46044600F0CEF8204600F09BF800F030
:101490000DF9284600F096F800F008F900F0C2F8BF
:1014A000641CE0B200F08EF800F000F9002000F0BB
:1014B00053F8044600F0DEF8204670BD70B50B4CC2
:1014C0000025E5600A48016821F00F01016001680C
:1014D00041F0030101602560012001F015FE0120AB
:1014E000E06001F011FEE56070BD0000A001214246
:1014F000040801400848816941F0040181610748FE
:1015000001684FF20F0291430160016843F2030248
:1015100011430160704700000010024004080140C0
:1015200070B50B4C0025E5600A48016821F00F01F9
:101530000160016841F00301016001262660304628
:1015400001F0E2FDE660012001F0DEFDE56070BD26
:10155000A0012142040801402DE9F04781461748C7
:101560000024016821F00F010160016841F00801C9
:101570000160134E254627464FF00108C6F8AC71AE
:10158000022001F0C1FDC6F8AC816006040ED6F859
:10159000200108B1641CE4B2022001F0B5FD6D1C0D
:1015A000EDB2082DEAD3B9F1000F02D0FFF786FFA4
:1015B00001E0FFF7B5FF2046BDE8F08704080140D1
:1015C000000021422DE9F04106461448016821F04F
:1015D0000F010160016841F003010160104C002718
:1015E000C4F8AC713D464FF00108F009C4F8A00101
:1015F0007006060E012001F087FDC4F8AC810120C1
:1016000001F082FDC4F8AC71012001F07DFD6D1C7C
:10161000EDB2082DE9D3BDE8F081000004080140D7
:101620000000214270B51148016821F00F010160EE
:10163000016841F0030101600D4C0120C4F8A001D4
:10164000D4F8201149B1C4F8AC0101F05DFD0025CA
:10165000C4F8A051D4F8200108B1002070BD0120C9
:1016600001F052FDC4F8AC51012070BD04080140E6
:10167000000021420B4810B5016821F00F01016004
:10168000016841F003010160074C0020E060206028
:10169000012001F039FD0120E0602060BDE810402C
:1016A00001F032BD04080140A001214270B5134889
:1016B0000024016821F00F010160016841F0080178
:1016C00001600F4D0126C5F8A061304601F01CFDF8
:1016D000C5F8AC6107E0641CE4B2322C03D9FFF713
:1016E000C9FF002070BD012001F00EFDD5F82001DA
:1016F0000028F0D1C5F8AC01012070BD04080140FC
:101700000000214210B51446FFF7B9FE20700120F9
:1017100010BDF8B515461C460E4607466A46FFF74B
:10172000F1FF01209DF80010A8400CB1084301E032
:1017300021EA0000C2B28DF800203146384600F0A0
:101740002BF8F8BD2DE9F84314461D460F46804698
:101750006A46089EFFF7D6FF00281BD0611CFF20B9
:10176000C4F1080200FA01F12A44521ED04001439C
:10177000C5F108008640F2B2C4F10700C2409DF8EE
:101780000000084010438DF80000C2B239464046C0
:1017900000F002F8BDE8F88307B502AB012200F0C3
:1017A00001F80EBD2DE9F0411E4615468846074654
:1017B0000024FFF737FF3846FFF704FFFFF776FFF7
:1017C0004046FFF7FFFEFFF771FF06E0305DFFF7D1
:1017D000F9FEFFF76BFF641CE4B2AC42F6D3FFF7EF
:1017E00049FF0120BDE8F08141060748826942F0C7
:1017F000010282610548426822F0E062426042686C
:101800000A4342607047000000100240000001409F
:101810000748816941F0080181610648016821F4A7
:1018200070010160016841F400010160704700002F
:1018300000100240000C01402DE9F34F554C87B0D9
:10184000216A04910898FEF72FFD61690091FEF767
:1018500031FDA169FEF7D6FC04F144050390D5F8EB
:1018600004A0A0685146FEF71FFDD5F80890494630
:10187000FEF71AFD48490860EA6882F000464E60AB
:101880008E60E768CF6090460099FEF713FD2968E7
:10189000FEF7B8FC834630460099FEF70BFD06467E
:1018A0005146FEF7AFFC029030464946FEF7AAFCCF
:1018B000824638460099FEF7FDFC4146FEF7A2FC41
:1018C000814603990798FEF7EFFC80466062207816
:1018D000FEF71AFF59460190FEF7ECFC0646A0629F
:1018E00051460198FEF7E6FCE0620590314601980A
:1018F000FEF7E0FC2169FEF785FC074620633946C8
:101900003046FEF70DFD6063009039460598FEF7FE
:1019100007FDC4E90E060746DDE90101FEF7CAFC32
:101920002064019031460098FEF7C4FC5946FEF74A
:10193000BEFC2860DDE90001FEF7BCFC0299FEF761
:10194000B6FC686031463846FEF7B4FC5146FEF7F7
:10195000AEFCA86038460199FEF7ACFC4946FEF79C
:10196000A6FCE86041460098FEF7A4FC0399FEF748
:1019700049FCA06141463846FEF79CFC0499FEF7FD
:1019800041FC014620620898FEF78EFCE06109B038
:10199000BDE8F08FC00000206C05002006490A68F1
:1019A000521C0A60824205D104480268D243026098
:1019B000002008607047000040000020A081214204
:1019C00010B5022000F011F8022000F020F80020ED
:1019D00000F014F8002000F02FF8002000F026F8A6
:1019E000BDE81040002000F01BB808B503230090AC
:1019F00002226B21D020FFF7A5FE08BD08B5022307
:101A0000009004221C21D020FFF79CFE08BD08B5E1
:101A10000223009004221B21D020FFF793FE08BD73
:101A2000034601223721D020FFF773BE034605226B
:101A30006A21D020FFF76DBE034606226B21D0201D
:101A4000FFF767BE10B51846144600F015F80120E0
:101A50004FF0E021202C06D2D1F80021A040024313
:101A6000C1F8002110BDD1F80421203CA040024360
:101A7000C1F8042110BD0000072181430A02054975
:101A800008684FF6FF031840034B184310430860E3
:101A9000704700000CED00E00000FA05FEE70000D2
:101AA000214A10B5D36943F00203D361936943F02F
:101AB000080393611D4A136823F0FF031360136842
:101AC00043F0BB031360121D13689BB213601368CD
:101AD000174C23431360174A1080101F01801548CC
:101AE0001038018841F4C0410180018841F0600153
:101AF0000180018841F400610180018841F0080102
:101B00000180001D018841F480510180018841F469
:101B100080710180C11307482C380180018841F091
:101B20000101018010BD000000100240000C0140C6
:101B3000000022222C04004070470000F0B50F2165
:101B4000C478027801234FF0E026DCB1124C2468FF
:101B5000457804F4E064C4F5E064240AC4F10407A1
:101B6000E1408478BD400C402C4321010B4C1155C1
:101B7000007800F01F018B40400906EB8000C0F8A0
:101B80000031F0BD02F01F008340500906EB8000D9
:101B9000C0F88031F0BD00000CED00E000E400E092
:101BA00030B40021084B0A465FF0000003EBC0048C
:101BB000401CC0B262548028F8D3491CC9B208291D
:101BC000F2D330BC00F0EEB86C01002010B500215B
:101BD0008D2000F0B1F90021102000F0ADF90021B6
:101BE000BDE81040AE2000F0A7B910B500218D204F
:101BF00000F0A2F90021142000F09EF90021BDE8B8
:101C00001040AF2000F098B910B57F2816D83F29B2
:101C100014D80723A3EBD10301F00701C1F1070496
:101C20000121A140064CDBB204EBC000002AC25CDB
:101C3000C9B201D00A4300E08A43C25410BD00007B
:101C40006C010020504810B5816941F008018161A4
:101C50004E490A6822F0F0020A600A6842F0200247
:101C60000A60816941F010018161816941F00101DF
:101C7000816147494A68C2F313024A604A68454B8A
:101C80001A434A6044490A6842F480720A60026A50
:101C900022F0010202624148028822F00102028021
:101CA000086820F4807008603D4C002020606420AB
:101CB00001F016FA012020600021AE2000F03CF96E
:101CC0000021D52000F038F90021502000F034F92F
:101CD0000021A82000F030F900213F2000F02CF96D
:101CE0000021D32000F028F90021084600F024F953
:101CF0000021402000F020F900218D2000F01CF987
:101D00000021142000F018F90021202000F014F91F
:101D10000021022000F010F90021A12000F00CF9B0
:101D20000021C02000F008F90021DA2000F004F9B9
:101D30000021122000F000F90021812000F0FCF8C1
:101D40000021EF2000F0F8F80021D92000F0F4F88D
:101D50000021F12000F0F0F80021DB2000F0ECF889
:101D60000021302000F0E8F80021A42000F0E4F881
:101D70000021A62000F0E0F80021AF2000F0DCF800
:101D8000BDE81040FFF70CBF00100240040C0140FA
:101D9000001001400000202200700040306C004024
:101DA000B401224270B5114E002400BF04F1B0000E
:101DB000C0B2002100F0C0F80021084600F0BCF8D5
:101DC0000021102000F0B8F85FF0000506EBC50018
:101DD0000121005D00F0B0F86D1CEDB2802DF5D34F
:101DE000641CE4B2082CE1D370BD00006C0100203B
:101DF0002DE9FF4F203A1F460C46894602F0FF0AA4
:101E00000025DDF834B032E00C2F09D01A4901EB7F
:101E10000A104FF00008465D300607D55A4609E023
:101E200016490AEB4A0001EB8000F2E7BBF1000F14
:101E300012D0002221460098FFF7E6FE7006641CCF
:101E4000060EE4B2A4EB0900B84207D100984C4654
:101E5000401CC0B2009008E00122EBE708F101004D
:101E600000F0FF08B8F1080FD6D36D1CEDB2BD42EB
:101E7000CAD3BDE8FF8F000028660008B4610008DF
:101E80002DE9FF4F81B00026DDF838A01D469346AE
:101E9000814634464FF001084FEA5A0727E0281BD5
:101EA000401EC1B20A2002F08FFFBBFBF0F00A21F6
:101EB000B0FBF1F201FB120026B9691E8C4201DA77
:101EC00048B101263030C2B207FB0490C0B253467D
:101ED000CDF8008006E007FB0490C0B253462022F4
:101EE000CDF800800299FFF783FF641CE4B2AC4296
:101EF000D5D305B0BDE8F08FF8B516460D460446BB
:101F0000012714E07A2C02D900241035EDB23A2DC5
:101F100003D900242546FFF743FE009732780C23AF
:101F200029462046FFF764FF0834E4B2761C307877
:101F30000028E7D1F8BD00002DE9F041154F00253C
:101F40000646012411B1C7F8A44101E0C7F8A45125
:101F5000DFF8448040214046FFF787F90F49002011
:101F6000C1F8BC51320602D5C1F8B84101E0C1F850
:101F7000B851C1F8BC417206401C160EC0B2082808
:101F8000EED340214046FFF772F9C7F8A441BDE8FF
:101F9000F081000000802142001401400000224234
:101FA00070470000044A0029916901D0014300E014
:101FB00081439161704700000010024030B5204914
:101FC0004A6812F00C031F4A03D0042B01D0082BDF
:101FD00022D002604A680F231B4C03EA1212A35C52
:101FE0000268DA4042604B68072505EA1323E35C88
:101FF00022FA03F383604B6805EAD323E35C22FAF9
:1020000003F2C2604968032303EA9131231F595C3C
:10201000B2FBF1F1016130BD4A684B6802F4701205
:102020004FF0020413F4803F04EB924202D04B685D
:102030009B0301D5054B00E0024B5A43C9E7000062
:102040000010024000127A003000002000093D001C
:102050002DE9F04188B0294C07A8CDE9004004F1F2
:102060001E0106AB02AA881F01F0B6F92088C00540
:1020700040D50298FEF73FFB6FF01D063146FEF794
:102080008FF9804660600398FEF735FB3146FEF716
:1020900087F90746A0600498FEF72DFB3146FEF74E
:1020A0007FF90546E0600598FEF725FB3146FEF70F
:1020B00077F90646206101214046FEF771F929466D
:1020C000FEF7F8F805464FF040413846FEF7F2F8C3
:1020D0003146FEF7EFF82946FEF794F8FEF783FB4A
:1020E00000F0BCFC4FF06632054BFEF70CFAFEF731
:1020F0008DFB606108B0BDE8F08100007400002035
:1021000066A64C4010B54221D020FFF7B8F904462E
:102110004121D020FFF7B3F904EB0020FEF7F4FAD9
:10212000B0F18E4F03DD4FF08F41FEF7BDF8094946
:10213000FEF7F6F8FEF757FB074A084BFEF73CF9A7
:102140000022074BFEF7DFF9FEF760FBBDE8104009
:10215000FEF7FDBA0000AA43A4703D0AD7434240EF
:1021600000002440704700000CB500212648019172
:102170000091026842F4803202604FF4A06302686A
:1021800002F400320092019A521C0192009A12B994
:10219000019A9A42F3D10268920333D5012100914A
:1021A0001A490A6842F010020A600A6822F0030223
:1021B0000A600A6842F002020A60416841604168B0
:1021C0004160416841F480614160416821F47C11C3
:1021D0004160416841F4E8114160016841F080715B
:1021E000016001688901FCD5416821F0030141606B
:1021F000416841F0020141604168C1F38101022957
:10220000FAD10CBD00910CBD00100240002002402C
:102210002DE9F04100250126114C0F46002804DA73
:10222000C4F8BC61C4F8B85103E0C4F8BC51C4F8A8
:10223000B86102F0C5FD0B490880002F04DAC4F82C
:10224000B051C4F8B46103E0C4F8B061C4F8B4514B
:10225000384602F0B5FD0349091F0880BDE8F0814A
:102260000080214240040040704700000F4810B534
:10227000016841F00101016041680D4A114041606F
:1022800001680C4A11400160016821F4802101605D
:10229000416821F4FE0141604FF41F018160FFF7A6
:1022A00063FF05494FF00060086010BD0010024058
:1022B0000000FFF8FFFFF6FE08ED00E02DE9F04119
:1022C00023480188C90740D0018821F0010101801D
:1022D00002F096FE4FF4C870FFF760FBFFF7A4F81A
:1022E000642001F0A5FE1B480078FEF7DDFF1A48C8
:1022F0001A4D0168286800F0C1FE194C194E1A4F9A
:10230000E0623168386803F091F82063174831685B
:102310000268386802F038FF6063D4E90B12114498
:10232000134C0A1A134E08442260306000F0BEF9C4
:1023300011480168286800F057F8002805D1316875
:102340002068BDE8F041FFF763BFBDE8F081000001
:10235000102C0140000000200C000020080000208C
:102360001C0100201C00002018000020100000208C
:102370002000002024000020280000204FF0804092
:10238000018A018A21F00101018270470348018816
:10239000018821F001010180704700001008004011
:1023A0000F4A936943F4006393610E4A1080101F33
:1023B00001800C482038018841F00101018001882A
:1023C00041F04001018007482C38018841F00101AB
:1023D00001800123192203211846FFF733BB0000B7
:1023E000001002402C2C01400C4988420CD80C49AA
:1023F000884209DC0B480078012805D00A4840F2E1
:1024000056410068884207DA084A0120002191609D
:10241000D16051601160704700207047000034C2E5
:10242000000034420100002028000020B081214239
:1024300010B540F22551094800F0A5F800280BD04E
:1024400002F0E8FFA52807D102F0E4FF5A2803D1E3
:10245000BDE8104002F0DEBF10BD000000380140B2
:10246000F0B53B48008880066DD53948001D0288CC
:1024700038480A2A00F10C01826000DA0A70354BF4
:102480000F781B1D03F1080693F800C07578B47827
:102490000020F67867450AD193F801C0654506D15A
:1024A00093F802C0644502D1DB789E420DD0294BDF
:1024B00093F800C0674511D15F78BD420ED19D7879
:1024C000AC420BD1DB789E4208D1234B1C78E4B19F
:1024D00000241C70087048708870C8701F4B204C16
:1024E000204D214E9AB10127012A12D0052A15D07C
:1024F000022A16D0032A14D0042A12D0062A23D086
:10250000072A21D0082A1FD00FE00124E1E7187024
:1025100000E01F7020702870307006E0187027707F
:10252000F9E718702070287037708879C871487979
:10253000887108794871C87808718878C8704878B7
:10254000887008784870F0BD187020702F70E3E72D
:1025500000480040A40000200100002014000020DA
:10256000150000201600002017000020C94301803C
:1025700070470029818902D041F4005101E021F423
:1025800000518181704730B501F01F020124002500
:10259000C1F3421304FA02F2012B0FD0022B0FD029
:1025A000838A4FEA11210088134204FA01F400EAF9
:1025B000040001D000B10125284630BD8389F0E731
:1025C000038AEEE710B5C1F3421301F01F040121A5
:1025D000A140012B07D0022B07D01430002A02683B
:1025E00005D00A4304E00C30F8E71030F6E78A43E0
:1025F000026010BD30B50446008A85B00D464CF629
:10260000FF710840E98801432182A1894EF6F31049
:102610000140A8882A8910436A890A431043A0818F
:10262000A08A4FF6FF410840A9890143A18268466C
:10263000FFF7C4FC1B48844201D1039800E00298D4
:10264000A1890904002900EBC00101EB00102968F1
:1026500002DA4FEA410101E04FEA8101B0FBF1F0FB
:102660006422B0FBF2F14FEA01114FEA11136FF04F
:1026700018056B4300EB8300A3891D044FF0320360
:1026800006D503EBC000B0FBF2F000F0070005E058
:1026900003EB0010B0FBF2F000F00F0008432081C4
:1026A00005B030BD00380140FEE700000B4910B511
:1026B00040F6AC5042420C68531E944201DA0B6063
:1026C00002E0844200DD086005490C68944201DAAA
:1026D0000B6010BD8442FCDD086010BD20000020AE
:1026E000240000202DE9F04180460846FEF77BF8E3
:1026F000164A174BFDF707FF164D06460C46A8690C
:10270000FEF771F832462346FDF756FE0C4669681F
:1027100007460E464FF07E50FDF7C6FDFEF763F804
:102720003A462346FDF7EFFE07460C463146404643
:10273000FDF7C0FDFEF757F83A462346FDF73CFE8D
:10274000FEF764F8A861BDE8F08100007B14AE4795
:10275000E17A743FC00000200FB4054B10B503A907
:10276000044A029800F090F810BC5DF814FB0000D9
:10277000793A000854010020490050EAC12018BFEE
:1027800004204A0D18BF40F0010040F2FF72B2EB86
:10279000515F08BF40F00200012808BF05207047C4
:1027A0002DE9F0414F1E00EBC7010446D1E90001BD
:1027B00015461E4637F006020DD02A463346FDF771
:1027C000A2FE7F1E04EBC703D3E90023FDF7F4FD4F
:1027D00037F00602F1D1022F25D0042F13D0062F97
:1027E00018BFBDE8F0812A463346FDF78CFED4E9D8
:1027F0000A23FDF7E1FD2A463346FDF784FED4E9BE
:102800000823FDF7D9FD2A463346FDF77CFED4E9BF
:102810000623FDF7D1FD2A463346FDF774FED4E9C1
:102820000423FDF7C9FD2A463346FDF76CFED4E9C3
:102830000223FDF7C1FD2A463346FDF764FED4E9C5
:102840000023BDE8F041FDF7B7BD0000024A0020BB
:102850001107FDF739BF000001FDFFFF02E008C8C6
:10286000121F08C1002AFAD170477047002001E00A
:1028700001C1121F002AFBD1704700000149086006
:1028800070470000580100202DE9FF4F89B09B469A
:102890000446002597E0252833D10027641C4E49C3
:1028A000B84601222378203B02FA03F0084202D006
:1028B0000743641CF6E720782E2819D114F8010F7D
:1028C00047F004072A280ED06FF02F022078A0F1DD
:1028D000300109290CD808EB880102EB410100EB1B
:1028E0000108641CF2E70A98641C50F8048B0A90F3
:1028F000207800286BD0642808D0692806D0752875
:1029000020D05A460B9990476D1C5BE00A994FF016
:102910000A0901C90A91002804DAC0F100004FF049
:102920002D0102E0390504D52B218DF8201001215D
:1029300003E0F90704D02021F7E78A4608AE0EE04D
:102940000021FAE70A994FF00A0901C90A91F7E74D
:102950004946FDF777FF01F1300106F8011D002817
:10296000F6D1ADEB060000F12009780701D44FF055
:102970000108C84502DDA8EB090000E00020804600
:10298000002706E008A85A46C05D0B9990476D1CC9
:102990007F1C5745F6DB04E030205A460B999047E0
:1029A0006D1CB8F10001A8F10108F5DC05E016F88E
:1029B000010B5A460B9990476D1CB9F10001A9F122
:1029C0000109F4DC641C207800287FF464AF0DB0AA
:1029D0002846BDE8F08F0000092801002DE9FE4FD0
:1029E00007460E460025684601F050F800246FF0B7
:1029F0000F0AE8464FF0010957F8240056F8241052
:102A0000401A00D54042FDF776FE5146FDF7C8FC5E
:102A100058F8241011F0FF4F0BD0FDF781FC4FF058
:102A20007E51FDF741FC0A4920F00040884205DC58
:102A300007E0084908440849884202D309FA04F02B
:102A40000543641C032CD7DB2846BDE8FE8F00003D
:102A5000295C0F3E666666C19A99D9002DE9F04D52
:102A6000904F21F0004A86B005460C46BA4530DB4F
:102A7000AAEB070028430CD08B48824501DC1CD10F
:102A8000DDB106B02846BDE8F04D4FF00102FDF77C
:102A90001BBE864A864B2846FDF735FD07460E4687
:102AA000844A854B28462146FDF72DFD06B03A465F
:102AB0003346BDE8F04DFDF77FBC0120FFF7DEFE99
:102AC00006B00022BDE8F04D134610461146FDF752
:102AD0008CBD7A48824542DABAF1795F0BDA284632
:102AE000FFF74AFE042808BFFFF7B0FE284606B0ED
:102AF0002146BDE8F08D2A460B461046FDF703FD42
:102B0000834602466E480E460B4606217844FFF780
:102B100047FE5A463346FDF7F6FC804669488A462A
:102B20005A46334604217844FFF73AFE5A46334664
:102B3000FDF7E9FC00223B46FDF73EFC02460B4652
:102B400040465146FDF751FD2A462346FDF7DBFC82
:102B500006B02A462346BDE8F04DFDF72DBC2846B9
:102B600024F0004100223D463B46FDF7C9FC4FF0F2
:102B7000FF32FDF7A9FD0646024653480F460B46B5
:102B800006217844FFF70CFE32463B46FDF7BBFCBE
:102B9000CDE900014D4832463B4604217844FFF719
:102BA000FFFD32463B46FDF7AEFC00222B46FDF70B
:102BB00003FC834602913046394602F0BDFA804656
:102BC00043480D46504517DCDDE900015A46029B9B
:102BD000FDF70BFD42462B46FDF795FC42462B4682
:102BE000FDF7EAFB0122FDF76FFD304A304BFDF7A0
:102BF00084FC304A304B4CE04FF0000A52460B4602
:102C00004046FDF7D9FBCDE9031052462B4610464E
:102C10001946FDF778FC32463B46FDF771FCDDE9CD
:102C20000332FDF7E2FC06460F46DDE900015A4695
:102C3000029BFDF7DAFC83460091012230463946BB
:102C4000FDF742FD194A1A4BFDF75AFC06460F469E
:102C5000012240462946FDF737FD5A46009BFDF705
:102C600052FC32463B46FDF748FC07460E46012221
:102C700050462946FDF728FD0E4DDFF858802A46BC
:102C80004346FDF73DFC3A463346FDF739FC2A46FC
:102C90004346FDF735FC002CD8BF81F0004106B05B
:102CA000BDE8F08D0000F03F0000F07F075C1433BA
:102CB00026A6913C182D4454FB21F93F0000E03F2B
:102CC000084100001E41000092400000A8400000A2
:102CD0003333EF3FFB21E93F2DE9F84F04460D4622
:102CE00021F0004000917449884213DB7349884207
:102CF00001DC08D13CB120462946BDE8F84F4FF031
:102D00000102FDF7E1BC6E48002DCCBF6D496E4954
:102D1000BDE8F88F6D49884211DA6D498842A8BF35
:102D20004FF0FF366DDA20462946FFF725FD0428CF
:102D300008BFFFF78BFD20462946BDE8F88F65499F
:102D4000654F25F00045884233DA6449884219DA34
:102D5000002632464FF0804320462946FDF72CFBE3
:102D600080468A46012220462946FDF7ADFC002216
:102D70003B46FDF7C2FB42465346FDF736FC044690
:102D80000D463EE001260022BA463B462046294633
:102D9000FDF712FB80460F46002253462046294687
:102DA000FDF7ABFB42463B46FDF71FFC04460D46D4
:102DB00027E04B4988421BDADFF8288102260022EF
:102DC000434620462946FDF79EFB00223B46FDF781
:102DD000F3FA07468A460022434620462946FDF775
:102DE0008CFB3A465346FDF700FC04460D4608E0CE
:102DF000032622462B4600203B49FDF7F6FB0446FE
:102E00000D4622462B4610461946FDF77CFB8B46A5
:102E1000824602460B46FDF776FB074602463348DC
:102E200088460B4606217844FFF7BAFC52465B46BB
:102E3000FDF769FB82462E488B463A4643460521FC
:102E40007844FFF7ADFC3A464346FDF75CFB02468B
:102E50000B46002E504659460CDAFDF7ADFA2246D5
:102E60002B46FDF750FB01B022462B46BDE8F04F44
:102E7000FDF746BBFDF7A0FA22462B46FDF743FBC4
:102E80001C4A7A4402EBC603D3E90023FDF735FB65
:102E900022462B46FDF731FB174A7A4402EBC60364
:102EA000D3E90023FDF72CFB009A002AB8BF81F07C
:102EB0000041BDE8F88F0000000010440000F07FE2
:102EC000182D4454FB21F93FFB21F9BF0000DC3FE2
:102ED0000000203E0000F33F0000F03F0000E63F0E
:102EE000008003400000F83F0000F0BFA63E000055
:102EF000643E0000023E0000CA3D00002DE9F04D96
:102F00009446CCF1000423F000464CEA0404524FEE
:102F100046EAD4749A46884621F00042BC4206D85C
:102F2000454240EA050442EAD474BC4204D9BDE8F3
:102F3000F04D6246FDF740BAAAF14055A5F17F6514
:102F400055EA0C040BD0022404EAAA74434DDFF8BE
:102F500010E144EAD87452EA000B04D00CE0BDE85A
:102F6000F04DFFF7B9BE002C14BF012CBDE8F08D69
:102F7000022C30D0032C32D056EA0C0B0AD0BE42C1
:102F800020D1BA4209D126F0804622F08042334651
:102F9000114617E000291ADB25E0DFF8C8B0FB4432
:102FA000002C04BFDBE90001BDE8F08D012C02BF5D
:102FB000DBE9000181F00041BDE8F08D022C0AD070
:102FC000032C0CD0BA4212D1B8F1000F0BDA23480F
:102FD0002549BDE8F08D28462449BDE8F08D2846F6
:102FE0007146BDE8F08D1D482149BDE8F08D921B6A
:102FF00012153C2AC4BF19481D490EDCBAF1000F56
:10300000BEBF12F13C0F0020014606DB6246FDF711
:10301000ECFA21F00041FFF75FFE002C08BFBDE88D
:10302000F08D012C04BF81F00041BDE8F08D114A04
:10303000114B022C07D0FDF760FA2A46BDE8F04D8F
:103040000A4BFDF75ABAFDF758FA2A46BDE8F04D8B
:10305000064BFDF755BA00000000F07F182D4454D0
:10306000FB2109C05E3D0000FB21F9BFFB210940A7
:10307000FB21F93F075C143326A6A13C70B504463A
:103080000846FDF7B0FB6FF00202FDF71DFB064698
:103090000D4607492046FDF70DF9FDF7A4FB324622
:1030A0002B46FDF789F9BDE87040FDF77DBB0000B8
:1030B000000020424FF0E0210A6922F004020A6178
:1030C0000649C00800EB40020870C2EBC0104FF682
:1030D000FF7202EAC00048807047000044000020F0
:1030E0000849498848434FF0E02148610020886141
:1030F00001220A610A69D30701D0D203FAD5086117
:1031000088617047440000200849097848434FF01F
:10311000E02148610020886101220A610A69D30721
:1031200001D0D203FAD508618861704744000020BD
:1031300008B560B120208DF8000028208DF801002E
:1031400030208DF8020038208DF8030004E0A3221F
:1031500004216846FDF737F86A46042140F69E20B0
:1031600001F004FE01F0CAFA08BD00003EB50446B5
:1031700002208DF80000CA208DF80100E3208DF8B0
:10318000020009208DF803006A460421682001F03E
:10319000EDFDA3208DF80000610609D5C0218DF852
:1031A0000110C8218DF80210C2218DF8031005E02E
:1031B0008DF801008DF802008DF8030014F4C07F33
:1031C00009D0C4218DF80410CC218DF80510C6213A
:1031D0008DF8061005E08DF804008DF805008DF8D7
:1031E00006008DF808008DF807008DF809006A4682
:1031F0000A2140F6A72001F0B9FDA0074FF0D8053D
:1032000003D020208DF8000001E08DF800506A46C0
:10321000012140F6B62001F0A9FDA00601D501204C
:1032200000E0002000F08EF814F4C07F1ED0E0050E
:103230000AD5B2208DF800008B208DF80100B62051
:103240008DF802009B2009E0B0208DF8000080205E
:103250008DF80100B4208DF8020090208DF8030055
:103260006A46042140F6A22001F080FDE1074FF4F8
:103270000B6022D0F8218DF800106A46012101F080
:1032800075FDFA21072000F043FB072000F00EFB3C
:10329000012000F02BFB642000F0CEFB4FF4FA700D
:1032A00000F0DAFBC821254800F0C8FA282000F019
:1032B000DDFA0A2000F0EAFA05E08DF800506A46CF
:1032C000012101F053FDA00703D5D9208DF800009E
:1032D00001E08DF800506A46012140F23D7001F096
:1032E00045FD600701D5012000E0002000F04CF80A
:1032F000E00601D5012000E00020FFF719FF104D86
:1033000044F00800688101F0F9F90020A873600614
:1033100001D50620A87314F4C07F02D0A87B801DBD
:10332000A87314F0140F02D0A87B1030A873A00764
:1033300002D0A87B001DA87300203EBD09E3CA028D
:103340005C0100200EB54FF4976320B108A207CAB4
:103350008DE8070006E009A2D2E90010926800910A
:10336000CDE901026A460921184601F0FFFC0EBDB5
:10337000B8AAB38DB4980D355D000000B8AAAAAA0A
:10338000B088C3C5C700000008B560B1C0208DF883
:103390000000C2208DF80100C4208DF80200C62074
:1033A0008DF8030004E08B2204216846FCF70BFF34
:1033B0006A46042140F6982001F0D8FC01F09EF9FD
:1033C00008BD0000C8234FF48062024940F6F63081
:1033D00001F076B8BE5500082DE9FF4F89B01746B9
:1033E000DDE9165200244C4E884681462C80A246C8
:1033F000B07B694601F010F94FF0FF3B18B1584619
:103400000DB0BDE8F08F708910F0140F3CD000991A
:1034100009BA21F0FF039DF803100B433B600199AB
:103420001B1409BA21F0FF029DF807105B430A4301
:103430007A6002999DF80B4009BA21F0FF012143FF
:10344000B960039C091424BA24F0FF0C9DF80F40C6
:1034500012144CEA040CC7F80CC04FEA2C4749433D
:1034600002FB023207FB071111441024A1F1706125
:10347000B1F1007F04D901F041F9A5F800A0BEE741
:10348000298841F4807129804206694611D50A19BC
:10349000A41D13885BBAA8F8003053885BBAA8F85B
:1034A0000230928852BAA8F804202A8842F0080212
:1034B0002A8010F4C07F11D00A19A41D13885BBAAA
:1034C000A9F8003053885BBAA9F80230928852BA42
:1034D000A9F804202A8842F070022A80800716D0BA
:1034E0000C44E07800F0C00500F03F016078C007B0
:1034F00006D0C80801F007013268491C02B19047A4
:103500006078000703D5716809B1A80988470C984D
:1035100000F012FB002073E75C0100202DE9FF4161
:10352000044603A800F082FEBDF80C004FEA5041AB
:103530004FEAC0333048028902F00300550754F8BF
:10354000200001D5C0F10000C2F3C105960654F871
:10355000255001D5C5F10005C2F38116D20554F8F6
:10356000264000D56442A0FB0367C21702FB03722A
:1035700000FB0120820042EA9670A5FB0367EA1770
:1035800002FB037205FB0122950045EA9672A4FB3B
:103590000367E51705FB037304FB01318B0043EA66
:1035A0009671030E8DF80030030C8DF80130030A7C
:1035B0008DF802308DF80300100E8DF80400100C09
:1035C0008DF80500100A8DF80600080E8DF8080029
:1035D000080C8DF80900080A8DF80A008DF80720FC
:1035E0008DF80B106A460C214FF4257001F0BEFBDC
:1035F00004B0BDE8F08100005C01002030B5044655
:1036000013A285B007CA8DE807004FF0FF35C82C1C
:1036100016D8C820B0FBF4F1491E080A8DF80C003A
:103620008DF80D1003AA022140F2162001F09EFB36
:1036300030B96A460C2140F6C12001F097FB10B169
:10364000284605B030BD054884810020F9E7000018
:10365000FEF2ABC4AAF1DFDFBBAFDFDF5C0100200D
:10366000F8B53149098901F0030250F822404A07B0
:1036700001D5C4F10004C1F3C1028B0650F8222029
:1036800001D5C2F10002C1F3811350F82330C805FF
:1036900000D55B42254984FB0140850045EA9470D2
:1036A00082FB0142A40F44EA820483FB0121950FAF
:1036B00045EA8105010E8DF80010010C8DF801100E
:1036C000010A8DF802108DF803006A4604214FF4B8
:1036D000747001F04BFB4FF0FF3688B9200E8DF867
:1036E0000000200C8DF80100200A8DF802008DF8F2
:1036F00003406A4604214FF4757001F037FB08B1AE
:103700003046F8BD280E8DF80000280C8DF8010019
:10371000280A8DF802008DF803506A4604214FF400
:10372000767001F023FBF8BD5C01002009E3CA02BA
:103730002DE9FF4104463CA004F003030068029019
:103740003AA0006803903AA006683AA0056802A86B
:10375000C15C8DF80010C4F3C101425C8DF80120FA
:10376000C4F38112805C8DF8020003A8C35C8DF85D
:103770000430415C8DF80510805C8DF806006A46C7
:10378000032140F2264001F0F1FA4FF0FF37E0BB91
:1037900001AA032140F22A4001F0E8FAA8BBCDE9D2
:1037A000006560070BD59DF8000040F001008DF822
:1037B00000009DF8040040F001008DF80400A00610
:1037C0000BD59DF8010040F001008DF801009DF837
:1037D000050040F001008DF80500E0050BD59DF8CF
:1037E000020040F001008DF802009DF8060040F054
:1037F00001008DF806006A4603214FF4886001F04D
:10380000B5FA10B901AA032100E004E040F231400A
:1038100001F0ACFA18B1384604B0BDE8F0810648B2
:1038200004810020F8E700004CCD6C000CC92C008E
:1038300036567600264666005C0100204FF47A7208
:1038400090FBF2F008B54843010E8DF80010010C12
:103850008DF80110010A8DF802108DF803006A46F8
:1038600004214FF4AE7001F081FA08BD0521B0FBD0
:10387000F1F008B5010A8DF800108DF801006A46D4
:1038800002214FF4AD7001F071FA08BD0521B0FBC3
:10389000F1F008B5010A8DF800108DF801006A46B4
:1038A00002214FF4AC7001F061FA08BD08B50021A7
:1038B0008DF80010C10702D030218DF8001081076B
:1038C00005D59DF8001041F00C018DF8001040075F
:1038D00005D59DF8000040F003008DF800006A4611
:1038E00001214FF4A47001F041FA08BD08B560B1A0
:1038F000042800D90420401E8DF800006A460121EA
:1039000040F24F1001F032FA08BD0120F3E7000049
:103910002DE9FC41054640074FF0FF367CD0B1F55C
:10392000C86F79D80846FCF7EFFE3E49FCF7F8FC73
:10393000074601A800F05CFC9DF80400022806D0B0
:1039400004280DD008282ED0102865D134E00E218F
:103950003846FCF725FDFCF713FF84B2324907E037
:103960000D213846FCF71CFDFCF70AFF2F4984B2F5
:103970003846FCF79FFCFCF703FF210A8DF8001086
:1039800080B28DF80140010A8DF802108DF8030015
:10399000E8076C4620D0224602214FF4EA7001F07D
:1039A000E5F9C8BB11E00C213846FCF7F9FCFCF73F
:1039B000E7FE84B21E49DBE70B213846FCF7F0FC3A
:1039C000FCF7DEFE84B21B49D2E7A21C02214FF4B1
:1039D000927001F0CBF9F8B9A8070DD56A4602211B
:1039E0004FF4EC7001F0C2F9B0B9A21C02214FF4FF
:1039F000947001F0BBF978B9680710D56A460221C6
:103A00004FF4EE7001F0B2F930B9A21C02214FF46C
:103A1000967001F0ABF910B13046BDE8FC81002092
:103A2000FBE7000000004843000040460000C0459E
:103A3000000040450000C0440521B0FBF1F008B58E
:103A4000010A8DF800108DF801006A4602214FF43A
:103A5000EF7001F08BF908BD0521B0FBF1F008B55E
:103A6000010A8DF800108DF801006A4602214FF41A
:103A7000ED7001F07BF908BD034AC1B21180111F3E
:103A80000A885206FCD57047043801402DE9FE43F0
:103A90000646264801AB042240680D21007800F05C
:103AA00041FA10B10720BDE8FE839DF804101C20E8
:103AB00000EAD1029DF80710DFF87490C1F30113FA
:103AC0001A438DF800209DF80520C1F3810300EA18
:103AD000D2021A438DF801209DF8062001F003015F
:103AE00000EAD20008430024124F8DF80200A046DD
:103AF0006D46285D10B146F824900AE046F824800F
:103B00000DE000BF56F824003946FCF7D3FB46F819
:103B10002400285D401E10F0FF002855F2D1641CDF
:103B2000E4B2032CE5D30020BDE7000048000020EC
:103B30007B14AE3E1D5A843F704700002DE9FE4FB6
:103B400005460120C14E8DF800004FF000088DF8A9
:103B5000018030680C461746817C70686B460222F3
:103B6000007800F017FA4FF0FF3A00287AD1C82009
:103B7000FFF7B6FA8DF8008030686B460122C17BF2
:103B80007068007800F006FA0028EFD130686B46C4
:103B9000012241797068007800F0FCF90028E5D135
:103BA00030686B460122817C7068007800F0F2F981
:103BB0000028DBD130686B460122C17D7068007837
:103BC00000F0E8F90028D1D130686B460122017974
:103BD0007068007800F0DEF90028C7D14FF00C09BA
:103BE0008DF8009030686B4601220179706800788A
:103BF00000F0D0F9002835D10F20FFF771FAB06A34
:103C00006B460122407A8DF8000030688178706838
:103C1000007800F0BFF9002824D1B06A6B46012279
:103C2000007A8DF80000306841787068007800F004
:103C3000B1F9002873D1B06A807A0FB140F0E0008A
:103C40008DF8000030686B46012281797068007839
:103C500000F0A0F9002862D12FB1B06AC07A40F01C
:103C6000E00001E04AE018208DF8000030686B4663
:103C70000122C1797068007800F08CF9F0BB17B1AF
:103C8000C820FFF72DFA40208DF8000030686B4601
:103C9000012201797068007800F07CF970BB78200F
:103CA0008DF8000030686B46012241797068007819
:103CB00000F070F910BB3220FFF712FA8DF8008087
:103CC000306847466B46417970680122007800F001
:103CD00061F998B931687068B046897A00786B46A6
:103CE000022200F01FF948B9BDF80000AF6040BAE9
:103CF000B0FBF9F06F60C6B22F6000E00FE0A76084
:103D000067602760002739E0D8F80010D8F8040071
:103D10006B46C97A00780C2200F004F910B15046C5
:103D2000BDE8FE8FBDF80000236840BA02B2BDF8BE
:103D30000200BDF804101A44226040BA626800B262
:103D40001044606049BAA06809B20844A060BDF898
:103D500006002B6840BA02B2BDF808001A4440BA07
:103D600001B2BDF80A002A606A6840BA114469606D
:103D7000A96800B208447F1CFFB2A860B742C3D351
:103D800028688322C117090441EA10410004002376
:103D9000FCF7ECF932460023FCF7E8F92860686884
:103DA0008322C117090441EA104100040023FCF7F3
:103DB000DDF932460023FCF7D9F96860A868832250
:103DC000C117090441EA104100040023FCF7CEF9B1
:103DD00032460023FCF7CAF9A86020684FF400655A
:103DE000C117090441EA104100042A460023FCF7E8
:103DF000BDF932460023FCF7B9F9206060682A4615
:103E0000C117090441EA104100040023FCF7AEF990
:103E100032460023FCF7AAF96060A0682A46C11761
:103E2000090441EA104100040023FCF79FF93246DF
:103E30000023FCF79BF9A060002802DDA0F580308C
:103E400001E000F58030A060002069E74800002014
:103E50002DE9F84F81462E488846002540686B467C
:103E6000032200780D2100F05DF810B10720BDE8B5
:103E7000F88F9DF80000002400F01F008DF800006E
:103E80009DF801006FF00F0B00F01F008DF801008E
:103E90009DF802006E4600F01F008DF802004FF002
:103EA000010A00BF59F8241058F82400081A00D558
:103EB0004042FCF720FC5946FCF772FA0746305D99
:103EC000C0B1144802E01449FCF7F4F9315D491E11
:103ED00011F0FF013155F6D101463846FCF720FAC2
:103EE0004FF07E51FCF7E0F90C4920F00040884289
:103EF00005DC07E00A483844B0F1D97F02D90AFA54
:103F000004F00543641C032CCCDB2846AFE700001B
:103F1000480000200000C84154E3853F295C0F3E63
:103F20000000E0BE2DE9F0411D4614460F4606464E
:103F3000FDF778FBB0B17006000EFDF743FBFDF70F
:103F4000B5FB90B13846FDF73DFBFDF7AFFBFDF744
:103F500069FB012000EB4600C0B2FDF733FBFDF723
:103F6000A5FB0FE00120BDE8F081FDF783FBF9E739
:103F7000012C0DD05FF00100FDF7EEFA641E05F88C
:103F8000010BE4B2002CF3D1FDF774FB0020EAE74B
:103F90000020F1E72DE9F0411E4615460F46044684
:103FA000FDF740FB68B16006000EFDF70BFBFDF767
:103FB0007DFB48B13846FDF705FBFDF777FB002494
:103FC0000CE00120BDE8F081FDF754FBF9E7305D1E
:103FD000FDF7F8FAFDF76AFB10B1641CAC42F6DBA2
:103FE000FDF748FB0020EDE790F90010002902DD05
:103FF0004FF00000704702DA4FF00400704790F96C
:104000000110002902DD4FF00100704702DA4FF085
:104010000500704790F90200002802DD4FF0020011
:10402000704702DA4FF0060070474FF00700704704
:1040300030B51D4BD3F814211C490C7822434FF0A6
:10404000010400D10C704D78002285B90D78012D46
:1040500003D18D786D1C8D704C708C78022C06D13C
:10406000134C257845B1002525708A708A80D3F8D5
:104070001431012B02D003E00125F5E70A704A70E4
:104080008B78012B0CD18B885B1C9BB28B8083427D
:1040900006D90848037823B1002303708A708A8008
:1040A00030BD0123F9E7000000802142B800002064
:1040B00002000020010000200748816941F008014A
:1040C00081610648016821F00F010160016841F03B
:1040D000030101607047000000100240040C014021
:1040E000FEF7C4F84820FEF7E5FF01F03DF94FF474
:1040F0001651482001F0D6F80220FDF775FB01208B
:10410000FDF772FBFFF7D8FFFDF782FBFCF73AFDE6
:10411000002140F60F60FDF7C3FCFDF793FDFCF7AF
:1041200087FFFCF7EFFFC820FEF7DAFFFDF7E2F9A3
:10413000FDF746FCFCF79CFD41F61F413120FEF7E0
:104140002FF9134E134D144C207801280DD1FDF793
:104150007FFF3068A060B5F90200FCF7CCFAE060A0
:10416000B5F90400FCF7C7FA20616078012802D095
:1041700020780128E8D9FDF7C5FF6060A078012804
:1041800002D0FCF785FEDFE700F028FEDCE7000048
:10419000880000208C000020000000202DE9F04164
:1041A000124C20F00101002594F8240010B10020E9
:1041B000BDE8F081A07A4FF0FF3668B10840277C57
:1041C0002074884200D0354641B1012000F088FFBC
:1041D00000F094FA38B127743046E9E7207D00B149
:1041E000012000F07DFF2846E2E7000048000020A3
:1041F0000D494A7A42B1012A08D0022A0FD0032A77
:104200000FD04FF0FF307047022200E0042202700E
:10421000C97C11B11106C90D017000207047082238
:10422000F5E71022F3E70000480000200F494A7A22
:1042300042B1012A09D0022A11D0032A12D04FF02C
:10424000FF3070474FF4804201E041F69C720280DB
:10425000C97C11B1C2F34E010180002070474FF4B8
:104260008052F4E74FF40062F1E7000048000020BC
:104270000B49097A39B1012907D002290AD003294B
:104280000BD0002103E0FA2101E04FF4FA71018024
:10429000002070474FF47A71F9E74FF4FA61F6E7BE
:1042A000480000200A49097A41B1012908D00229B1
:1042B0000AD003290AD04FF0FF307047054900E0CB
:1042C00005490160002070470449FAE70449F8E70E
:1042D00048000020000003430000834233330342C0
:1042E000333383410C49C97A072913D2DFE801F03F
:1042F0001204060A0C0E1000BC2100E062210180AD
:10430000002070472A21FAE71421F8E70A21F6E78E
:104310000521F4E70021F2E748000020054991F863
:10432000242012B14FF0FF307047C989018000206E
:1043300070470000480000202DE9FC414C4C8020D3
:104340008DF8000020686B460122817C606800784F
:10435000FFF720FE4FF0FF37002832D16420FEF730
:10436000BFFE00258DF8005020686B460122817C3D
:1043700060680078FFF70EFE002871D120686B4658
:104380000622817D60680078FFF7CCFD002867D1A8
:104390009DF805009DF80310C007400F01F00101D2
:1043A00040EA41019DF801004FF0010600F00100D4
:1043B000014309D0012905D0022916D02DA0FEF70E
:1043C000CBF94DE0E67411E020686B460122C1781C
:1043D00060680078FFF7A6FD002841D19DF8000035
:1043E00010F00F0020D0042822D0E574FF2004F83C
:1043F0000A0F4FF6FF7104F8020C04F8010C60700C
:10440000A180A0712072A67026766576E572A572ED
:10441000E56025616561A576E576A5834FF4FA60D0
:1044200000F06AFBE0B907E01C48FEF795F917E0D9
:104430001BA0FEF791F9C5E7022000F07FFA78B9DA
:104440002A2000F0C1FB58B9322000F0F3FB38B944
:104450000020FFF7A3FE18B9002000F0A3FA10B166
:104460003846BDE8FC81002000F024FC0020F8E77D
:1044700048000020556E737570706F72746564200B
:10448000736F6674776172652070726F64756374A0
:10449000207265762025642E0A0000007055000801
:1044A00048616C662073656E7369746976697479A6
:1044B000207061727420666F756E642E0D0A0000A4
:1044C0002DE9FF4FDFF89480064685B098F8250067
:1044D00015460F464FF0FF39B0BBAFB3002420E0C4
:1044E000301B102800DD102080B283463A190146A7
:1044F0009246204600F03AFC30BB6A4659462046B8
:1045000000F0D2F800BB50465A466946FBF76DFEF4
:1045100020B16FF0010009B0BDE8F08F04EB0B0093
:1045200084B2B442DCD3280A8DF810008DF8115003
:10453000D8F80000444604AB817ED8F8040002227B
:104540000078FFF727FD08B14846E4E7012084F82A
:1045500025000898E0840020DDE7000048000020E6
:104560002DE9F84305464FF0FF39282844D807279E
:10457000284C00267DB1012000F0F4FA20208DF8AF
:1045800000004FF00108012D17D0052D18D88DF827
:10459000018005201FE0002000F0E4FA8DF80060A3
:1045A0008DF8017020686B460222817C606800787B
:1045B000FFF7F0FC00BB267529E08DF80160E8E705
:1045C000142D04D802208DF801000A2003E00320F6
:1045D0008DF80100142000F0F7FA9DF801006B46F9
:1045E00007EB80108DF8010020680222817C606852
:1045F0000078FFF7CFFC10B14846BDE8F8830820EB
:10460000A072267384F814800020FFF7C7FD0020F5
:10461000F3E70000480000202DE9F843214C06464E
:10462000174694F8240089464FF0FF3890B3A07ADB
:1046300080B320686B460222817A60680078FFF7B9
:1046400071FC38BBBDF8000045BAB54202D200206B
:1046500038701FE060684188B5EB510F11D92168AF
:1046600000786B46497C0122FFF75CFC90B99DF80D
:104670000000C00605D500F041F86FF00100BDE86C
:10468000F8832068F2B24B46C17A60680078FFF781
:1046900049FC08B14046F2E7B5FBF6F0401E387021
:1046A0000020ECE748000020F8B516000D464FF05A
:1046B000FF371FD0104CA17AE1B1010A8DF800102C
:1046C000C0B28DF80100411960684289914211D849
:1046D000216800786B46097E0222FFF75BFC48B92F
:1046E0002068EAB23346417D60680078FFF71AFC23
:1046F000002800D03846F8BD48000020F8B5524CDC
:104700004FF0FF36A07A00287CD000258DF80050AD
:1047100020686B460122C17B60680078FFF73AFC95
:1047200000286FD120686B460122417960680078CB
:10473000FFF730FC002865D120686B460122017923
:1047400060680078FFF726FC00287AD194F82400EE
:10475000C0B30C208DF8000020686B46012201795F
:1047600060680078FFF716FC00286AD1C0208DF839
:104770000000A07AC00702D0E0208DF80000206879
:104780006B460122017960680078FFF703FC00287E
:1047900057D1607C18B102208DF8000001E08DF83F
:1047A000005020686B460122C17B60680078FFF7EB
:1047B000F1FB38BB8DF8005020686B46417960688A
:1047C000007839E0FFE704208DF8000020686B4690
:1047D0000122017960680078FFF7DCFB90B9A07CCA
:1047E00088B9A07AC0070ED05FF060008DF8000095
:1047F00020686B460122017960680078FFF7CAFBE8
:1048000000B902E01DE04020F0E7607C18B1012013
:104810008DF8000001E08DF8005020686B46012201
:10482000C17B60680078FFF7B5FB50B92068064B84
:1048300041796068103300780122FFF7ABFB002854
:1048400000D03046F8BD0000480000202DE9F047B8
:10485000394C82468AB094F824000F4620B10020DB
:1048600000F00EF9012600E0002607A8FFF700FD82
:1048700006A8FFF7BDFC09A8FFF734FD08A8FFF75D
:104880004DFD94F80A9094F81080002500223946D6
:104890005046FFF753F910B16D1C022DF6DB022DC7
:1048A0001AD00025012203A96846FFF747F910B185
:1048B0006D1C022DF6DB022D0ED003A93846FEF743
:1048C0008DF8C7B269465046FFF7C2FA10F0FF0FE5
:1048D0004FF0000502D002E0002503E001250FB9EA
:1048E00045F00205FF2020726072E0724FF6FF7102
:1048F000E181A072207401202073BDF81C0000F03B
:10490000FBF89DF8180000F019F8BDF8240000F03D
:104910005BF9BDF8200000F08DF9484600F0CAF9B7
:104920004046FFF73BFC16B1012000F0A9F80AB0A1
:104930002846BDE8F08700004800002038B5184C34
:104940004FF0FF35A17A19B3022806D0042806D00B
:1049500008280ED010281BD10DE0002000E0082010
:104960008DF80000607A9DF80010B0EBD10F04D0F4
:1049700005E01020F4E71820F2E7002038BD206899
:104980006B460122C17960680078FFF703FB08B12C
:10499000284638BD9DF80000C0086072EDE70000B1
:1049A00048000020F8B5354C0546A07CA84201D14E
:1049B0000020F8BD31484FF0FF366B46D0E90010BB
:1049C0004FF001020979007835B3FFF7ABFA70BBFD
:1049D0009DF800006B4620F020008DF80000206854
:1049E0000122017960680078FFF7D4FAF8B9032052
:1049F000FEF776FB02208DF8000094F8220078B3D1
:104A000082202BE020686B460122017D60680078DF
:104A1000FFF7C0FA58B92EE0FFF784FA38B9A07A48
:104A2000C0079DF8000003D040F0200002E00CE039
:104A300020F020008DF8000020686B4601220179EB
:104A400060680078FFF7A6FA08B13046F8BD032089
:104A5000FEF746FB94F8220000B180208DF800009C
:104A600094F823000028CDD09DF8000040F03000DD
:104A70008DF80000C6E7A5749AE700004800002002
:104A800038B51C4C94F8241081421DD0002500B389
:104A900094F82500D0B1002000F022FB0020FFF7A1
:104AA00081FFE08C00F0C6F88DF8005060686B461E
:104AB000012200782321FFF76DFA012084F82400F9
:104AC00000F00EFBFFF71AFE002038BD4FF0FF305C
:104AD00038BD002000F004FB207C8DF800006068E9
:104AE0006B46012200782321FFF754FA84F8245002
:104AF000E8E700004800002038B5194C4FF0FF35BA
:104B0000A17A31B3FA2809D0B0F5FA7F08D0B0F510
:104B10007A7F0FD0B0F5FA6F1BD10DE0002000E0D6
:104B200008208DF80000207A9DF80010B0EBD10F1E
:104B300004D005E01020F4E71820F2E7002038BD8B
:104B400020686B460122817960680078FFF722FABD
:104B500008B1284638BD9DF80000C0082072EDE776
:104B60004800002038B5174C054694F82300A842A9
:104B700001D1002038BD0DB1302000E000208DF8BB
:104B80000000A07C28B19DF8000040F002008DF8E4
:104B9000000094F8220028B19DF8000040F0800049
:104BA0008DF8000020686B460122017D6068007866
:104BB000FFF7F0F910B14FF0FF3038BD84F8235003
:104BC000D7E700004800002038B5194C4FF0FF35FA
:104BD000A17A31B3BC2801D3012010E0622801D3AF
:104BE00002200CE02A2801D3032008E0142801D376
:104BF000042004E00A2801D3052000E006208DF8F7
:104C00000000E07A9DF80010884201D1002038BDF4
:104C100020686B460122817860680078FFF7BAF956
:104C200008B1284638BD9DF80000E072EEE70000AC
:104C300048000020F8B51E4D04464FF0FF37A87A13
:104C400048B395F8240030BB287D4FF47A7648B1FC
:104C500064B1282C03D8E0B2FFF782FC26E00020E4
:104C6000FFF77EFC042C05D2042406E00020FFF7A9
:104C700077FCF9E7B44200D93446B6FBF4F0401EA5
:104C80008DF8000028686B4601224178686800783A
:104C9000FFF780F908B13846F8BD9DF80000401CC8
:104CA000B6FBF0F0E8814008FFF78EFF0020F8BD6A
:104CB00048000020F8B5054610F0700F4FF00006D0
:104CC00001D0012004E015B18DF8006002E0402021
:104CD0008DF80000244C6B4601222068817C6068BE
:104CE0000078FFF757F94FF0FF3760BB9DF80000E1
:104CF00020F0400020738DF80060680602D4042084
:104D00008DF80000A80605D49DF8000040F00200D0
:104D10008DF80000E80605D49DF8000040F0010081
:104D20008DF80000280705D49DF8000040F03800F9
:104D30008DF8000020686B460122C17C6068007815
:104D4000FFF728F910B1A6723846F8BD25B1082D35
:104D500002D00020FFF706FFA57226753220FEF76D
:104D6000BFF90020F8BD000048000020F8B516008B
:104D70000D464FF0FF371FD0104CA17AE1B1010A68
:104D80008DF80010C0B28DF80100411960684289A9
:104D9000914211D8216800786B46097E0222FFF704
:104DA000F9F848B92068EAB23346417D6068007876
:104DB000FFF7F0F8002800D03846F8BD4800002082
:104DC000002800DA404270470246012000E05043CC
:104DD0000B00A1F10101C9B2F9D17047F8B56A49D8
:104DE00000204860FCF701FF002168A20846FDF79B
:104DF00083F8684D0C24009401232A7800211E209A
:104E0000FDF73EF82878012804D0022804D00328B2
:104E100004D008E060A202E060A200E061A20021EC
:104E20002D20FDF769F861A20A210020FDF764F842
:104E3000604D0A2602232868314690FBF6F22D20A9
:104E40000094FDF71DF82868012390FBF6F106FB9E
:104E500011020A2144200094FDF712F856A20A21FB
:104E60003A20FDF749F855A20A215020FDF744F8F1
:104E700053A214210020FDF73FF8534D2868002865
:104E800009DA52A214212D20FDF736F80094286883
:104E90000523424207E04EA214212D20FDF72CF8F5
:104EA00000942A68052314214120FCF7E9FF49A258
:104EB0001E210020FDF720F8484D2868002809DA57
:104EC00042A21E212D20FDF717F800942868052323
:104ED000424207E03EA21E212D20FDF70DF800946E
:104EE0002A6805231E214120FCF7CAFF3CA2282185
:104EF0000020FDF701F830A228213A20FCF7FCFF42
:104F000039A228215020FCF7F7FF384D64260223F0
:104F10002868282190FBF6F22D200094FCF7B0FFC2
:104F20002868022390FBF6F106FB11022821442099
:104F30000094FCF7A5FF286890FBF6F106FB110032
:104F40000A2806DA0223002228213E200094FCF7DA
:104F500097FF27A232210020FCF7CEFF26480068E9
:104F600010F1FF4F02D32549FBF74CF9FBF708FC82
:104F70000246032332212D200094FCF781FFBDE877
:104F8000F840FCF70FBF0000140100205741592DD5
:104F90000000000000000020444D50004B616C6D8B
:104FA000616E0000487562750000000057656E6410
:104FB00075000000040000202E0000006043000087
:104FC000456E636F31000000180000202D000000C6
:104FD0002B000000456E636F320000001C000020B3
:104FE000566F6C746100000056000000280000201D
:104FF000416E676C65000000080000200000B443AB
:105000000B480188002202800307988C9A84DB13E6
:10501000084A984202D9A0F57D40E8384042106025
:105020000548994202D9A1F57D41E83901607047F0
:1050300024080040180000201C00002010B588B093
:10504000694604A8FFF702FC072835D107A8FFF737
:1050500029F90498FBF74FFB07990C46FBF72AF94F
:10506000FBF775FB04900598FBF745FB2146FBF722
:1050700021F9FBF76CFB05900698FBF73CFB2146FA
:10508000FBF718F9FBF763FB069004A8FEF7E8FAB4
:1050900003A8FFF7CBF8BDF80C000099414300913D
:1050A0000199414301910299414368460291FEF7FB
:1050B00035FA02A0FDF750FB08B010BD736574749B
:1050C000696E6720626961732073756363657366D7
:1050D000756C6C79202E2E2E2E2E2E0D0A000000BF
:1050E000F8B5144C0146224694F82460D2E9000237
:1050F00000235D1E56B179B1022111E0C17B107809
:105100006B460122FEF746FF68B90EE0A67A56B15B
:1051100011B1617C61B902E08DF80030EEE7012148
:105120008DF80010EAE72846F8BD9DF8000060748D
:105130000020F8BD480000202DE9F04106460F464A
:10514000FBF7A0FC04000D4618BF0120284320F007
:105150000040C0F17F6000F1E040C00F0FD0002E92
:1051600014BF01200020384320F00040C0F17F60D0
:1051700000F1E040C00F04BF0120FDF77FFB204697
:105180002946BDE8F08100002DE9F04792463C4AEF
:1051900040F2DC533B4F1278DFF8EC90B3FBF2F5B2
:1051A0003A780026394C05F548754FF00308012A76
:1051B00007D099F80020012A03D0C4E90886E661E7
:1051C0001FE0626A521C6262012A01D0E06903E0BA
:1051D0000844FFF7F5FDE0614FF4FA6191FBF0F050
:1051E0002062032802DAC4F8208003E00A2801DDE7
:1051F0000A202062387801281CD099F80000012884
:105200001CD030466661A84200DD65616169684274
:10521000814200DA60611E481E4900680968431A2D
:105220001D4801681D480068FDF7DEF80028A06AE7
:1052300009D00CE0216A6069084402E0216A6069D3
:10524000401A6061DFE761691844401AA0624FF4B8
:10525000E161884202DC4942884200DAA1621049D9
:105260005046FBF75DF80546A06A4000FBF743FA9D
:105270002946FAF7C7FFFBF76AFAA061BDE8F08795
:105280000000002016000020170000201C01002054
:10529000180000201C00002028000020080000202A
:1052A0000000404170B505460801FBF72DFA0446A1
:1052B000294845436808FBF727FA2146FBF730F8F1
:1052C0000546FBF75DFA84B22046FBF71DFA294636
:1052D000FAF7EDFF0421FBF763F8FBF751FA4FF6FD
:1052E000FF7101EA04110A181C48816941F00801A4
:1052F0008161C16941F48021C16119490B6823F4BE
:105300007F430B600B6843F40B430B601449083177
:105310000B6843F480630B60016941F480210161F3
:10532000016921F4802101610E480280001D01887D
:1053300042F20C0211430180018841F48071018026
:10534000018841F020010180BDE87040022327223E
:1053500003210120FCF776BB40420F000010024001
:10536000040C01400848004010B586B0012144F209
:105370000400FCF717FE4FF40070ADF81000182081
:105380008DF813000320214C8DF8120004A920464B
:10539000FBF71CFF2015ADF8100004208DF813005A
:1053A00004A92046FBF712FF4FF4E13000900020E3
:1053B000ADF80400ADF80600ADF80800ADF80C003B
:1053C0000C20134CADF80A0069462046FDF712F98F
:1053D00040212046FDF7CAF8012240F2255120461F
:1053E000FDF7F0F801212046FDF7C3F825208DF8E0
:1053F000140001208DF8150007218DF816108DF886
:10540000170005A8FCF79AFB06B010BD0008014084
:1054100000380140044801888906FCD50248001D77
:105420000088C0B270470000003801402DE9F0410B
:105430002F48304C4FF000080078012833D02E4818
:105440000078012831D0C4F80C802C482C49006821
:10545000096845186560A068FBF75BF9294E2A4B7F
:105460003246FBF750F8FBF79FF907462846FBF753
:1054700050F93246254BFBF746F805460E463846AE
:10548000FBF747F92A463346FAF796FFFBF78CF904
:105490001F4B204DA06019682868FCF7A5FF002865
:1054A000206906D00AE01C4801E04FF46170E0601A
:1054B000CBE7A1680844E168401A20611749884297
:1054C00002DC4942884200DA216120698C2190FB8C
:1054D000F1F0A16800EB8100206019682868FCF7F2
:1054E00083FF012801D1C4F810802068BDE8F08155
:1054F000140000201C0100201500002018000020CE
:105500001C0000209A9999999999E93F9999C93F66
:1055100028000020080000207CFCFFFF407E0500E2
:105520006800000476005401F7FD000175191A0C9B
:105530006A231B1C1F207274433B4138393A6B6C41
:10554000376F06246D6E70008300000000080000B5
:105550000001001832000500000020410000D24286
:10556000295C0F3E9A99993E3333733F295C0F3E75
:1055700050726F64756374204944207265616420C1
:105580006173203020696E6469636174657320649F
:105590006576696365206973206569746865722042
:1055A000696E636F6D70617469626C65206F7220E3
:1055B000616E204D5055333035302E0D0A000000FD
:1055C00070000000002400000002000300000065DD
:1055D0000054FFEF0000FA80000B12820001030C60
:1055E00030C30E8C8CE914D5400213710F8E3883B2
:1055F000F8833000F883258EF8833000F883FFFFAE
:10560000FFFF0FFEA9D6240004001A8279A1000032
:10561000003CFFFF00000010000038836FA2003E36
:1056200003304000000002CAE3093E800000200071
:105630000000000000004000000060000000000CBE
:105640000000000C186E000006920A16C0DFFFFF73
:105650000256FD8CD377FFE1C496E0C5BEAA0000D8
:105660000000FFFF0B2B00001657000003594000FD
:10567000000000001DFA00026C1D000000003FFF4A
:10568000DFEB003EB3B6000D227800002F3C000097
:105690000000001942B5000039A20000B365D90E20
:1056A0009FC91DCF4C3430000000500000003BB6B5
:1056B0007AE80064000000C800000000000010004C
:1056C00000001000FA921000225E000D229F0001DF
:1056D000000000320000FF46000063D4000010000C
:1056E000000004D6000004CC000004CC0000000040
:1056F00010720000004000000000000000000006E2
:105700000002000500070000000000640000000027
:1057100000000000000500050064002000000000FB
:105720000000000000000000400000000300000036
:105730000032F8980000FF650000830F0000FF9B17
:10574000FC0000000000000000000000000000005D
:105750000000000000000000000000000000000049
:1057600000000000000000000000000010004000E9
:105770000000000000060000B26A00020000000104
:10578000FB830068000000D9FC007CF1FF8300006F
:10579000000000650000006403E8006400280000C9
:1057A00000250000000016A000000000100000000E
:1057B0001000002F0000000001F40000100000287D
:1057C0000000FFFF4581FFFFFA72000000000000AB
:1057D0000000004400050005BAC6004778A200009A
:1057E000000100000000000006000000001400009E
:1057F000254D002F706D000005AE000C02D000009A
:105800000000000000000000000000000000001B7D
:105810000000000000000000000000000000006424
:105820000000000800000000000000000000000070
:105830000000000000000000000000000000000068
:105840000000000000000000000000000000000058
:105850000000000000000000000000000000000048
:105860000000000000000000000000000000000038
:105870000000000000000000000000000000001B0D
:1058800000000000000000000000000E000E0000FC
:105890000AC70004000000000032FFFFFF9C000068
:1058A0000B2B000000020000000100000064FFE577
:1058B00000000000000000000000000000000000E8
:1058C00000010000000000010000000000000001D5
:1058D00080000001800000018000002426D3000029
:1058E000000000000000000600100096003C0000D0
:1058F00000000000000000000000000000000C0A92
:105900004E68CDCF770950166759C619CE82000070
:105910000000000000000000000000000000000087
:1059200000000000000017D7840003000000000002
:10593000000000000000C7938F9D1E1B1C19000073
:105940000000000000000000000000000000000057
:105950000000000000000203188500004000000065
:1059600000030000000300000000000000004000F1
:105970000000000000000000000000000000000027
:105980000000000000000000000000000000000017
:105990000000000000000000000000000000000007
:1059A0000000677DDF7E72902E554CF6E688000081
:1059B0000000000000000000000000000000D8DC33
:1059C000B4B8B0D8B9ABF3F8FAB3B7BB8E9EAEF1AA
:1059D00032F51BF1B4B8B08097F1A9DFDFDFAADFA1
:1059E000DFDFF2AAC5CDC7A90CC92C97F1A989267A
:1059F0004666B28999A92D557DB0B08AA8963656CB
:105A000076F1BAA3B4B280C0B8A89711B28398BA9D
:105A1000A3F0240844106418B2B9B49883F1A32900
:105A2000557DBAB5B1A38393F0002850F5B2B6AA5C
:105A3000839328547CF1B9A3829361BAA2DADEDFA2
:105A4000DB819AB9AEF5606870F1DABAA2DFD9BA33
:105A5000A2FAB9A38292DB31BAA2D9BAA2F8DF8541
:105A6000A4D0C1BBAD83C2C5C7B8A2DFDFDFBAA077
:105A7000DFDFDFD8D8F1B8AAB38DB4980D355DB2A9
:105A8000B6BAAF8C96198F9FA70E161EB49AB8AAF5
:105A9000872C547CBAA4B08AB691325676B28494DC
:105AA000A4C808CDD8B8B4B0F19982A82D557D9876
:105AB000A80E161EA22C547C92A4F02C5078F184CF
:105AC000A898C4CDFCD80DDBA8FC2DF3D9BAA6F854
:105AD000DABAA6DED8BAB2B68696A6D0F3C841DA4C
